:020000040800F2
:1000000000280020C518000881160008891600087D
:100010009116000899160008A116000800000000BB
:10002000000000000000000000000000A916000809
:10003000B516000800000000C1160008CD16000823
:100040000D1900080D1900080D1900080D190008F8
:100050000D1900080D1900080D1900080D190008E8
:100060000D1900080D1900080D1900080D190008D8
:100070000D1900080D1900080D1900080D190008C8
:100080000D1900080D1900080D1900080D190008B8
:100090000D1900080D1900080D1900080D190008A8
:1000A0000D1900080D1900080D1900080D19000898
:1000B0000D1900080D190008000000000D190008B6
:1000C0000D19000800000000000000000D190008D4
:1000D000000000000D1900080D19000800000000C4
:1000E0000D1900080D1900080D1900080000000086
:1000F0000000000000000000000000000000000000
:0C01000000000000000000005FF808F1A3
:1001100010B5054C237833B9044B13B10448AFF341
:1001200000800123237010BDDC01002000000000CE
:10013000485E000808B5034B1BB103490348AFF301
:10014000008008BD00000000E0010020485E0008BB
:10015000034613F8012B002AFBD1181A0138704707
:1001600081F0004102E000BF83F0004330B54FEA68
:1001700041044FEA430594EA050F08BF90EA020FD5
:100180001FBF54EA000C55EA020C7FEA645C7FEA68
:10019000655C00F0E2804FEA5454D4EB5555B8BF8B
:1001A0006D420CDD2C4480EA020281EA030382EAFC
:1001B000000083EA010180EA020281EA0303362D8E
:1001C00088BF30BD11F0004F4FEA01314FF4801C61
:1001D0004CEA113102D0404261EB410113F0004F73
:1001E0004FEA03334CEA133302D0524263EB43032A
:1001F00094EA050F00F0A780A4F10104D5F1200EC8
:100200000DDB02FA0EFC22FA05F2801841F1000122
:1002100003FA0EF2801843FA05F359410EE0A5F1F6
:1002200020050EF1200E012A03FA0EFC28BF4CF027
:10023000020C43FA05F3C01851EBE37101F00045DD
:1002400007D54FF0000EDCF1000C7EEB00006EEBEA
:100250000101B1F5801F1BD3B1F5001F0CD3490874
:100260005FEA30004FEA3C0C04F101044FEA4452CB
:1002700012F5800F80F09A80BCF1004F08BF5FEA52
:10028000500C50F1000041EB045141EA050130BD32
:100290005FEA4C0C404141EB0101013C28BFB1F544
:1002A000801FE9D291F0000F04BF01460020B1FA8F
:1002B00081F308BF2033A3F10B03B3F120020CDA62
:1002C0000C3208DD02F1140CC2F10C0201FA0CF040
:1002D00021FA02F10CE002F11402D8BFC2F1200CA5
:1002E00001FA02F120FA0CFCDCBF41EA0C0190405B
:1002F000E41AA2BF01EB0451294330BD6FEA0404A4
:100300001F3C1CDA0C340EDC04F11404C4F120028E
:1003100020FA04F001FA02F340EA030021FA04F3A0
:1003200045EA030130BDC4F10C04C4F1200220FAF7
:1003300002F001FA04F340EA0300294630BD21FA35
:1003400004F0294630BD94F0000F83F4801306BFFB
:1003500081F480110134013D4EE77FEA645C18BFEF
:100360007FEA655C29D094EA050F08BF90EA020F86
:1003700005D054EA000C04BF1946104630BD91EA7E
:10038000030F1EBF0021002030BD5FEA545C05D181
:100390004000494128BF41F0004130BD14F58004C0
:1003A0003CBF01F5801130BD01F0004545F0FE4134
:1003B00041F470014FF0000030BD7FEA645C1ABF69
:1003C000194610467FEA655C1CBF0B46024650EAA0
:1003D000013406BF52EA033591EA030F41F40021CC
:1003E00030BD00BF90F0000F04BF0021704730B552
:1003F0004FF4806404F132044FF000054FF0000127
:1004000050E700BF90F0000F04BF0021704730B5E7
:100410004FF4806404F1320410F0004548BF4042BC
:100420004FF000013EE700BF42004FEAE2014FEA11
:1004300031014FEA02701FBF12F07F4393F07F4FEC
:1004400081F06051704732F07F4208BF704793F0EF
:100450007F4F04BF41F40021704730B54FF4607402
:1004600001F0004521F000411CE700BF50EA010205
:1004700008BF704730B54FF000050AE050EA0102AE
:1004800008BF704730B511F0004502D5404261EB1E
:1004900041014FF4806404F132045FEA915C3FF45F
:1004A000D8AE4FF003025FEADC0C18BF03325FEAFC
:1004B000DC0C18BF033202EBDC02C2F1200300FAAD
:1004C00003FC20FA02F001FA03FE40EA0E0021FAD2
:1004D00002F11444BDE600BF70B54FF0FF0C4CF4C0
:1004E000E06C1CEA11541DBF1CEA135594EA0C0F72
:1004F00095EA0C0F00F0DEF82C4481EA030621EAAD
:100500004C5123EA4C5350EA013518BF52EA0335E7
:1005100041F4801143F4801338D0A0FB02CE4FF099
:100520000005E1FB02E506F00042E0FB03E54FF0C9
:100530000006E1FB03569CF0000F18BF4EF0010EC1
:10054000A4F1FF04B6F5007F64F5407404D25FEABD
:100550004E0E6D4146EB060642EAC62141EA555170
:100560004FEAC52040EA5E504FEACE2EB4F1FD0CB2
:1005700088BFBCF5E06F1ED8BEF1004F08BF5FEA30
:10058000500E50F1000041EB045170BD06F00046E2
:1005900046EA010140EA020081EA0301B4EB5C048F
:1005A000C2BFD4EB0C0541EA045170BD41F4801187
:1005B0004FF0000E013C00F3AB8014F1360FDEBFAC
:1005C000002001F0004170BDC4F10004203C35DA88
:1005D0000C341BDC04F11404C4F1200500FA05F30B
:1005E00020FA04F001FA05F240EA020001F00042AC
:1005F00021F0004110EBD37021FA04F642EB060122
:100600005EEA430E08BF20EAD37070BDC4F10C044B
:10061000C4F1200500FA04F320FA05F001FA04F20F
:1006200040EA020001F0004110EBD37041F10001FB
:100630005EEA430E08BF20EAD37070BDC4F1200506
:1006400000FA05F24EEA020E20FA04F301FA05F26E
:1006500043EA020321FA04F001F0004121FA04F216
:1006600020EA020000EBD3705EEA430E08BF20EAE6
:10067000D37070BD94F0000F0FD101F00046400020
:1006800041EB010111F4801F08BF013CF7D041EAA2
:10069000060195F0000F18BF704703F000465200A6
:1006A00043EB030313F4801F08BF013DF7D043EA77
:1006B0000603704794EA0C0F0CEA135518BF95EA2D
:1006C0000C0F0CD050EA410618BF52EA4306D1D1B4
:1006D00081EA030101F000414FF0000070BD50EAD3
:1006E000410606BF1046194652EA430619D094EA5D
:1006F0000C0F02D150EA013613D195EA0C0F05D147
:1007000052EA03361CBF104619460AD181EA03019A
:1007100001F0004141F0FE4141F470014FF0000052
:1007200070BD41F0FE4141F4780170BD70B54FF0ED
:10073000FF0C4CF4E06C1CEA11541DBF1CEA13556D
:1007400094EA0C0F95EA0C0F00F0A7F8A4EB05044F
:1007500081EA030E52EA03354FEA013100F0888046
:100760004FEA03334FF0805545EA131343EA12630F
:100770004FEA022245EA111545EA10654FEA0026C4
:100780000EF000419D4208BF964244F1FD0404F57D
:10079000407402D25B084FEA3202B61A65EB0305D9
:1007A0005B084FEA32024FF480104FF4002CB6EB96
:1007B000020E75EB030E22BFB61A754640EA0C0016
:1007C0005B084FEA3202B6EB020E75EB030E22BF56
:1007D000B61A754640EA5C005B084FEA3202B6EB97
:1007E000020E75EB030E22BFB61A754640EA9C0056
:1007F0005B084FEA3202B6EB020E75EB030E22BF26
:10080000B61A754640EADC0055EA060E18D04FEAE3
:10081000051545EA16754FEA06164FEAC30343EA83
:1008200052734FEAC2025FEA1C1CC0D111F4801F50
:100830000BD141EA00014FF000004FF0004CB6E749
:1008400011F4801F04BF01430020B4F1FD0C88BFE8
:10085000BCF5E06F3FF6AFAEB5EB030C04BFB6EBF3
:10086000020C5FEA500C50F1000041EB045170BDE6
:100870000EF0004E4EEA113114EB5C04C2BFD4EB13
:100880000C0541EA045170BD41F480114FF0000E97
:10089000013C90E645EA060E8DE60CEA135594EA13
:1008A0000C0F08BF95EA0C0F3FF43BAF94EA0C0F16
:1008B0000AD150EA01347FF434AF95EA0C0F7FF48B
:1008C00025AF104619462CE795EA0C0F06D152EADF
:1008D00003353FF4FDAE1046194622E750EA4106C3
:1008E00018BF52EA43067FF4C5AE50EA41047FF4D4
:1008F0000DAF52EA43057FF4EBAE12E74FF0FF3C39
:1009000006E000BF4FF0010C02E000BF4FF0010C09
:100910004DF804CD4FEA410C7FEA6C5C4FEA430C82
:1009200018BF7FEA6C5C1BD001B050EA410C0CBFD1
:1009300052EA430C91EA030F02BF90EA020F002033
:10094000704710F1000F91EA030F58BF994208BF9A
:1009500090422CBFD8176FEAE37040F00100704757
:100960004FEA410C7FEA6C5C02D150EA013C07D1AE
:100970004FEA430C7FEA6C5CD6D152EA033CD3D0F9
:100980005DF8040B704700BF8446104662468C46F3
:100990001946634600E000BF01B5FFF7B7FF002826
:1009A00048BF10F1000F01BD4DF808EDFFF7F4FF4F
:1009B0000CBF012000205DF808FB00BF4DF808EDDA
:1009C000FFF7EAFF34BF012000205DF808FB00BFFD
:1009D0004DF808EDFFF7E0FF94BF012000205DF81F
:1009E00008FB00BF4DF808EDFFF7CEFF94BF0120D4
:1009F00000205DF808FB00BF4DF808EDFFF7C4FFCD
:100A000034BF012000205DF808FB00BF4FEA410C15
:100A10007FEA6C5C02D150EA013C0AD14FEA430CF8
:100A20007FEA6C5C02D152EA033C02D14FF0000035
:100A300070474FF0010070474FEA410212F5001273
:100A400015D211D56FF47873B3EB625212D94FEA15
:100A5000C12343F0004343EA505311F0004F23FAFF
:100A600002F018BF404270474FF00000704750EA54
:100A7000013005D111F0004008BF6FF00040704711
:100A80004FF00000704700BFB0B58AB000AFF8600B
:100A9000B9607A603B6097F8443087F82630B7F841
:100AA0004030BB84FB6B3B623B8FBB833B68BB61CD
:100AB0007B687B61BB683B6107F11003184600F05F
:100AC0000EF8FB681D4607F110040FCC0FC594E823
:100AD000030085E80300F8682837BD46B0BD80B53F
:100AE00082B000AF78607B689B7D002B0CD13321F6
:100AF000786800F063F83221786800F05FF8282108
:100B0000786800F05BF803E03821786800F056F868
:100B10000121786800F052F80C21786800F04EF856
:100B20000621786800F04AF800BF0837BD4680BD4E
:100B300090B585B000AF786039600023FB730AE0A0
:100B4000FB7B3A6813441B781946786800F064F818
:100B5000FB7B0133FB73FC7B3868FFF7F9FA034634
:100B60009C42EDD300BF00BF1437BD4690BD0000CE
:100B700080B582B000AF78600B46FB701346BB7047
:100B8000FB78074AD25CBB781344DBB2803BDBB214
:100B90001946786800F012F800BF0837BD4680BDDE
:100BA000005F000880B582B000AF786001217868EE
:100BB00000F004F800BF0837BD4680BD80B582B0A4
:100BC00000AF78600B46FB707B6898687B689B89F8
:100BD0000022194601F099F97B689B7D002B11D109
:100BE000FB781B09DBB204221946786800F042F852
:100BF000FB7803F00F03DBB204221946786800F09B
:100C000039F805E0FB7808221946786800F032F8D8
:100C100000BF0837BD4680BD80B582B000AF7860A8
:100C20000B46FB707B6898687B689B89012219469C
:100C300001F06BF97B689B7D002B11D1FB781B09C0
:100C4000DBB204221946786800F014F8FB7803F050
:100C50000F03DBB204221946786800F00BF805E0B8
:100C6000FB7808221946786800F004F800BF0837BE
:100C7000BD4680BD80B584B000AF78600B46FB7088
:100C80001346BB700023FB7319E07B681A68FB7B7B
:100C90009B00134418687B685A68FB7B5B00134415
:100CA0001988FA78FB7B42FA03F3DBB203F0010305
:100CB000DBB21A4601F029F9FB7B0133FB73FA7BA7
:100CC000BB789A42E1D37B6818697B689B8A0122D2
:100CD000194601F01AF9012000F07CFE7B681869C2
:100CE0007B689B8A0022194601F00FF900BF10377C
:100CF000BD4680BDB0B596B004AF00F009FE00F06F
:100D0000A5F900F055FA00F0DDF9642000F062FE6C
:100D1000A24B07F130040FCB84E80F00A04A07F183
:100D2000280392E8030083E803009E4C384607F14D
:100D3000280207F1300100230393202302939A4BEA
:100D4000019310230093984BFFF79EFE25463C46E7
:100D50000FCC0FC594E8030085E803000123924AF5
:100D60009249934800F078FA0C21904801F07AFDFE
:100D700000F026FE02468F4B1B68D31AC82B5BD9A6
:100D800004218D4801F0AAF80346002B15D18B4BA6
:100D90001B780133DAB2894B1A70884B1B78022B0F
:100DA00002D9864B00221A707E48FFF7FBFE00F046
:100DB00007FE03467F4A13603EE001217E4801F0B2
:100DC0008DF80346002B18D17C4B1B78012B05D1E5
:100DD0007B4B1B6801337A4A136008E0774B1B7822
:100DE000022B04D1774B1B680133764A136000F065
:100DF000E7FD03466F4A13601EE002216E4801F0D2
:100E00006DF80346002B17D16C4B1B78012B05D1D5
:100E10006B4B1B68013B6A4A136008E0674B1B7809
:100E2000022B04D1674B1B68013B664A136000F03C
:100E3000C7FD03465F4A136000F0C2FD0246624BE5
:100E40001B68D31AB3F5FA6F0BD9594800F053FA5F
:100E50000C21564801F006FD00F0B2FD03465A4A47
:100E6000136000F0ADFD0246584B1B68D31AB3F572
:100E7000967F74D9514B1B78002B2AD10022002178
:100E80004848FFF775FE4A4B1B7B1A464C4B1B68C4
:100E900007F118004E4902F09BFE07F118031946AE
:100EA0004048FFF745FE002201213E48FFF760FE63
:100EB0003F4B5B7B1A46434B1B6807F118004549C3
:100EC00002F086FE07F1180319463648FFF730FE98
:100ED00040E03A4B1B78012B1CD100220021314805
:100EE000FFF746FE3C492F48FFF722FE0022012172
:100EF0002C48FFF73DFE324B1A6807F118033749BB
:100F0000184602F065FE07F1180319462548FFF759
:100F10000FFE1FE0294B1B78022B1BD10022002162
:100F20002048FFF725FE2E491E48FFF701FE00224C
:100F300001211C48FFF71CFE224B1A6807F1180319
:100F40002849184602F044FE07F1180319461548CF
:100F5000FFF7EEFD00F034FD03461C4A1360144B0E
:100F60001B7B1A46164B1B689A4205DA01220221A6
:100F70000D4800F0CAFF04E0002202210A4800F0F8
:100F8000C4FF0B4B5B7B1A460E4B1B689A422BDA55
:100F900001220421044800F0B8FF2AE0D85E0008CE
:100FA000E85E00084802002000080140F801002027
:100FB0003802002068020020000C0140600200207E
:100FC0000000002004000020640200206C020020C9
:100FD000605E0008745E00088C5E0008A05E000879
:100FE000B05E0008C45E000800220421134800F02F
:100FF0008CFF134B1B7B1A46124B1B689A4218DD61
:101000000F4B1B7B1A460F4B1B68D31A3B643B6C80
:1010100041F2883202FB03F37B647B6CB3F5803FC3
:1010200002D34FF6FF737B64074B1B687A6C1A641C
:101030009EE6054B1B6800221A6499E600080140F1
:101040003802002000000020F801002080B590B098
:1010500000AF07F1180328220021184602F01DFEF8
:101060003B1D00221A605A609A60DA601A610223FE
:10107000BB610123BB621023FB6200237B6307F18A
:101080001803184600F05AFF0346002B01D000F069
:10109000DDF80F237B600023BB600023FB6000238F
:1010A0003B6100237B613B1D0021184601F0C8F91C
:1010B0000346002B01D000F0C9F800BF4037BD4601
:1010C00080BD000080B58EB000AF07F1280300227C
:1010D0001A605A609A60DA6007F1200300221A60F1
:1010E0005A603B1D00221A605A609A60DA601A61E9
:1010F0005A619A612D4B4FF080421A602B4B0722A8
:101100005A602A4B00229A60284B4FF6FF72DA6031
:10111000264B00221A61254B00229A61234801F0D8
:10112000F5FA0346002B01D000F090F84FF48053FD
:10113000BB6207F1280319461C4801F08BFC0346EB
:10114000002B01D000F082F8184801F057FB03464D
:10115000002B01D000F07AF800233B6200237B6271
:1011600007F120031946114801F0D2FF0346002B76
:1011700001D000F06BF860237B600023BB6000238C
:10118000FB6000237B613B1D0C221946074801F0E0
:101190009BFB0346002B01D000F058F8034800F0F9
:1011A0003FFA00BF3837BD4680BD00BFF8010020C0
:1011B00080B586B000AF07F1080300221A605A60BC
:1011C0009A60DA601E4B9B691D4A43F004039361E9
:1011D0001B4B9B6903F004037B607B68184B9B6986
:1011E000174A43F008039361154B9B6903F008030A
:1011F0003B603B68002240F2F731124800F085FE68
:1012000040F2F733BB600123FB6000233B61022304
:101210007B6107F1080319460A4800F0E3FC072345
:10122000BB600023FB6001233B6107F10803194603
:10123000054800F0D7FC00BF1837BD4680BD00BF91
:101240000010024000080140000C014080B400AFD3
:1012500072B600BF00BFFDE780B485B000AFF86094
:10126000B9607A607B80FB68BA689A60FB687A68CC
:101270001A60FB687A889A8000BF1437BD4680BC2C
:10128000704780B586B000AF78600B46FB7007F101
:10129000080300221A605A609A60DA60FB78012B1A
:1012A00011D17B689B88BB600123FB6000233B61FD
:1012B00003237B617B681B6807F10802114618460F
:1012C00000F090FC13E0FB78002B10D17B689B882A
:1012D000BB600023FB6001233B6103237B617B68D0
:1012E0001B6807F108021146184600F07BFC00BF9E
:1012F0001837BD4680BD80B592B000AF786000233E
:101300007B86002387F84730002387F84630002388
:1013100087F84530002387F8443001217868FFF7CB
:10132000B0FF7B6818687B689B880022194600F034
:10133000ECFD122000F04EFB72B600BF7B689B688C
:10134000184601F00EFA00217868FFF79AFF7B68D3
:101350009B681B6800225A620BE07B689B681B68D5
:101360005B6A9BB2B3F5FA7F03D962B600BF002374
:1013700004E17B681A687B689B881946104600F078
:10138000ADFD0346012BE8D07B689B681B680022FB
:101390005A620BE07B689B681B685B6A9BB2B3F583
:1013A000FA7F03D962B600BF0023E7E07B681A68C2
:1013B0007B689B881946104600F090FD0346002B81
:1013C000E8D07B689B681B6800225A620BE07B6850
:1013D0009B681B685B6A9BB2B3F5FA7F03D962B660
:1013E00000BF0023CAE07B681A687B689B881946A7
:1013F000104600F073FD0346012BE8D000233B6448
:1014000052E07B689B681B6800225A620BE07B6895
:101410009B681B685B6A9BB2B3F5FA7F03D962B61F
:1014200000BF0023AAE07B681A687B689B88194686
:10143000104600F053FD0346002BE8D07B689B6804
:101440001B6800225A620BE07B689B681B685B6A22
:101450009BB2B3F5FA7F03D962B600BF00238DE0DB
:101460007B681A687B689B881946104600F036FD39
:101470000346012BE8D07B689B681B685B6A7B8610
:101480007B8E282B03D9012387F8473002E0002305
:1014900087F8473007F108023B6C134497F8472060
:1014A0001A703B6C01333B643B6C272BA9DD7B68D6
:1014B0009B68184601F078F962B600BF0023FB6311
:1014C00011E007F10802FB6B13441A7897F84630D5
:1014D000134487F8463097F846305B0087F846306B
:1014E000FB6B0133FB63FB6B072BEADD1023BB6354
:1014F00011E007F10802BB6B13441A7897F84530E6
:10150000134487F8453097F845305B0087F845303D
:10151000BB6B0133BB63BB6B172BEADD20237B6303
:1015200011E007F108027B6B13441A7897F84430F6
:10153000134487F8443097F844305B0087F8443010
:101540007B6B01337B637B6B272BEADD97F84430A1
:101550005B0887F8443097F846305B0887F84630D8
:1015600097F845305B0887F845307B6897F8452049
:101570001A737B6897F846205A7301231846483738
:10158000BD4680BD80B485B000AF154B9B69144A41
:1015900043F001039361124B9B6903F00103BB60AD
:1015A000BB680F4BDB690E4A43F08053D3610C4B91
:1015B000DB6903F080537B607B680A4B5B68FB60F0
:1015C000FB6823F0E063FB60FB6843F08063FB6033
:1015D000044AFB68536000BF1437BD4680BC7047A7
:1015E000001002400000014080B485B000AF786078
:1015F0007B681B68B3F1804F0BD1084BDB69074A4E
:1016000043F00103D361054BDB6903F00103FB6089
:10161000FB6800BF1437BD4680BC70470010024015
:1016200080B588B000AF786007F1100300221A601F
:101630005A609A60DA607B681B68B3F1804F17D1FB
:101640000D4B9B690C4A43F0040393610A4B9B6961
:1016500003F00403FB60FB6808233B6102237B610A
:101660000223FB6107F110031946044800F0BAFA9F
:1016700000BF2037BD4680BD001002400008014079
:1016800080B400AF00BFFDE780B400AF00BFFDE74E
:1016900080B400AF00BFFDE780B400AF00BFFDE73E
:1016A00080B400AF00BFFDE780B400AF00BFBD460F
:1016B00080BC704780B400AF00BFBD4680BC70479F
:1016C00080B400AF00BFBD4680BC704780B500AF9E
:1016D00000F064F900BF80BD80B400AF012318465C
:1016E000BD4680BC704780B582B000AF786039607D
:1016F00002F026FB034616221A604FF0FF3318460D
:101700000837BD4680BD80B582B000AF78604FF02D
:10171000FF317868FFF7E7FF00BFFDE780B586B0CF
:1017200000AFF860B9607A6000237B610AE0AFF334
:1017300000800146BB685A1CBA60CAB21A707B6945
:1017400001337B617A697B689A42F0DB7B681846DB
:101750001837BD4680BD80B586B000AFF860B9606F
:101760007A6000237B6109E0BB685A1CBA601B7871
:101770001846AFF300807B6901337B617A697B682F
:101780009A42F1DB7B6818461837BD4680BD80B4AD
:1017900083B000AF78604FF0FF3318460C37BD467A
:1017A00080BC704780B483B000AF786039603B681C
:1017B0004FF400525A60002318460C37BD4680BCD7
:1017C000704780B483B000AF7860012318460C37AF
:1017D000BD4680BC704780B485B000AFF860B9608A
:1017E0007A60002318461437BD4680BC704700005D
:1017F00080B586B000AF7860144A154BD31A7B6170
:101800007B693B61134B1B68002B02D1114B124AC1
:101810001A60104B1A687B6813443A699A4207D2DF
:1018200002F08EFA03460C221A604FF0FF3309E0F3
:10183000084B1B68FB60074B1A687B681344054A1A
:101840001360FB6818461837BD4680BD002800208D
:101850000004000070020020C803002080B400AF24
:10186000154B1B68144A43F001031360124B5A686E
:101870001149124B13404B600F4B1B680E4A23F06B
:10188000847323F4803313600B4B1B680A4A23F4E0
:1018900080231360084B5B68074A23F4FE03536000
:1018A000054B4FF41F029A60054B4FF000629A609F
:1018B00000BFBD4680BC7047001002400000FFF82A
:1018C00000ED00E0002103E00B4B5B584350043176
:1018D0000A480B4B42189A42F6D30A4A02E0002308
:1018E00042F8043B084B9A42F9D3FFF7B7FF02F0E6
:1018F0002DFAFFF7FFF970479C62000800000020F6
:10190000DC010020DC010020C4030020FEE7000011
:1019100080B500AF084B1B68074A43F01003136003
:10192000032000F02BF90F2000F008F8FFF72AFE43
:101930000023184680BD00BF0020024080B582B061
:1019400000AF7860124B1A68124B1B7819464FF49F
:101950007A73B3FBF1F3B2FBF3F3184600F035F9F9
:101960000346002B01D001230EE07B680F2B0AD821
:10197000002279684FF0FF3000F00BF9064A7B68CF
:101980001360002300E0012318460837BD4680BDE0
:1019900008000020100000200C00002080B400AFE0
:1019A000054B1B781A46054B1B681344034A13600A
:1019B00000BFBD4680BC70471000002074020020AC
:1019C00080B400AF024B1B681846BD4680BC704710
:1019D0007402002080B584B000AF7860FFF7F0FF9C
:1019E000B8607B68FB60FB68B3F1FF3F05D00A4B32
:1019F0001B781A46FB681344FB6000BFFFF7E0FF4B
:101A00000246BB68D31AFA689A42F7D800BF00BFF3
:101A10001037BD4680BD00BF1000002080B485B0E7
:101A200000AF78607B6803F00703FB600C4BDB685A
:101A3000BB60BA684FF6FF031340BB60FB681A0235
:101A4000BB68134343F0BF6343F40033BB60044AF5
:101A5000BB68D36000BF1437BD4680BC704700BF71
:101A600000ED00E080B400AF044BDB681B0A03F01C
:101A700007031846BD4680BC704700BF00ED00E07C
:101A800080B483B000AF03463960FB7197F907302B
:101A9000002B0ADB3B68DAB20C4997F907301201D8
:101AA000D2B20B4483F800230AE03B68DAB208495B
:101AB000FB7903F00F03043B1201D2B20B441A76F8
:101AC00000BF0C37BD4680BC704700BF00E100E09E
:101AD00000ED00E080B489B000AFF860B9607A60D2
:101AE000FB6803F00703FB61FB69C3F10703042BE9
:101AF00028BF0423BB61FB690433062B02D9FB69B1
:101B0000033B00E000237B614FF0FF32BB6902FA28
:101B100003F3DA43BB681A407B699A404FF0FF3108
:101B20007B6901FA03F3D9437B680B4013431846E2
:101B30002437BD4680BC704780B582B000AF786066
:101B40007B68013BB3F1807F01D301230FE00A4A98
:101B50007B68013B53600F214FF0FF30FFF790FF90
:101B6000054B00229A60044B07221A600023184696
:101B70000837BD4680BD00BF10E000E080B582B0F0
:101B800000AF78607868FFF749FF00BF0837BD46AF
:101B900080BD80B586B000AF0346B9607A60FB7344
:101BA00000237B61FFF75EFF78617A68B968786926
:101BB000FFF790FF024697F90F3011461846FFF7DE
:101BC0005FFF00BF1837BD4680BD80B582B000AF53
:101BD00078607868FFF7B0FF034618460837BD46BF
:101BE00080BD000080B48BB000AF78603960002306
:101BF0007B6200233B6261E101227B6A02FA03F30C
:101C0000FB613B681B68FA691340BB61BA69FB69F9
:101C10009A4240F050813B685B68974A93425ED09D
:101C2000954A934275D8954A934258D0934A934225
:101C30006FD8934A934252D0914A934269D8914ABD
:101C400093424CD08F4A934263D88F4A934246D0F6
:101C50008D4A93425DD8122B2AD8122B59D801A253
:101C600052F823F0DF1C0008B91C0008CB1C000848
:101C70000D1D0008131D0008131D0008131D00088A
:101C8000131D0008131D0008131D0008131D000874
:101C9000131D0008131D0008131D0008131D000864
:101CA000131D0008131D0008C11C0008D51C0008E6
:101CB000764A934213D02CE03B68DB683B6229E014
:101CC0003B68DB6804333B6224E03B68DB68083335
:101CD0003B621FE03B68DB680C333B621AE03B6809
:101CE0009B68002B02D104233B6213E03B689B6896
:101CF000012B05D108233B627B68FA691A6109E070
:101D000008233B627B68FA695A6103E000233B6267
:101D100000E000BFBB69FF2B01D87B6801E07B6856
:101D200004337B61BB69FF2B02D87B6A9B0002E016
:101D30007B6A083B9B003B617B691A680F213B690A
:101D400001FA03F3DB431A40396A3B6901FA03F3F2
:101D50001A437B691A603B685B6803F08053002B71
:101D600000F0A9804A4B9B69494A43F00103936103
:101D7000474B9B6903F00103BB60BB68454A7B6A24
:101D80009B08023352F82330FB607B6A03F00303A5
:101D90009B000F2202FA03F3DB43FA681340FB6057
:101DA0007B683D4A93420DD07B683C4A934207D002
:101DB0007B683B4A934201D1022304E0032302E003
:101DC000012300E000237A6A02F0030292009340AC
:101DD000FA681343FB602F497B6A9B080233FA6859
:101DE00041F823203B685B6803F48033002B06D066
:101DF0002C4B1A682B49BB6913430B6006E0294B37
:101E00001A68BB69DB43274913400B603B685B687A
:101E100003F40033002B06D0224B5A682149BB69DA
:101E200013434B6006E01F4B5A68BB69DB431D49F7
:101E300013404B603B685B6803F48013002B06D0B3
:101E4000184B9A681749BB6913438B6006E0154B22
:101E50009A68BB69DB43134913408B603B685B683E
:101E600003F40013002B1FD00E4BDA680D49BB6939
:101E70001343CB601FE000BF0000321000003110A0
:101E800000002210000021100000121000001110AC
:101E9000001002400000014000080140000C014019
:101EA00000100140000401400B4BDA68BB69DB43C2
:101EB00009491340CB607B6A01337B623B681A6837
:101EC0007B6A22FA03F3002B7FF496AE00BF00BFBB
:101ED0002C37BD4680BC70470004014080B485B0FB
:101EE00000AF78600B467B807B689A687B881340E4
:101EF000002B02D00123FB7301E00023FB73FB7B6B
:101F000018461437BD4680BC704780B483B000AF1C
:101F100078600B467B8013467B707B78002B03D068
:101F20007A887B681A6103E07B881A047B681A61EF
:101F300000BF0C37BD4680BC7047000080B586B03E
:101F400000AF78607B68002B01D1012372E27B68CF
:101F50001B6803F00103002B00F08780924B5B6845
:101F600003F00C03042B0CD08F4B5B6803F00C03C5
:101F7000082B12D18C4B5B6803F48033B3F5803FA0
:101F80000BD1894B1B6803F40033002B6CD07B68AA
:101F90005B68002B68D101234CE27B685B68B3F57A
:101FA000803F06D1804B1B687F4A43F48033136027
:101FB0002EE07B685B68002B0CD17B4B1B687A4A58
:101FC00023F480331360784B1B68774A23F4802313
:101FD00013601DE07B685B68B3F5A02F0CD1724BDA
:101FE0001B68714A43F4802313606F4B1B686E4A71
:101FF00043F4803313600BE06B4B1B686A4A23F495
:1020000080331360684B1B68674A23F48023136096
:102010007B685B68002B13D0FFF7D2FC386108E0C7
:10202000FFF7CEFC02463B69D31A642B01D9032388
:1020300000E25D4B1B6803F40033002BF0D014E08A
:10204000FFF7BEFC386108E0FFF7BAFC02463B69C7
:10205000D31A642B01D90323ECE1534B1B6803F41F
:102060000033002BF0D100E000BF7B681B6803F059
:102070000203002B63D04C4B5B6803F00C03002B76
:102080000BD0494B5B6803F00C03082B1CD1464B6B
:102090005B6803F48033002B16D1434B1B6803F0BD
:1020A0000203002B05D07B681B69012B01D00123A3
:1020B000C0E13D4B1B6823F0F8027B685B69DB00E5
:1020C000394913430B603AE07B681B69002B20D031
:1020D000364B01221A60FFF773FC386108E0FFF706
:1020E0006FFC02463B69D31A022B01D90323A1E1FD
:1020F0002D4B1B6803F00203002BF0D02A4B1B680A
:1021000023F0F8027B685B69DB00274913430B600F
:1021100015E0264B00221A60FFF752FC386108E0F8
:10212000FFF74EFC02463B69D31A022B01D9032369
:1021300080E11D4B1B6803F00203002BF0D17B688C
:102140001B6803F00803002B3AD07B689B69002BC7
:1021500019D0174B01221A60FFF732FC386108E0F2
:10216000FFF72EFC02463B69D31A022B01D9032349
:1021700060E10D4B5B6A03F00203002BF0D00120FD
:1021800000F0A6FA1CE00A4B00221A60FFF718FCC8
:1021900038610FE0FFF714FC02463B69D31A022BAB
:1021A00008D9032346E100BF00100240000042426C
:1021B00080044242924B5B6A03F00203002BE9D198
:1021C0007B681B6803F00403002B00F0A68000234B
:1021D000FB758B4BDB6903F08053002B0DD1884BD3
:1021E000DB69874A43F08053D361854BDB6903F099
:1021F0008053BB60BB680123FB75824B1B6803F4F3
:102200008073002B18D17F4B1B687E4A43F4807388
:102210001360FFF7D5FB386108E0FFF7D1FB0246FA
:102220003B69D31A642B01D9032303E1754B1B6867
:1022300003F48073002BF0D07B68DB68012B06D1A0
:102240006F4B1B6A6E4A43F0010313622DE07B68FB
:10225000DB68002B0CD16A4B1B6A694A23F001032F
:102260001362674B1B6A664A23F0040313621CE087
:102270007B68DB68052B0CD1614B1B6A604A43F01D
:10228000040313625E4B1B6A5D4A43F00103136251
:102290000BE05B4B1B6A5A4A23F001031362584B55
:1022A0001B6A574A23F0040313627B68DB68002B28
:1022B00015D0FFF785FB38610AE0FFF781FB024686
:1022C0003B69D31A41F28832934201D90323B1E02A
:1022D0004B4B1B6A03F00203002BEED014E0FFF718
:1022E0006FFB38610AE0FFF76BFB02463B69D31ACC
:1022F00041F28832934201D903239BE0404B1B6A91
:1023000003F00203002BEED1FB7D012B05D13C4BEA
:10231000DB693B4A23F08053D3617B68DB69002B88
:1023200000F08780364B5B6803F00C03082B61D00C
:102330007B68DB69022B46D1334B00221A60FFF722
:102340003FFB386108E0FFF73BFB02463B69D31ACD
:10235000022B01D903236DE0294B1B6803F00073A6
:10236000002BF0D17B681B6AB3F5803F08D1244B6A
:102370005B6823F400327B689B68214913434B6000
:102380001F4B5B6823F474127B68196A7B685B6A75
:102390000B431B4913434B601B4B01221A60FFF791
:1023A0000FFB386108E0FFF70BFB02463B69D31ACD
:1023B000022B01D903233DE0114B1B6803F000738E
:1023C000002BF0D035E0104B00221A60FFF7F8FA2E
:1023D000386108E0FFF7F4FA02463B69D31A022B92
:1023E00001D9032326E0064B1B6803F00073002B82
:1023F000F0D11EE07B68DB69012B07D1012319E0D6
:102400000010024000700040600042420B4B5B68CD
:10241000FB60FB6803F480327B681B6A9A4206D13A
:10242000FB6803F470127B685B6A9A4201D0012357
:1024300000E0002318461837BD4680BD001002405A
:1024400080B584B000AF786039607B68002B01D123
:102450000123D0E06A4B1B6803F007033A689A42F5
:1024600010D9674B1B6823F0070265493B6813438B
:102470000B60634B1B6803F007033A689A4201D074
:102480000123B8E07B681B6803F00203002B20D017
:102490007B681B6803F00403002B05D0594B5B6875
:1024A000584A43F4E06353607B681B6803F00803F9
:1024B000002B05D0534B5B68524A43F46053536082
:1024C000504B5B6823F0F0027B689B684D491343D7
:1024D0004B607B681B6803F00103002B40D07B68D6
:1024E0005B68012B07D1474B1B6803F40033002BBB
:1024F00015D101237FE07B685B68022B07D1414B3C
:102500001B6803F00073002B09D1012373E03D4BDE
:102510001B6803F00203002B01D101236BE0394B50
:102520005B6823F003027B685B68364913434B60AA
:10253000FFF746FAF8600AE0FFF742FA0246FB6846
:10254000D31A41F28832934201D9032353E02D4B31
:102550005B6803F00C027B685B689B009A42EBD1DE
:10256000274B1B6803F007033A689A4210D2244BAA
:102570001B6823F0070222493B6813430B60204B82
:102580001B6803F007033A689A4201D0012332E046
:102590007B681B6803F00403002B08D0194B5B68B1
:1025A00023F4E0627B68DB68164913434B607B6869
:1025B0001B6803F00803002B09D0124B5B6823F45F
:1025C00060527B681B69DB000E4913434B6000F0CF
:1025D00021F802460B4B5B681B0903F00F030A4905
:1025E000CB5C22FA03F3094A1360094B1B681846B7
:1025F000FFF7A4F9002318461037BD4680BD00BF81
:102600000020024000100240045F00080800002083
:102610000C00002090B48AB000AF294B3C1D0FCBBA
:1026200084E80F0040F201233B800023FB6100237C
:10263000BB6100237B6200237B6100233B62214B53
:102640005B68FB61FB6903F00C03042B02D0082BD1
:1026500003D02BE01C4B3B622BE0FB699B0C03F08F
:102660000F0328333B4413F8243C7B61FB6903F4DC
:102670008033002B12D0134B5B685B0C03F001031B
:1026800028333B4413F8283CBB617B690E4A03FBAB
:1026900002F2BB69B2FBF3F37B6204E07B690B4A95
:1026A00002FB03F37B627B6A3B6202E0064B3B6208
:1026B00000BF3B6A18462837BD4690BC704700BF34
:1026C000F05E00080010024000127A0000093D0090
:1026D00080B485B000AF78600A4B1B680A4AA2FB41
:1026E00003235B0A7A6802FB03F3FB6000BFFB680D
:1026F0005A1EFA60002BF9D100BF00BF1437BD4647
:1027000080BC704708000020D34D621080B582B0B5
:1027100000AF78607B68002B01D101231DE07B684E
:1027200093F83D30DBB2002B06D17B68002283F8A2
:102730003C207868FEF758FF7B68022283F83D2032
:102740007B681A687B6804331946104600F046FA25
:102750007B68012283F83D20002318460837BD46D8
:1027600080BD80B485B000AF78607B68022283F8BA
:102770003D207B681B689B6803F00703FB60FB68D8
:10278000062B07D07B681B681A687B681B6842F0C1
:1027900001021A607B68012283F83D20002318465D
:1027A0001437BD4680BC704780B483B000AF7860FA
:1027B0007B68022283F83D207B681B681A6A41F21D
:1027C00011131340002B0FD17B681B681A6A40F26B
:1027D00044431340002B07D17B681B681A687B6851
:1027E0001B6822F001021A607B68012283F83D20F9
:1027F000002318460C37BD4680BC704780B582B0B8
:1028000000AF78607B68002B01D101231DE07B685D
:1028100093F83D30DBB2002B06D17B68002283F8B1
:102820003C20786800F015F87B68022283F83D2090
:102830007B681A687B6804331946104600F0CEF9AD
:102840007B68012283F83D20002318460837BD46E7
:1028500080BD80B483B000AF786000BF0C37BD4648
:1028600080BC704780B584B000AF786039607B6809
:102870001B6801223968184600F026FC7B681B683B
:10288000104A934207D17B681B685A6C7B681B68AF
:1028900042F400425A647B681B689B6803F007039C
:1028A000FB60FB68062B07D07B681B681A687B6897
:1028B0001B6842F001021A60002318461037BD461B
:1028C00080BD00BF002C014080B584B000AFF8602F
:1028D000B9607A60FB6893F83C30012B01D1022388
:1028E000B4E0FB68012283F83C20FB68022283F8F5
:1028F0003D207B680C2B00F29F8001A252F823F050
:1029000035290008392A0008392A0008392A000820
:1029100075290008392A0008392A0008392A0008D0
:10292000B7290008392A0008392A0008392A00087E
:10293000F7290008FB681B68B968184600F0A6F97B
:10294000FB681B689A69FB681B6842F008029A6181
:10295000FB681B689A69FB681B6822F004029A6195
:10296000FB681B689969BB681A69FB681B680A43A6
:102970009A6162E0FB681B68B968184600F0ECF9E0
:10298000FB681B689A69FB681B6842F400629A61E5
:10299000FB681B689A69FB681B6822F480629A6175
:1029A000FB681B689969BB681B691A02FB681B6896
:1029B0000A439A6141E0FB681B68B968184600F059
:1029C00035FAFB681B68DA69FB681B6842F008028D
:1029D000DA61FB681B68DA69FB681B6822F0040295
:1029E000DA61FB681B68D969BB681A69FB681B68F8
:1029F0000A43DA6121E0FB681B68B968184600F0F9
:102A00007FFAFB681B68DA69FB681B6842F40062A6
:102A1000DA61FB681B68DA69FB681B6822F4806274
:102A2000DA61FB681B68D969BB681B691A02FB681D
:102A30001B680A43DA6100E000BFFB68012283F8EB
:102A40003D20FB68002283F83C2000231846103705
:102A5000BD4680BD80B584B000AF786039607B68CA
:102A600093F83C30012B01D10223B3E07B680122B3
:102A700083F83C207B68022283F83D207B681B683A
:102A80009B68FB60FB6823F07703FB60FB6823F423
:102A90007F43FB607B681B68FA689A603B681B6831
:102AA000B3F5005F3ED0B3F5005F00F28780B3F569
:102AB000805F00F08580B3F5805F7FD8702B1AD0DF
:102AC000702B7BD8602B50D0602B77D8502B3CD00C
:102AD000502B73D8402B58D0402B6FD8302B64D05C
:102AE000302B6BD8202B60D0202B67D8002B5CD0EC
:102AF000102B5AD062E07B6818683B6899683B6885
:102B00005A683B68DB6800F0C0FA7B681B689B680A
:102B1000FB60FB6843F07703FB607B681B68FA6827
:102B20009A604EE07B6818683B6899683B685A6811
:102B30003B68DB6800F0A9FA7B681B689A687B68D1
:102B40001B6842F480429A603BE07B6818683B68EF
:102B500059683B68DB681A4600F020FA7B681B68FE
:102B60005021184600F077FA2BE07B6818683B6824
:102B700059683B68DB681A4600F03EFA7B681B68C0
:102B80006021184600F067FA1BE07B6818683B6814
:102B900059683B68DB681A4600F000FA7B681B68DE
:102BA0004021184600F057FA0BE07B681A683B6832
:102BB0001B681946104600F04EFA02E000BF00E024
:102BC00000BF7B68012283F83D207B68002283F8E8
:102BD0003C20002318461037BD4680BD80B485B028
:102BE00000AF786039607B681B68FB607B68254AB2
:102BF000934207D07B68B3F1804F03D07B68224AB1
:102C0000934208D1FB6823F07003FB603B685B686C
:102C1000FA681343FB607B681A4A934207D07B68CB
:102C2000B3F1804F03D07B68174A934208D1FB6809
:102C300023F44073FB603B68DB68FA681343FB6076
:102C4000FB6823F080023B685B691343FB607B6891
:102C5000FA681A603B689A687B68DA623B681A68AF
:102C60007B689A627B68074A934203D13B681A6982
:102C70007B681A637B6801225A6100BF1437BD4626
:102C800080BC7047002C01400004004080B487B035
:102C900000AF786039607B681B6A23F001027B68B3
:102CA0001A627B681B6A7B617B685B683B617B683F
:102CB0009B69FB60FB6823F07003FB60FB6823F0FB
:102CC0000303FB603B681B68FA681343FB607B6986
:102CD00023F002037B613B689B687A6913437B6145
:102CE0007B681C4A93420CD17B6923F008037B610B
:102CF0003B68DB687A6913437B617B6923F00403DB
:102D00007B617B68134A934211D13B6923F4807342
:102D10003B613B6923F400733B613B685B693A6943
:102D200013433B613B689B693A6913433B617B6892
:102D30003A695A607B68FA689A613B685A687B68AE
:102D40005A637B687A691A6200BF1C37BD4680BC33
:102D5000704700BF002C014080B487B000AF78609E
:102D600039607B681B6A23F010027B681A627B68FB
:102D70001B6A7B617B685B683B617B689B69FB606E
:102D8000FB6823F4E043FB60FB6823F44073FB60C3
:102D90003B681B681B02FA681343FB607B6923F0E6
:102DA00020037B613B689B681B017A6913437B614D
:102DB0007B681D4A93420DD17B6923F080037B61C0
:102DC0003B68DB681B017A6913437B617B6923F0F5
:102DD00040037B617B68144A934213D13B6923F41F
:102DE00080633B613B6923F400633B613B685B6943
:102DF0009B003A6913433B613B689B699B003A69BE
:102E000013433B617B683A695A607B68FA689A6150
:102E10003B685A687B689A637B687A691A6200BF6C
:102E20001C37BD4680BC7047002C014080B487B081
:102E300000AF786039607B681B6A23F480727B681E
:102E40001A627B681B6A7B617B685B683B617B689D
:102E5000DB69FB60FB6823F07003FB60FB6823F019
:102E60000303FB603B681B68FA681343FB607B69E4
:102E700023F400737B613B689B681B027A691343F0
:102E80007B617B681D4A93420DD17B6923F400630B
:102E90007B613B68DB681B027A6913437B617B695A
:102EA00023F480637B617B68144A934213D13B69AE
:102EB00023F480533B613B6923F400533B613B683F
:102EC0005B691B013A6913433B613B689B691B01CA
:102ED0003A6913433B617B683A695A607B68FA68D8
:102EE000DA613B685A687B68DA637B687A691A62E0
:102EF00000BF1C37BD4680BC704700BF002C01409E
:102F000080B487B000AF786039607B681B6A23F4B7
:102F100080527B681A627B681B6A3B617B685B68D6
:102F20007B617B68DB69FB60FB6823F4E043FB604B
:102F3000FB6823F44073FB603B681B681B02FA6864
:102F40001343FB603B6923F400533B613B689B6880
:102F50001B033A6913433B617B680F4A934209D1D3
:102F60007B6923F480437B613B685B699B017A69E1
:102F700013437B617B687A695A607B68FA68DA611F
:102F80003B685A687B681A647B683A691A6200BFBA
:102F90001C37BD4680BC7047002C014080B487B010
:102FA00000AFF860B9607A60FB681B6A7B61FB6800
:102FB0001B6A23F00102FB681A62FB689B693B6194
:102FC0003B6923F0F0033B617B681B013A691343C3
:102FD0003B617B6923F00A037B617A69BB68134319
:102FE0007B61FB683A699A61FB687A691A6200BF83
:102FF0001C37BD4680BC704780B487B000AFF86016
:10300000B9607A60FB681B6A23F01002FB681A62E1
:10301000FB689B697B61FB681B6A3B617B6923F4EE
:1030200070437B617B681B037A6913437B613B6957
:1030300023F0A0033B61BB681B013A6913433B616A
:10304000FB687A699A61FB683A691A6200BF1C37AB
:10305000BD4680BC704780B485B000AF78603960F1
:103060007B689B68FB60FB6823F07003FB603A6839
:10307000FB68134343F00703FB607B68FA689A60C0
:1030800000BF1437BD4680BC704780B487B000AF26
:10309000F860B9607A603B60FB689B687B617B6924
:1030A00023F47F437B613B681A027B681A43BB6849
:1030B00013437A6913437B61FB687A699A6000BFA6
:1030C0001C37BD4680BC704780B487B000AFF86045
:1030D000B9607A60BB6803F01F03012202FA03F3B0
:1030E0007B61FB681A6A7B69DB431A40FB681A62E2
:1030F000FB681A6ABB6803F01F03796801FA03F3DF
:103100001A43FB681A6200BF1C37BD4680BC70477B
:1031100080B485B000AF786039607B6893F83C304C
:10312000012B01D1022332E07B68012283F83C208D
:103130007B68022283F83D207B681B685B68FB602C
:103140007B681B689B68BB60FB6823F07003FB60B7
:103150003B681B68FA681343FB60BB6823F080037D
:10316000BB603B685B68BA681343BB607B681B68E5
:10317000FA685A607B681B68BA689A607B680122AB
:1031800083F83D207B68002283F83C20002318460A
:103190001437BD4680BC7047002B2DE9F0471D4613
:1031A000BBBF03F100431D4600232D2388B0144606
:1031B000B8BF1446129A109E1370149BDDF84CA0F1
:1031C00023F02008B8F1460F05D0B8F1450F00D123
:1031D0000136022300E0032307AA049206AACDE9E0
:1031E00002A2CDE9003622462B4600F06DFEB8F172
:1031F000470F074619D1119BDB070ED500EB0609D7
:103200000022002320462946FDF7CEFB08B1CDF869
:103210001C903022079B4B451ED33846079B159ABE
:10322000DB1B136008B0BDE8F087B8F1460F00EB78
:103230000609E5D10378302B0AD10022002320466D
:103240002946FDF7B1FB18B9C6F10106CAF80060BE
:10325000DAF800309944D3E7591C07911A70D9E77E
:10326000F7B50029B6BF2D232B2349420929027047
:10327000437029DD0DF107031D460A27B1FBF7F660
:103280001A4607FB1614303402F8014C0C46632C26
:10329000314603F1FF33F1DC3031941E03F8011C99
:1032A0002346411CAB420AD30DF109039B1AAC42E1
:1032B00088BF002302330344181A03B0F0BD13F88B
:1032C000016B01F8016FEDE7302330318370C1707D
:1032D000031DF1E72DE9F04F91B00C46DDF8688051
:1032E00016461F46054600F0E1FC036818460893A1
:1032F000FCF72EFF00230E93D8F800300990073317
:1033000023F0070303F1080294F818A0D4F800B0E2
:10331000C8F80020D3E9008929F000430B93CDF8C9
:1033200028804FF0FF32DDE90A01C4E912899C4B85
:10333000FDF76CFB70BBDDE90A014FF0FF32984BE3
:10334000FDF746FB30BB0022002340464946FDF70F
:1033500035FB10B12D2384F84330924A924BBAF1D9
:10336000470F8CBF9046984603234FF00009236116
:103370002BF00403236033462146284600970FAA0A
:1033800000F0D4F9013040F090804FF0FF3011B0E0
:10339000BDE8F08F42464B4640464946FDF736FBB6
:1033A00048B14B46002BB8BF2D23804AB8BF84F8E4
:1033B00043307F4BD3E763680AF0DF015A1C3FD1EB
:1033C0000623636000224BF48063236006920EAAFA
:1033D000CDE904A20DAA03920DF13302CDE9013229
:1033E00063684246009328464B460A91FFF7D4FE95
:1033F0000A99804647290D9928D1C81C02DB6368C9
:10340000994240DDAAF1020A5FFA8AFA524601396E
:1034100004F150000D91FFF723FF0E9A8146131817
:10342000012A236102DC2268D20701D5013323611E
:103430009DF83330002B9ED02D2384F843309AE73B
:103440004729BFD1002BBDD10123BAE7BAF1650FDF
:10345000DCD9BAF1660F18D1002963680BDD216150
:1034600013B92268D00702D501330B4423614FF012
:103470000009A165DCE713B92268D20701D5023340
:10348000F4E70123F2E74FF0670A0E9B994205DB50
:1034900023682161D807EAD54B1CE7E70029CCBF98
:1034A0000122C1F102021344E0E723685A0507D460
:1034B0002369424631462846B84701302BD164E79C
:1034C000BAF1650F40F2DC80D4E91201002200233A
:1034D000FDF76AFA002833D0012331462846354AE1
:1034E000B84701303FF451AFDDE90D38434502DB09
:1034F0002368D8070FD5DDE9082331462846B847A9
:1035000001303FF442AF4FF0000908F1FF3804F1F9
:103510001A0AC84509DC23689B0700F10281E068AC
:103520000F9B9842B8BF184631E7012352463146F7
:103530002846B84701303FF428AF09F10109E8E710
:103540000D9B002B38DC012331462846194AB84729
:1035500001303FF41AAFDDE90D3959EA030302D116
:103560002368D907D7D5DDE9082331462846B8476F
:1035700001303FF40AAF4FF0000A04F11A0B0D9B23
:103580005B42534501DC4B4693E701235A463146E3
:103590002846B84701303FF4F8AE0AF1010AEEE7D9
:1035A000FFFFEF7F185F0008145F0008205F00082E
:1035B0001C5F0008245F0008A36DDDF838A05345A8
:1035C000A8BF5346002B994636DC4FF0000B29EA82
:1035D000E97904F11A02A36D0A93A3EB09035B4591
:1035E00031DC0D9B9A453ADC2368DA0737D40D9B12
:1035F000AAEB03090A9BAAEB03039945A8BF9946C6
:10360000B9F1000F33DC4FF0000829EAE97904F141
:103610001A0B0D9BAAEB0303A3EB090343457FF7AA
:103620007AAF01235A4631462846B84701303FF465
:10363000ACAE08F10108ECE7424631462846B847EF
:103640000130C2D1A1E60123314628460A92B8478B
:1036500001303FF49AAE0A9A0BF1010BBBE73146F9
:10366000DDE908232846B8470130C0D18DE60A9A23
:103670004B46314628464244B8470130C3D184E620
:10368000DDF838A0BAF1010F01DCDB0736D50123E4
:10369000424631462846B84701303FF476AEDDE970
:1036A000082331462846B84701303FF46EAED4E9CE
:1036B0001201002200230AF1FF3AFDF775F9C0B9A3
:1036C000534608F1010231462846B84701300CD173
:1036D0005BE601235A4631462846B84701303FF49D
:1036E00054AE08F10108D045F3DB4B4604F150021B
:1036F000E0E64FF0000804F11A0BF4E7012342461C
:10370000E1E701234A4631462846B84701303FF4F5
:103710003CAE08F10108E3680F995B1A4345F0DC01
:10372000FDE64FF0000804F11909F4E72DE9F04730
:10373000164698468A680B6907469342B8BF1346F7
:10374000336091F843200C46DDF820900AB1013334
:1037500033602368990642BF3368023333602568BB
:1037600015F0060506D104F1190AE36832689B1AC0
:10377000AB422BDC94F843302268003B18BF012396
:10378000920630D44146384604F14302C84701301E
:1037900023D02368226903F00603042B14BF0025FD
:1037A00033684FF0000608BFE56804F11A0408BF4B
:1037B000ED1A54F8123C08BF25EAE5759342C4BFE0
:1037C0009B1AED18B5421AD1002008E00123524699
:1037D00041463846C847013003D14FF0FF30BDE8BD
:1037E000F0870135C1E73020E11881F843005A1C09
:1037F00094F845102244023382F84310C2E70123B3
:10380000224641463846C8470130E6D00136D9E75E
:103810002DE9FF470F7E9146782F80460C469A4649
:103820000C9E01F1430207D8622F0AD8002F00F046
:10383000D180582F00F0B88004F1420684F842701D
:103840003AE0A7F16303152BF6D801A151F823F054
:10385000A9380008BD380008393800083938000890
:103860003938000839380008BD38000839380008F0
:10387000393800083938000839380008BB390008E1
:10388000E738000875390008393800083938000869
:10389000DD39000839380008E738000839380008F1
:1038A000393800087D39000833681A1D1B683260FA
:1038B00004F1420684F8423001239CE0336820681A
:1038C000191D3160060601D51D6803E04506FBD5CC
:1038D000B3F90050002D03DA2D236D4284F84330F4
:1038E0000A23584811E021683368080653F8045B3E
:1038F00002D4490648BFADB26F2F336014BF0A230C
:1039000008235048002184F843106668002EA66002
:1039100005DB21682E4321F0040121604BD01646BF
:10392000B5FBF3F103FB1157C75D06F8017D2F4688
:10393000BB420D46F4D9082B0BD12368DF0708D50D
:10394000236961689942DEBF302306F8013C06F125
:10395000FF36921B22614B4621464046CDF800A01F
:1039600003AAFFF7E3FE01304AD14FF0FF3004B065
:10397000BDE8F087236843F02003236078273248AE
:1039800084F84570236831681F0651F8045B02D43F
:103990005F0648BFADB23160D90744BF43F0200392
:1039A00023601DB11023ADE72648E9E7236823F023
:1039B00020032360F6E71646BDE733682568181D27
:1039C000616930602E061B6801D5196002E0680647
:1039D000FBD51980002316462361BCE7336800211C
:1039E0001A1D32601E686268304600F0D6F908B1D0
:1039F000801B606063682361002384F84330AAE77A
:103A00003246494640462369D0470130ADD023684D
:103A10009B0713D4E068039B9842B8BF1846A6E7FB
:103A20000123324649464046D04701309DD00135FA
:103A3000E36803995B1AAB42F2DCEBE7002504F183
:103A40001906F5E7265F0008375F0008002310B568
:103A50000446C0E90033C0E90433836081814366D2
:103A6000C2818361194608225C3000F016F90D4BC3
:103A7000246263620C4BA3620C4BE3620C4B236326
:103A80000C4B9C4206D003F16802944202D0D03322
:103A90009C4205D104F15800BDE8104000F07AB90D
:103AA00010BD00BF153C0008373C00086F3C000803
:103AB000933C000878020020024A0349034800F0C2
:103AC00069B800BF1400002011570008240000202E
:103AD00041680C4B10B59942044601D001F018FE24
:103AE000A168094B994202D0204601F011FEE1681D
:103AF000064B994204D02046BDE8104001F008BEB4
:103B000010BD00BF78020020E00200204803002022
:103B100010B50B4B0B4C0C4A20461A6004210022B6
:103B2000FFF794FF04F1680001220921FFF78EFFDF
:103B300004F1D0000222BDE810401221FFF786BF39
:103B4000B003002078020020B93A0008014800F0D4
:103B500022B900BFB9030020014800F01DB900BF21
:103B6000B903002010B50446FFF7F0FF236A1BB12C
:103B7000BDE81040FFF7F0BF044B2362044B1B6805
:103B8000002BF5D1FFF7C4FFF2E700BFD13A0008E0
:103B9000B00300202DE9F843074688461446002666
:103BA000D4E90195B9F1010905D52468002CF7D1B4
:103BB0003046BDE8F883AB89012B07D9B5F90E3043
:103BC000013303D029463846C04706436835E9E744
:103BD0000EB46FF0004110B500249DB01FAB0290F1
:103BE0000690079104910948094953F8042B05915F
:103BF000006802A901931B9401F00EFC029B1C704B
:103C00001DB0BDE8104003B0704700BF2000002089
:103C10000802FFFF10B50C46B1F90E1000F06CF869
:103C20000028ABBF636DA3891B1823F48053ACBF7E
:103C30006365A38110BD2DE9F0411F468B890546C0
:103C4000DB050C46164605D502230022B1F90E10FD
:103C500000F040F8A389324623F48053A38128461C
:103C60003B46B4F90E10BDE8F04100F057B810B56E
:103C70000C46B1F90E1000F02DF8431CA38915BFB6
:103C8000606523F4805343F48053A38118BFA3815C
:103C900010BDB1F90E1000F00DB803460244934276
:103CA00000D1704703F8011BF9E700000048704796
:103CB0006001002038B50023054D044608462B60FE
:103CC000FDF765FD431C02D12B6803B1236038BDAD
:103CD000B403002038B50446084611460022054DBD
:103CE0002A601A46FDF777FD431C02D12B6803B109
:103CF000236038BDB403002038B504460846114699
:103D00000022054D2A601A46FDF708FD431C02D12A
:103D10002B6803B1236038BDB403002038B50446D6
:103D2000084611460022054D2A601A46FDF713FD8C
:103D3000431C02D12B6803B1236038BDB4030020BB
:103D4000014B1868704700BF2000002070B50026A6
:103D50000C4D0D4C641BA410A64209D102F074F85E
:103D600000260A4D0A4C641BA410A64205D170BD62
:103D700055F8043B98470136EEE755F8043B984761
:103D80000136F2E794620008946200089462000829
:103D900098620008704770477047034610B5C9B273
:103DA00002449342184601D1002003E00478013315
:103DB0008C42F6D110BD2DE9F74F03690C69074617
:103DC000A3427EDB013CA30000F1140501F11408BD
:103DD000009305EB8403019358F8243055F8242010
:103DE00001339A42B2FBF3F608EB84092ED34FF06D
:103DF000000AC446AE46D3465CF8043B98B206FBC4
:103E000000A01B0C020C06FB0323DEF8002080B28E
:103E100092B2121A5A44DEF800004FEA134A9BB2DB
:103E2000C3EB224303EB104392B242EA0342E14563
:103E30004FEA234B4EF8042BDED2009BEB582BB9F4
:103E4000019B043B9D421A462FD33C61384601F04A
:103E50007FF9002825DB2946002058F8042BD1F8EB
:103E600000C01FFA82FE1FFA8CF3A3EB0E0303447B
:103E7000120CC2EB234202EB1C429BB243EA024308
:103E8000C1454FEA224041F8043BE6D255F82420D0
:103E900005EB840322B9043B9D421A460BD33C61D7
:103EA0000136304603B0BDE8F08F1268043B002AAB
:103EB000CBD1013CC6E71268043B002AEFD1013C9C
:103EC000EAE70020EEE700002DE9F04F14461D461A
:103ED000C76997B08146CDE90645239E7FB910207A
:103EE00000F00EFE0246C9F81C0020B9EF21AC4BD1
:103EF000AC4801F06DFCC0E901770760C760D9F8F4
:103F00001C30196859B15A68012393404A608B608C
:103F1000484600F0EBFE0022D9F81C301A602B1E38
:103F2000AFBF0023012223F000430793A8BF3360F3
:103F3000DDF81C809C4BB8BF326033EA080312D115
:103F400042F20F73229A1360C8F31303234300F065
:103F50005E85249BDFF854A2002B00F060850AF1F7
:103F6000030300F05ABDDDE90623CDE90C23DDE9AA
:103F70000C0100220023FCF717FD074658B101236E
:103F8000229A1360249B13B1894B249A1360DFF8A3
:103F900024A200F044BD14AB019315AB0093484636
:103FA000DDE90C2301F084F9C8F30A560390002ED2
:103FB00078D0DDE90C010D9BA6F2FF36C3F31303A5
:103FC00043F07F5343F440131297194600227A4B73
:103FD000FCF7CAF86CA3D3E90023FCF77DFA6CA3C5
:103FE000D3E90023FCF7C2F8044630460D46FCF73F
:103FF00009FA69A3D3E90023FCF76EFA02460B46DF
:1040000020462946FCF7B2F804460D46FCF714FD9D
:1040100000220746002320462946FCF7CFFC40B18A
:104020003846FCF7EFF922462B46FCF7BDFC00B9F9
:10403000013F162F54D8DDE90C01604B03EBC70399
:10404000D3E90023FCF7BAFC00284BD00023013F42
:104050000F93149B9B1B5A1E49BFC3F101030023FE
:1040600004930023099254BF04930993002F3BDB70
:10407000099B0E973B44099300230A93209B092B2D
:1040800065D8052BC4BF043B2093209BC8BF0024E8
:10409000A3F10203D8BF0124032B64D8DFE803F0A7
:1040A0005355382CDDE914631E4406F23243202BAD
:1040B000C1BFC3F1400308FA03F806F2124324FA21
:1040C00003F3D6BFC3F1200348EA030004FA03F068
:1040D000FCF788F90122A1F1F873013E129274E70E
:1040E0000123B5E70F90B4E7049BDB1B04937B42ED
:1040F0000A9300230E93C1E701230B93219B07EB47
:10410000030B0BF10103012B0893B8BF012306E059
:1041100001230B93219B002B28DD9B460893002154
:104120000422D9F81C0002F114059D4226D94160F1
:10413000484600F09BFD8246002843D1024640F2EB
:10414000AF111F4BD4E60023E3E70023D5E701249A
:1041500000230B9420934FF0FF3B00221223CDF855
:1041600020B02192DBE701230B93F4E74FF0010B22
:104170005B46CDF820B0CDF884B0D0E701315200D5
:10418000D1E700BFAFF3008061436F63A787D23FE1
:10419000B3C8608B288AC63FFB799F501344D33F36
:1041A000555F00086C5F00080000F07F515F000859
:1041B000255F0008245F00080000F83FC060000889
:1041C000C45F0008D9F81C301860089B0E2B00F261
:1041D000A180002C00F09E80002F33DD9C4B07F067
:1041E0000F0203EBC203F805D3E90034CDE9103424
:1041F0004FEA271416D5DDE90C01964B0326D3E9C7
:104200000823FCF793FACDE9060104F00F04914D61
:1042100054B9DDE91023DDE90601FCF787FACDE9A1
:10422000060128E00226F2E7E10708D5DDE91001E2
:10423000D5E90023FCF750F9CDE9100101366410EF
:104240000835E5E700F0AF80DDE90C017C42804BEA
:1042500004F00F0203EBC203D3E90023FCF73CF99F
:1042600002260023CDE906017A4D2411002C40F0EE
:104270008F80002BD3D1DDE906450F9B002B00F08A
:104280009480002220462946734BFCF797FB0028B8
:1042900000F08B80089B002B00F08780BBF1000FA3
:1042A00034DD2046002229466C4BFCF715F95C46AC
:1042B000CDE9060107F1FF3801363046FCF7A2F8D8
:1042C000DDE90623FCF708F90022654BFBF74EFFFA
:1042D0000546A1F15076002C6AD1DDE906010022E5
:1042E000604BFBF741FF02460B46CDE906232A4609
:1042F0003346FCF781FB002840F09882DDE9060197
:104300002A4606F10043FCF759FB38BBDDE90C34C3
:10431000CDE90634159B002BC0F257810E2F00F318
:1043200054814B4B03EBC703D3E90034CDE904348C
:10433000219B002B80F2E580089B002B00F3E1809D
:104340000CD1DDE904010022464BFCF7C5F8DDE99C
:104350000623FCF747FB002800F066820024254670
:10436000219B56466FEA030800272146484600F085
:10437000BDFC002D00F0BD802FB1AF4203D0394607
:10438000484600F0B3FC2946484600F0AFFCB0E0D8
:10439000E20705D5D5E90023FCF79EF80123013695
:1043A0006410083562E7022665E7B846089C84E792
:1043B000274B0B9903EBC40353E902235444002910
:1043C00054D000202849FCF7B1F933462A46FBF7C0
:1043D000CBFE5646CDE91001DDE90601FCF72CFBCA
:1043E0000546FCF70FF802460B46DDE90601FBF730
:1043F000BBFE02460B463035CDE90623DDE910232E
:1044000006F8015BFCF7DAFA002872D1DDE9062331
:1044100000201149FBF7A8FEDDE91023FCF7CEFAD6
:10442000002840F0B480A6423FF470AFDDE91001EF
:1044300000220A4BFCF750F80022CDE91001DDE91B
:104440000601064BFCF748F8CDE90601C4E700BFBA
:10445000C0600008986000080000F03F00002440A1
:1044600000001C40000014400000E03F3146284698
:10447000FCF732F85646CDE910011394DDE9060148
:10448000FCF7DAFA0546FBF7BDFF02460B46DDE90D
:104490000601FBF769FE02460B46303506F8015B64
:1044A000A642CDE906234FF0000224D1DDE9100138
:1044B000AE4BFBF75BFE02460B46DDE90601FCF75F
:1044C0009BFA002863D1DDE910230020A749FBF700
:1044D0004BFE02460B46DDE90601FCF76FFA0028A9
:1044E0003FF414AF139E731E139316F8013C302B48
:1044F000F8D047463BE09E4BFBF7EEFFCDE90601C7
:10450000BCE75646DDE90645DDE904232046294699
:10451000FCF70CF9FCF790FA8046FBF773FFDDE936
:104520000423FBF7D9FF02460B4620462946FBF73A
:104530001BFE08F13004089D06F8014BA6EB0A04A7
:10454000A54202460B4633D1FBF710FEDDE90423FA
:1045500004460D46FCF750FAC0B9DDE904232046B5
:104560002946FCF721FA10B118F0010F0ED1484688
:10457000039900F0BBFB00233370229B01371F60BF
:10458000249B002B00F04B821E6048E2B846334665
:104590001E4613F8012D392A06D19A45F8D130224A
:1045A00008F101088AF800201A7801321A70A0E791
:1045B00000226F4BFBF790FF0022002304460D46BC
:1045C000FCF7F2F900289FD0D1E70B9A002A00F0FF
:1045D000EA80209A012A00F3CD80129A002A00F086
:1045E000C18003F233430A9C049E049A01211A44B9
:1045F0000492099A48461A44099200F02BFC054699
:1046000066B1099B002B09DDB342A8BF3346049A6B
:10461000F61AD21A0492099AD31A09930A9B0BB379
:104620000B9B002B00F0C680002C00F0C0802946B8
:104630002246484600F0C6FC039A01460546484615
:1046400000F01EFC03998046484600F04FFB0A9B91
:104650001B1B0A9300F0B18041460A9A484600F0BD
:10466000B1FC03900121484600F0F4FB0E9B044688
:10467000002B00F0D8811A460146484600F0A2FC03
:10468000209B0446012B00F39F80069B002B40F0EB
:104690009780079BC3F31303002B40F09380079B85
:1046A00023F000431B0D1B0533B1049B013304931E
:1046B000099B0133099301230A930E9B002B00F001
:1046C000B881236904EB8303186900F077FBC0F11C
:1046D0002000099B184410F01F0000F08280C0F1F8
:1046E0002003042B73DD049BC0F11C0003440493DE
:1046F000099B064403440993049B002B05DD1A46DD
:104700004846039900F0B8FC0390099B002B05DD97
:1047100021461A46484600F0AFFC04460F9B002B8A
:1047200061D02146039800F013FD00285BDA0023D6
:104730000A224846039900F0FBFA0B9B07F1FF3869
:104740000390002B00F07781294600230A22484677
:1047500000F0EEFABBF1000F05466FDC209B022B48
:1047600049DC6BE0149BC3F136033CE70000E03FFB
:1047700000002440089B5C1E0A9BA34209DB1C1B13
:10478000089B002BBFF630AF049B089A9E1A0023AB
:104790002BE70A9B0E9AE31A1A440A94049E0024FB
:1047A000089B0E9221E70A9C049E0B9D28E7DDF8EA
:1047B0000C8051E70A9A039950E7CDF80C8051E735
:1047C000002379E7069B77E700230A9379E793D0E4
:1047D000049A1C331A440492099A1E441A440992FA
:1047E0008AE70346F4E7089BB846002B20DC9B468B
:1047F000209B022B1EDDBBF1000F7FF4B1AD2146E3
:104800005B460522484600F093FA014604460398A9
:1048100000F09EFC00287FF7A3AD5646312308F137
:10482000010806F8013B9FE5B846089C2546F4E7D9
:10483000DDF820B00B9B002B00F00181002E05DD80
:1048400029463246484600F017FC05460A9B002BD5
:104850005CD04846696800F009FA064628B9024665
:1048600040F2EF21804BFFF743BB2A6905F10C01B1
:10487000023292000C3000F09DFF01223146484682
:1048800000F0FAFB2F4605460AF1010304930AEBF8
:104890000B030A93069B03F001030993049B214633
:1048A000039803F1FF3BFFF786FA0346394630339E
:1048B000069003980B9300F04BFC2A460890214683
:1048C000484600F061FCC26806460B9B02BB0146ED
:1048D000039800F03DFC02460B9B31464846CDE96B
:1048E0000B3200F003FA209B0C9A049E42EA03016B
:1048F000099B19430B9B0DD1392B27D0089A002A0D
:1049000001DD069B31338BF800302EE52846B9E7F0
:104910000122E2E70899002904DB20980143099865
:10492000014320D1002AEEDD012203994846049379
:1049300000F0A2FB2146039000F00AFC0028049B33
:1049400002DCE0D1DA07DED5392BDAD139238BF856
:10495000003033461E4616F8012C013B392A4ED052
:1049600001321A7001E5002A03DD392BEED0013344
:10497000C9E7049A0A9902F8013C8A4228D0002328
:104980000A220399484600F0D3F9AF4203904FF052
:1049900000034FF00A023946484607D100F0C8F933
:1049A00007460546049B0133049377E700F0C0F9FE
:1049B0002946074600230A22484600F0B9F9054671
:1049C000F0E7BBF1000FCCBF5E460126002756443E
:1049D000012203994846049300F04EFB21460390C0
:1049E00000F0B6FB0028B4DC02D1049BDB07B0D496
:1049F00033461E4613F8012D302AFAD0B5E49A4505
:104A0000A8D1312308F101088AF80030ADE4249BD5
:104A1000DFF858A01BB10AF10803249A136050462E
:104A200017B0BDE8F08F209B012B7FF72EAE0E9BB9
:104A30000A9301204DE6BBF1000F7FF7D9AE564631
:104A400021460398FFF7B7F900F1300306F8013B60
:104A5000A6EB0A029345B4DD00230A2248460399D7
:104A600000F066F90390EBE7C45F0008485F0008B8
:104A700038B50546002940D051F8043C0C1F002BE6
:104A8000B8BFE41800F0E6F81C4A136833B9636055
:104A900014602846BDE8384000F0E2B8A34208D9C7
:104AA000206821188B4201BF19685B6809182160D2
:104AB000EDE71A465B680BB1A342FAD911685018AA
:104AC000A0420BD120680144501883421160E0D10C
:104AD00018685B68084410605360DAE702D90C2359
:104AE0002B60D6E7206821188B4201BF19685B68EC
:104AF0000918216063605460CBE738BDC003002013
:104B0000024B0146186800F025B800BF20000020C5
:104B100070B50F4E0C463168054611B900F03AFEEB
:104B200030602146284600F035FE431C03D14FF08B
:104B3000FF34204670BDC41C24F00304A042F8D00A
:104B4000211A284600F026FE0130F2D1EFE700BF1F
:104B5000BC0300202DE9F843CD1C25F003050835E2
:104B60000C2D38BF0C25002D064601DBA94204D9C7
:104B70000C2333600020BDE8F883DFF8D48000F018
:104B800069F8D8F800301C4644BB29463046FFF788
:104B9000BFFF431C044658D1D8F800402746002FD9
:104BA00043D1002C4BD023683946304604EB03092F
:104BB00000F0F0FD814542D1216830466D1A29464A
:104BC000FFF7A6FF01303AD023682B442360D8F8C2
:104BD00000305A6862BBC8F800700FE02268521BB0
:104BE00020D40B2A17D96119A342256018BF596038
:104BF000636808BFC8F8001062514B60304600F08F
:104C00002FF804F10B00231D20F00700C21A1CBF6F
:104C10001B1AA350AFE76268A3420CBFC8F800207C
:104C20005A60EBE723466468AEE73C467F68B6E728
:104C30001A465B68A342FBD100235360DEE70C23D6
:104C40003046336000F00CF894E70560D6E700BF0B
:104C5000C00300200148FFF79EB800BFB803002042
:104C60000148FFF799B800BFB803002070B5C669C6
:104C700004460D4676B91020FFF742FF0246E06178
:104C800020B96B21174B184800F0A2FDC0E901665E
:104C90000660C660E669F36883B1E369DB6853F8D0
:104CA0002500B8B9012101FA05F6721D20469200CF
:104CB00000F0ACFD60B1C0E901560EE021220421F4
:104CC000204600F0A3FDE369F060DB68002BE4D12F
:104CD000002070BD026843F825200023C0E903339B
:104CE000F7E700BF555F0008D55F000870B5C669DB
:104CF00005460C4676B91020FFF702FF0246E86130
:104D000020B98F21084B094800F062FDC0E9016617
:104D10000660C6603CB1EB696268DB6853F822103C
:104D2000216043F8224070BD555F0008D55F000840
:104D30002DE9F04107460C461E4600200D6901F1A1
:104D4000140CDCF80030013099B202FB01611E0C3A
:104D50000B0C02FB063389B201EB034185424FEA9B
:104D600013464CF8041BECDC0EB3A368AB4219DC11
:104D7000616838460131FFF779FF804628B902465D
:104D8000BA210C4B0C4800F023FD226904F10C0100
:104D9000023292000C3000F00DFD21463846FFF73C
:104DA000A5FF444604EB850301355E61256120467D
:104DB000BDE8F081C45F0008D55F00080346B0F588
:104DC000803F3ABF030410200020B3F1807F3CBF36
:104DD0001B020830B3F1805F3CBF1B010430B3F10C
:104DE000804F3CBF9B000230002B05DB13F0804F4F
:104DF00000F1010008BF202070470368024613F04D
:104E000007000BD0D90721D4980749BF5B089B083E
:104E1000012013605CBF02201360704799B209B98A
:104E200010201B0CD9B209B908301B0A190704BF9E
:104E30001B090430990704BF9B080230D90703D42B
:104E40005B0800F1010003D0136070470020704739
:104E50002020704710B50C460121FFF707FF0246DE
:104E600028B940F24511044B044800F0B1FC01237D
:104E70004461036110BD00BFC45F0008D55F000836
:104E80002DE9F04F17460A693B6989469A42A2BF4D
:104E90003B460F4699463D69D9F810A0BB68796832
:104EA00005EB0A06B34285B0B8BF0131FFF7DEFE5D
:104EB00030B902464FF4B171404B414800F088FCD4
:104EC00000F114042346002204EB860E734520D320
:104ED00007F1140809F1140108EB850501EB8A03B9
:104EE0000293EB1B153B23F0030304331537BD423C
:104EF00038BF04230193029B03918B420CD8002EF0
:104F000003DD5EF8043D002B55D0066105B0BDE819
:104F1000F08F43F8042BD9E7B1F800A0BAF1000FE5
:104F20001FD0C446A14600275CF8042BD9F80030F6
:104F30001FFA82FB9BB20AFB0B333B44D9F800708B
:104F4000120C3F0C0AFB027202EB13429BB243EAC3
:104F5000024365454FEA124749F8043BE4D8019BF8
:104F6000E750039B0431B3F80290B9F1000F20D051
:104F70004746A4464FF0000A2368B7F800B0BCF8D3
:104F800002209BB209FB0B22524443EA02434CF835
:104F9000043B57F8043B4FEA134ABCF80030BD42CB
:104FA00009FB0A3303EB12434FEA134AE5D8019A8F
:104FB000A35004349FE7013EA1E700BFC45F00088F
:104FC000D55F00082DE9F843154612F003020746A5
:104FD0000E4607D0254C013A002354F82220FFF753
:104FE000A7FE0646AD103DD0FC697CB91020FFF746
:104FF00087FD0246F86128B940F2B3111C4B1D48E9
:1050000000F0E6FBC0E901440460C460D7F81C80EE
:10501000D8F808404CB940F271213846FFF71AFF22
:1050200000230446C8F8080003604FF00009EB07AE
:105030000AD5314622463846FFF722FF80463146E0
:105040003846FFF753FE46466D100BD0206838B93E
:10505000224621463846FFF713FF2060C0F8009033
:105060000446E4E73046BDE8F88300BF88600008E6
:10507000555F0008D55F00082DE9F0470C4607464C
:1050800091462369496803EB6218A3684FEA621AE4
:1050900008F10106B3420BDB3846FFF7E7FD054692
:1050A00048B902464FF4EF71274B284800F090FBB7
:1050B00001315B00EEE7002300F1140100F1100262
:1050C0001846534533DB20692AEAEA7A04F11403CF
:1050D00019F01F0901EB8A0103EB800C2BD08A46E3
:1050E0000022C9F1200E186800FA09F010434AF8AE
:1050F000040B53F8042B9C4522FA0EF2F3D8ACEBC8
:105100000403153B23F00303043304F11500604549
:1051100088BF0423CA500AB108F10206013E38468E
:1051200021462E61FFF7E2FD2846BDE8F08742F8F0
:10513000040F0133C5E7043953F8042B9C4541F8AB
:10514000042FF9D8EAE700BFC45F0008D55F000864
:1051500003460A69006930B5801A0ED11433143140
:1051600003EB820401EB820154F8045D51F8042D35
:10517000954203D005D24FF0FF3030BDA342F3D3A8
:10518000FBE70120F9E700002DE9F74F89460646C5
:10519000114648461446FFF7DBFF051E12D129468B
:1051A0003046FFF763FD024628B940F237213E4BF7
:1051B0003E4800F00DFB0123C0E90435104603B062
:1051C000BDE8F08FBCBF4B46A1463046D9F804106D
:1051D000BABF1C4601250025FFF748FD024618B955
:1051E00040F24521304BE3E700F1140BD9F8107081
:1051F00009F11003C5604FF0000C09F11405D94600
:10520000266904F1140E05EB87080EEB8606019360
:10521000019B5EF8040B53F804AF81B201931FFAAF
:105220008AF35B1A000C6344C0EB1A4000EB234086
:105230009BB243EA004376454FEA204C49F8043BD1
:10524000E6D8331B153B23F0030315340433A64281
:1052500038BF04231D445B441E462C4644450ED3F0
:1052600008F10301491B21F00301033DA84538BFA4
:1052700000210B4453F8041D99B117619EE7E646DF
:1052800054F8041B1FFA81FCF444080C714400EB31
:105290002C4089B241EA00414FEA204C46F8041BF9
:1052A000DCE7013FE6E700BFC45F0008D55F000808
:1052B0002DE97343012190469946089EFFF7D6FCDD
:1052C000044630B9024640F20F31234B234800F028
:1052D0007FFAC9F30A55C9F313030DB143F48013E0
:1052E0000193B8F1000324D068460093FFF785FDD1
:1052F000DDE90012D8B1C0F1200302FA03F30B4339
:10530000C24063610192019B002B0CBF012202226B
:10531000A3612261ADB1A5F2334505443560C0F10A
:105320003500099B1860204602B0BDE870836161BA
:10533000E9E701A8FFF761FD019B012263612030CD
:10534000E7E7A0F2324004EB820330601869FFF710
:1053500035FDC0EB4210E4E7C45F0008D55F0008EC
:105360002DE9F0471F468E688246BE420C469046A5
:105370000B682DD8B1F90C2012F4906F26D0656916
:10538000096905EB4505A3EB010905EBD5757B1C08
:105390004B446D109D4238BF1D46530527D5294605
:1053A000FFF7D8FB064660B34A46216900F002FACF
:1053B000A38923F4906343F08003A38126614E44C4
:1053C00026603E466561A5EB0905A560BE4200D991
:1053D0003E4632464146206800F0C2F90020A368EC
:1053E0009B1BA360236833442360BDE8F0872A46F3
:1053F00000F032FA06460028E0D150462169FFF756
:1054000037FB0C23CAF80030A3894FF0FF3043F07C
:105410004003A381E9E700002DE9F04F98468B890E
:1054200007461B060D4614469DB010D50B6973B98F
:105430004021FFF78FFB2860286130B90C233B60C7
:105440004FF0FF301DB0BDE8F08F40236B610023AB
:10545000099320238DF8293030234FF00109CDF82E
:105460000C80DFF898818DF82A3023469A4613F88D
:10547000012B0AB1252AF9D1BAEB040B0BD05B46FC
:10548000224629463846FFF76BFF013000F0A7801F
:10549000099A5A4409929AF80030002B00F09F8034
:1054A00000234FF0FF32CDE905230AF1010A0493EE
:1054B00007938DF853301A935446052214F8011BB4
:1054C0004E48FEF76AFC049AD8B9D00644BF2023A0
:1054D0008DF85330110744BF2B238DF853309AF8C1
:1054E00000302A2B15D0544600204FF00A0C079AA2
:1054F000214611F8013B303B092B4BD9B0B1079243
:1055000014E0A0EB080309FA03F31343A246049343
:10551000D2E7039B191D1B680391002BBBBF5B42A5
:1055200042F0020207930793B8BF049223782E2B10
:105530000AD163782A2B32D1039B02341A1D1B68CF
:10554000039243EAE3730593DFF8B4A003225046C5
:105550002178FEF722FC38B14022049BA0EB0A0020
:10556000824013430134049314F8011B062225489A
:105570008DF82810FEF711FC002836D0224B1BBBFB
:10558000039B073323F0070308330393099B33443A
:1055900009936AE70C4601200CFB0232A8E70023BE
:1055A0004FF00A0C194601340593204610F8012BE0
:1055B000303A092A03D9002BC6D00591C4E7044626
:1055C00001230CFB0121F0E703AB00932A46384688
:1055D0000E4B04A9FDF77EFE421C0646D6D1AB89D0
:1055E0005B063FF52DAF09982CE703AB00932A46E5
:1055F0003846064B04A9FEF70BF9EDE72E600008CC
:105600003460000838600008D53200086153000893
:10561000B1F90C20F8B5160705460C4654D44B6872
:10562000002B02DC0B6C002B48DDE66A002E45D017
:10563000002312F480522F68216A2B6030D0626DF3
:10564000A389590705D56368D21A636B0BB1236C24
:10565000D21A00232846E66A216AB047431CA38970
:1056600006D129681D292BD8284ACA40D60727D534
:10567000002262602269D904226004D5421C01D153
:105680002B6803B96065616B2F60B9B104F1440305
:10569000994202D02846FFF7EBF9002363630DE03F
:1056A00001232846B0470246501CC9D12B68002B65
:1056B000C6D01D2B01D0162B1DD12F60002021E05C
:1056C00043F040031BB21AE00F69002FF6D0930796
:1056D00018BF00230E6808BF4B69F61B0F608B6074
:1056E000002EEBDD33463A462846216AD4F828C01E
:1056F000E047002807DCB4F90C3043F040034FF0DA
:10570000FF30A381F8BD0744361AE9E701004020C5
:1057100038B50B6905460C4613B90025284638BD37
:1057200018B1036A0BB9FEF71DFAB4F90C30002B5F
:10573000F3D0626ED00704D4990502D4A06DFEF7B1
:105740002AFB28462146FFF763FF636E0546DA070A
:10575000E4D4A3899B05E1D4A06DFEF71DFBDDE732
:10576000884210B501EB020402D98442234607D8CF
:10577000431EA14208D011F8012B03F8012FF8E7CE
:10578000014602448A4200D110BD13F8014D02F8CF
:10579000014DF7E738B50023054D044608462B6058
:1057A000FCF726F8431C02D12B6803B1236038BDF7
:1057B000B40300200A44914200F1FF3300D1704746
:1057C00010B511F8014B914203F8014FF9D110BD0A
:1057D0001FB514461A46094B05461B68D8684CB1DC
:1057E000074BCDE9013400912B46064900F070F8D3
:1057F00000F080F8044B1C46F3E700BF20000020B7
:1058000049600008566000088460000870B5A1FB7C
:10581000025434B92946FFF79DF9064628B93046A7
:1058200070BD0C2200260260F9E72A462146FEF7E9
:1058300034FAF4E782B001B901A942B14BB113784F
:105840000B601278101E18BF012002B0704710467E
:10585000FBE76FF00100F8E72DE9F0410746144639
:105860000D4621B91146BDE8F041FFF773B92AB9D9
:10587000FFF7FEF825462846BDE8F08100F041F824
:105880008442064602D8B4EB500FF4D8214638467D
:10589000FFF760F9804608B94546ECE7B442224676
:1058A000294628BF3246FFF785FF29463846FFF7CD
:1058B000DFF8F1E70346084641B1FF2A04D98A22FE
:1058C0004FF0FF301A60704701200A7070470000E7
:1058D0000EB403B5014603AB054853F8042B00682A
:1058E000019300F03DF802B05DF804EB03B070479F
:1058F00020000020062008B500F006FA0120FBF782
:1059000002FF51F8043C181F002BBCBF0B58C018F5
:105910007047936810B4013B002B936007DA9469D9
:10592000A34201DB0A2902D110BC00F031B913688F
:10593000581C10601970084610BC7047F8B5064630
:105940000F461446D518AC4201D1002007E03A4674
:10595000304614F8011BFFF7DCFF431CF3D1F8BD00
:105960002DE9F04F0D461446984606469DB018B1F5
:10597000036A0BB9FEF7F6F86B6ED90705D4AB894D
:105980009A0502D4A86DFEF706FAAB891B0701D56C
:105990002B699BB92946304600F038F970B16B6E1F
:1059A000DC0704D54FF0FF301DB0BDE8F08FAB89A8
:1059B0009805F7D4A86DFEF7EFF9F3E700230993F4
:1059C00020238DF8293030234FF00109CDF80C80C9
:1059D000DFF8A8818DF82A3023469A4613F8012B68
:1059E0000AB1252AF9D1BAEB040B0BD05B4622464B
:1059F00029463046FFF7A2FF013000F0A780099A40
:105A00005A4409929AF80030002B00F09F8000233E
:105A10004FF0FF32CDE905230AF1010A0493079301
:105A20008DF853301A935446052214F8011B53483D
:105A3000FEF7B3F9049AD8B9D10644BF20238DF8F4
:105A40005330130744BF2B238DF853309AF800309E
:105A50002A2B15D0544600204FF00A0C079A2146F5
:105A600011F8013B303B092B4BD9B0B1079214E040
:105A7000A0EB080309FA03F31343A2460493D2E709
:105A8000039B191D1B680391002BBBBF5B4242F0B7
:105A9000020207930793B8BF049223782E2B0AD1F2
:105AA00063782A2B32D1039B02341A1D1B680392A0
:105AB00043EAE3730593DFF8C8A003225046217838
:105AC000FEF76BF938B14022049BA0EB0A0082403C
:105AD00013430134049314F8011B062229488DF85E
