:020000040800F2
:1000000000280020911C0008651B00086D1B0008DB
:10001000751B00087D1B0008851B00080000000000
:100020000000000000000000000000008D1B000820
:10003000991B000800000000A51B0008B11B000868
:10004000D91C0008D91C0008D91C0008D91C0008BC
:10005000D91C0008D91C0008D91C0008D91C0008AC
:10006000D91C0008D91C0008D91C0008D91C00089C
:10007000D91C0008D91C0008D91C0008D91C00088C
:10008000D91C0008D91C0008D91C0008D91C00087C
:10009000D91C0008D91C0008D91C0008D91C00086C
:1000A000D91C0008D91C0008D91C0008D91C00085C
:1000B000D91C0008D91C000800000000D91C000849
:1000C000D91C00080000000000000000D91C000836
:1000D00000000000D91C0008D91C00080000000026
:1000E000D91C0008D91C0008D91C00080000000019
:1000F0000000000000000000000000000000000000
:0C01000000000000000000005FF808F1A3
:1001100010B5054C237833B9044B13B10448AFF341
:1001200000800123237010BD5C000020000000004F
:10013000585B000808B5034B1BB103490348AFF3F4
:10014000008008BD0000000060000020585B00082F
:10015000034613F8012B002AFBD1181A0138704707
:1001600081F0004102E000BF83F0004330B54FEA68
:1001700041044FEA430594EA050F08BF90EA020FD5
:100180001FBF54EA000C55EA020C7FEA645C7FEA68
:10019000655C00F0E2804FEA5454D4EB5555B8BF8B
:1001A0006D420CDD2C4480EA020281EA030382EAFC
:1001B000000083EA010180EA020281EA0303362D8E
:1001C00088BF30BD11F0004F4FEA01314FF4801C61
:1001D0004CEA113102D0404261EB410113F0004F73
:1001E0004FEA03334CEA133302D0524263EB43032A
:1001F00094EA050F00F0A780A4F10104D5F1200EC8
:100200000DDB02FA0EFC22FA05F2801841F1000122
:1002100003FA0EF2801843FA05F359410EE0A5F1F6
:1002200020050EF1200E012A03FA0EFC28BF4CF027
:10023000020C43FA05F3C01851EBE37101F00045DD
:1002400007D54FF0000EDCF1000C7EEB00006EEBEA
:100250000101B1F5801F1BD3B1F5001F0CD3490874
:100260005FEA30004FEA3C0C04F101044FEA4452CB
:1002700012F5800F80F09A80BCF1004F08BF5FEA52
:10028000500C50F1000041EB045141EA050130BD32
:100290005FEA4C0C404141EB0101013C28BFB1F544
:1002A000801FE9D291F0000F04BF01460020B1FA8F
:1002B00081F308BF2033A3F10B03B3F120020CDA62
:1002C0000C3208DD02F1140CC2F10C0201FA0CF040
:1002D00021FA02F10CE002F11402D8BFC2F1200CA5
:1002E00001FA02F120FA0CFCDCBF41EA0C0190405B
:1002F000E41AA2BF01EB0451294330BD6FEA0404A4
:100300001F3C1CDA0C340EDC04F11404C4F120028E
:1003100020FA04F001FA02F340EA030021FA04F3A0
:1003200045EA030130BDC4F10C04C4F1200220FAF7
:1003300002F001FA04F340EA0300294630BD21FA35
:1003400004F0294630BD94F0000F83F4801306BFFB
:1003500081F480110134013D4EE77FEA645C18BFEF
:100360007FEA655C29D094EA050F08BF90EA020F86
:1003700005D054EA000C04BF1946104630BD91EA7E
:10038000030F1EBF0021002030BD5FEA545C05D181
:100390004000494128BF41F0004130BD14F58004C0
:1003A0003CBF01F5801130BD01F0004545F0FE4134
:1003B00041F470014FF0000030BD7FEA645C1ABF69
:1003C000194610467FEA655C1CBF0B46024650EAA0
:1003D000013406BF52EA033591EA030F41F40021CC
:1003E00030BD00BF90F0000F04BF0021704730B552
:1003F0004FF4806404F132044FF000054FF0000127
:1004000050E700BF90F0000F04BF0021704730B5E7
:100410004FF4806404F1320410F0004548BF4042BC
:100420004FF000013EE700BF42004FEAE2014FEA11
:1004300031014FEA02701FBF12F07F4393F07F4FEC
:1004400081F06051704732F07F4208BF704793F0EF
:100450007F4F04BF41F40021704730B54FF4607402
:1004600001F0004521F000411CE700BF50EA010205
:1004700008BF704730B54FF000050AE050EA0102AE
:1004800008BF704730B511F0004502D5404261EB1E
:1004900041014FF4806404F132045FEA915C3FF45F
:1004A000D8AE4FF003025FEADC0C18BF03325FEAFC
:1004B000DC0C18BF033202EBDC02C2F1200300FAAD
:1004C00003FC20FA02F001FA03FE40EA0E0021FAD2
:1004D00002F11444BDE600BF70B54FF0FF0C4CF4C0
:1004E000E06C1CEA11541DBF1CEA135594EA0C0F72
:1004F00095EA0C0F00F0DEF82C4481EA030621EAAD
:100500004C5123EA4C5350EA013518BF52EA0335E7
:1005100041F4801143F4801338D0A0FB02CE4FF099
:100520000005E1FB02E506F00042E0FB03E54FF0C9
:100530000006E1FB03569CF0000F18BF4EF0010EC1
:10054000A4F1FF04B6F5007F64F5407404D25FEABD
:100550004E0E6D4146EB060642EAC62141EA555170
:100560004FEAC52040EA5E504FEACE2EB4F1FD0CB2
:1005700088BFBCF5E06F1ED8BEF1004F08BF5FEA30
:10058000500E50F1000041EB045170BD06F00046E2
:1005900046EA010140EA020081EA0301B4EB5C048F
:1005A000C2BFD4EB0C0541EA045170BD41F4801187
:1005B0004FF0000E013C00F3AB8014F1360FDEBFAC
:1005C000002001F0004170BDC4F10004203C35DA88
:1005D0000C341BDC04F11404C4F1200500FA05F30B
:1005E00020FA04F001FA05F240EA020001F00042AC
:1005F00021F0004110EBD37021FA04F642EB060122
:100600005EEA430E08BF20EAD37070BDC4F10C044B
:10061000C4F1200500FA04F320FA05F001FA04F20F
:1006200040EA020001F0004110EBD37041F10001FB
:100630005EEA430E08BF20EAD37070BDC4F1200506
:1006400000FA05F24EEA020E20FA04F301FA05F26E
:1006500043EA020321FA04F001F0004121FA04F216
:1006600020EA020000EBD3705EEA430E08BF20EAE6
:10067000D37070BD94F0000F0FD101F00046400020
:1006800041EB010111F4801F08BF013CF7D041EAA2
:10069000060195F0000F18BF704703F000465200A6
:1006A00043EB030313F4801F08BF013DF7D043EA77
:1006B0000603704794EA0C0F0CEA135518BF95EA2D
:1006C0000C0F0CD050EA410618BF52EA4306D1D1B4
:1006D00081EA030101F000414FF0000070BD50EAD3
:1006E000410606BF1046194652EA430619D094EA5D
:1006F0000C0F02D150EA013613D195EA0C0F05D147
:1007000052EA03361CBF104619460AD181EA03019A
:1007100001F0004141F0FE4141F470014FF0000052
:1007200070BD41F0FE4141F4780170BD70B54FF0ED
:10073000FF0C4CF4E06C1CEA11541DBF1CEA13556D
:1007400094EA0C0F95EA0C0F00F0A7F8A4EB05044F
:1007500081EA030E52EA03354FEA013100F0888046
:100760004FEA03334FF0805545EA131343EA12630F
:100770004FEA022245EA111545EA10654FEA0026C4
:100780000EF000419D4208BF964244F1FD0404F57D
:10079000407402D25B084FEA3202B61A65EB0305D9
:1007A0005B084FEA32024FF480104FF4002CB6EB96
:1007B000020E75EB030E22BFB61A754640EA0C0016
:1007C0005B084FEA3202B6EB020E75EB030E22BF56
:1007D000B61A754640EA5C005B084FEA3202B6EB97
:1007E000020E75EB030E22BFB61A754640EA9C0056
:1007F0005B084FEA3202B6EB020E75EB030E22BF26
:10080000B61A754640EADC0055EA060E18D04FEAE3
:10081000051545EA16754FEA06164FEAC30343EA83
:1008200052734FEAC2025FEA1C1CC0D111F4801F50
:100830000BD141EA00014FF000004FF0004CB6E749
:1008400011F4801F04BF01430020B4F1FD0C88BFE8
:10085000BCF5E06F3FF6AFAEB5EB030C04BFB6EBF3
:10086000020C5FEA500C50F1000041EB045170BDE6
:100870000EF0004E4EEA113114EB5C04C2BFD4EB13
:100880000C0541EA045170BD41F480114FF0000E97
:10089000013C90E645EA060E8DE60CEA135594EA13
:1008A0000C0F08BF95EA0C0F3FF43BAF94EA0C0F16
:1008B0000AD150EA01347FF434AF95EA0C0F7FF48B
:1008C00025AF104619462CE795EA0C0F06D152EADF
:1008D00003353FF4FDAE1046194622E750EA4106C3
:1008E00018BF52EA43067FF4C5AE50EA41047FF4D4
:1008F0000DAF52EA43057FF4EBAE12E74FF0FF3C39
:1009000006E000BF4FF0010C02E000BF4FF0010C09
:100910004DF804CD4FEA410C7FEA6C5C4FEA430C82
:1009200018BF7FEA6C5C1BD001B050EA410C0CBFD1
:1009300052EA430C91EA030F02BF90EA020F002033
:10094000704710F1000F91EA030F58BF994208BF9A
:1009500090422CBFD8176FEAE37040F00100704757
:100960004FEA410C7FEA6C5C02D150EA013C07D1AE
:100970004FEA430C7FEA6C5CD6D152EA033CD3D0F9
:100980005DF8040B704700BF8446104662468C46F3
:100990001946634600E000BF01B5FFF7B7FF002826
:1009A00048BF10F1000F01BD4DF808EDFFF7F4FF4F
:1009B0000CBF012000205DF808FB00BF4DF808EDDA
:1009C000FFF7EAFF34BF012000205DF808FB00BFFD
:1009D0004DF808EDFFF7E0FF94BF012000205DF81F
:1009E00008FB00BF4DF808EDFFF7CEFF94BF0120D4
:1009F00000205DF808FB00BF4DF808EDFFF7C4FFCD
:100A000034BF012000205DF808FB00BF4FEA410C15
:100A10007FEA6C5C02D150EA013C0AD14FEA430CF8
:100A20007FEA6C5C02D152EA033C02D14FF0000035
:100A300070474FF0010070474FEA4102B2F1E043C6
:100A400024BFB3F5001CDCF1FE5C0DD901F0004CB5
:100A50004FEAC0024CEA5070B2F1004F40EB830005
:100A600008BF20F00100704711F0804F21D113F131
:100A70003872BCBF01F00040704741F480114FEA6A
:100A80005252C2F11802C2F1200C10FA0CF320FAF3
:100A900002F018BF40F001004FEAC1234FEAD32310
:100AA00003FA0CFC40EA0C0023FA02F34FEA43037A
:100AB000CCE77FEA625307D150EA01331EBF4FF003
:100AC000FE4040F44000704701F0004040F0FE401E
:100AD00040F40000704700BF80F0004002E000BF1B
:100AE00081F0004142001FBF5FEA410392EA030F19
:100AF0007FEA226C7FEA236C6AD04FEA1262D2EB63
:100B00001363C1BFD218414048404140B8BF5B4267
:100B1000192B88BF704710F0004F40F4000020F000
:100B20007F4018BF404211F0004F41F4000121F016
:100B30007F4118BF494292EA030F3FD0A2F1010260
:100B400041FA03FC10EB0C00C3F1200301FA03F19E
:100B500000F0004302D5494260EB4000B0F5000FC1
:100B600013D3B0F1807F06D340084FEA310102F180
:100B70000102FE2A51D2B1F1004F40EBC25008BF32
:100B800020F0010040EA03007047490040EB0000FC
:100B9000013A28BFB0F5000FEDD2B0FA80FCACF1FD
:100BA000080CB2EB0C0200FA0CF0AABF00EBC2502A
:100BB00052421843BCBFD0401843704792F0000F18
:100BC00081F4000106BF80F400000132013BB5E76B
:100BD0004FEA41037FEA226C18BF7FEA236C21D0E1
:100BE00092EA030F04D092F0000F08BF0846704746
:100BF00090EA010F1CBF0020704712F07F4F04D114
:100C0000400028BF40F00040704712F100723CBF26
:100C100000F50000704700F0004343F0FE4040F450
:100C2000000070477FEA226216BF08467FEA23630E
:100C30000146420206BF5FEA412390EA010F40F4F9
:100C4000800070474FF0000304E000BF10F0004345
:100C500048BF40425FEA000C08BF704743F096432C
:100C600001464FF000001CE050EA010208BF704747
:100C70004FF000030AE000BF50EA010208BF7047CE
:100C800011F0004302D5404261EB41015FEA010CE3
:100C900002BF84460146002043F0B64308BFA3F1DB
:100CA0008053A3F50003BCFA8CF2083AA3EBC253BD
:100CB00010DB01FA02FC634400FA02FCC2F12002DC
:100CC000BCF1004F20FA02F243EB020008BF20F013
:100CD0000100704702F1200201FA02FCC2F1200279
:100CE00050EA4C0021FA02F243EB020008BF20EA6E
:100CF000DC7070474FF0FF0C1CEAD0521EBF1CEA9C
:100D0000D15392EA0C0F93EA0C0F6FD01A4480EA89
:100D1000010C400218BF5FEA41211ED04FF0006372
:100D200043EA501043EA5111A0FB01310CF000409E
:100D3000B1F5000F3EBF490041EAD3715B0040EAC4
:100D4000010062F17F02FD2A1DD8B3F1004F40EB94
:100D5000C25008BF20F00100704790F0000F0CF067
:100D6000004C08BF49024CEA502040EA51207F3A2B
:100D7000C2BFD2F1FF0340EAC250704740F4000006
:100D80004FF00003013A5DDC12F1190FDCBF00F0F7
:100D900000407047C2F10002410021FA02F1C2F1A5
:100DA000200200FA02FC5FEA310040F1000053EA41
:100DB0004C0308BF20EADC70704792F0000F00F08F
:100DC000004C02BF400010F4000F013AF9D040EA95
:100DD0000C0093F0000F01F0004C02BF490011F429
:100DE000000F013BF9D041EA0C018FE70CEAD15327
:100DF00092EA0C0F18BF93EA0C0F0AD030F0004CA7
:100E000018BF31F0004CD8D180EA010000F000405A
:100E1000704790F0000F17BF90F0004F084691F018
:100E2000000F91F0004F14D092EA0C0F01D1420252
:100E30000FD193EA0C0F03D14B0218BF084608D11B
:100E400080EA010000F0004040F0FE4040F4000065
:100E5000704740F0FE4040F4400070474FF0FF0CF8
:100E60001CEAD0521EBF1CEAD15392EA0C0F93EA3F
:100E70000C0F69D0A2EB030280EA010C49024FEA91
:100E8000402037D04FF0805343EA111143EA10134A
:100E90000CF000408B4238BF5B0042F17D024FF402
:100EA000000C8B4224BF5B1A40EA0C00B3EB510FDD
:100EB00024BFA3EB510340EA5C00B3EB910F24BFC6
:100EC000A3EB910340EA9C00B3EBD10F24BFA3EB4B
:100ED000D10340EADC001B0118BF5FEA1C1CE0D113
:100EE000FD2A3FF650AF8B4240EBC25008BF20F0C6
:100EF000010070470CF0004C4CEA50207F32C2BF1A
:100F0000D2F1FF0340EAC250704740F400004FF0B6
:100F10000003013A37E792F0000F00F0004C02BFE7
:100F2000400010F4000F013AF9D040EA0C0093F0B1
:100F3000000F01F0004C02BF490011F4000F013B0B
:100F4000F9D041EA0C0195E70CEAD15392EA0C0F73
:100F500008D142027FF47DAF93EA0C0F7FF470AFAB
:100F6000084676E793EA0C0F04D14B023FF44CAFEE
:100F700008466EE730F0004C18BF31F0004CCAD183
:100F800030F000427FF45CAF31F000437FF43CAFBF
:100F90005FE700BF4FF0FF3C06E000BF4FF0010CE1
:100FA00002E000BF4FF0010C4DF804CD4FEA4002C3
:100FB0004FEA41037FEA226C18BF7FEA236C11D00D
:100FC00001B052EA530C18BF90EA010F58BFB2EBC0
:100FD000030088BFC81738BF6FEAE17018BF40F040
:100FE000010070477FEA226C02D15FEA402C05D1F4
:100FF0007FEA236CE4D15FEA412CE1D05DF8040B79
:10100000704700BF844608466146FFE70FB5FFF70B
:10101000C9FF002848BF10F1000F0FBD4DF808EDC3
:10102000FFF7F4FF0CBF012000205DF808FB00BFB4
:101030004DF808EDFFF7EAFF34BF012000205DF80E
:1010400008FB00BF4DF808EDFFF7E0FF94BF01205B
:1010500000205DF808FB00BF4DF808EDFFF7D2FF58
:1010600094BF012000205DF808FB00BF4DF808ED9B
:10107000FFF7C8FF34BF012000205DF808FB00BF68
:101080004FEA4002B2F1FE4F0FD34FF09E03B3EB95
:1010900012620DD94FEA002343F0004310F0004FD5
:1010A00023FA02F018BF404270474FF0000070472B
:1010B00012F1610F01D1420205D110F0004008BFCA
:1010C0006FF0004070474FF00000704780B483B06D
:1010D00000AF7860034A7B68136000BF0C37BD46E1
:1010E00080BC70477800002080B483B000AF034616
:1010F000FB71044AFB79137000BF0C37BD4680BCFE
:10110000704700BF9200002098B500AFAA23184690
:1011100000F0E8F803461BB21B021CB2AB231846D2
:1011200000F0E0F803461BB223431AB25D4B1A806D
:10113000AC23184600F0D6F803461BB21B021CB2C3
:10114000AD23184600F0CEF803461BB223431AB273
:10115000544B5A80AE23184600F0C4F803461BB225
:101160001B021CB2AF23184600F0BCF803461BB2AA
:1011700023431AB24B4B9A80B023184600F0B2F8C2
:1011800003461BB21B021CB2B123184600F0AAF89A
:1011900003461BB223431BB29AB2424BDA80B223FE
:1011A000184600F09FF803461BB21B021CB2B32383
:1011B000184600F097F803461BB223431BB29AB2BD
:1011C000384B1A81B423184600F08CF803461BB242
:1011D0001B021CB2B523184600F084F803461BB26C
:1011E00023431BB29AB22F4B5A81B623184600F004
:1011F00079F803461BB21B021CB2B723184600F055
:1012000071F803461BB223431AB2264B9A81B823C6
:10121000184600F067F803461BB21B021CB2B92344
:10122000184600F05FF803461BB223431AB21D4B69
:10123000DA81BA23184600F055F803461BB21B02A8
:101240001CB2BB23184600F04DF803461BB22343E3
:101250001AB2144B1A82BC23184600F043F8034616
:101260001BB21B021CB2BD23184600F03BF803461C
:101270001BB223431AB20B4B5A82BE23184600F00E
:1012800031F803461BB21B021CB2BF23184600F004
:1012900029F803461BB223431AB2024B9A8200BFBD
:1012A00098BD00BF7C00002080B586B002AF034629
:1012B0000A46FB711346BB71FB793B73BB797B73A9
:1012C000074B186807F10C024FF47A73009302235E
:1012D000EE2101F01DF900BF1037BD4680BD00BFF3
:1012E0007800002080B586B002AF0346FB710D4B3D
:1012F0001868FA1D4FF47A7300930123EE2101F070
:1013000007F9084B186807F10F024FF47A7300933E
:101310000123EE2101F0FAF9FB7B18461037BD4698
:1013200080BD00BF7800002090B585B000AF2E23AF
:101330001946F420FFF7B8FF0523184600F030FDEA
:10134000F620FFF7CFFF03461C02F720FFF7CAFF86
:1013500003462343FB60154B5B891A46FB689B1AC7
:10136000124A128902FB03F3002B02DA03F5FF4352
:101370007F33DB13BB600D4BB3F91230DA020B4B3A
:10138000B3F914301946BB680B4492FBF3F37B604E
:10139000BA687B6813443B603B680833002B00DA73
:1013A0000F331B1118461437BD4690BD7C0000203A
:1013B00080B582B000AFFFF7B7FF78607868FFF7BD
:1013C00021F84FF00002074BFFF7B0F902460B4639
:1013D00010461946FFF730FB034618460837BD464E
:1013E00080BD00BF0000244080B58CB000AF2E232C
:1013F0001946F420FFF758FF0523184600F0D0FCEB
:1014000000F002F9B8627B4B1B781A467A4B9B5C62
:101410001946F420FFF748FF764B1B781A46774BA6
:101420009B5C184600F0BCFC00F0FCF87862744B42
:101430005B891A46BB6A9B1A714A128902FB03F345
:10144000002B02DA03F5FF437F33DB133B626C4B67
:10145000B3F91230DA026A4BB3F9143019463B6A19
:101460000B4492FBF3F3FB613A6AFB691344BB61E3
:10147000BB69A3F57A637B61614BB3F90E301A4601
:101480007B6903FB03F3002B01DA03F6FF731B13E5
:1014900002FB03F3002B01DA03F2FF73DB123B6262
:1014A000574BB3F902301A467B6902FB03F3002B5A
:1014B00001DA03F2FF73DB12FB613A6AFB69134442
:1014C0003B614F4BB3F900309A003B691344494AE2
:1014D000127893400233002B00DA03339B10FB6039
:1014E000474BB3F904301A467B6902FB03F3002B28
:1014F00002DA03F5FF531F335B133B62404BB3F932
:101500000C301A467B6903FB03F3002B01DA03F668
:10151000FF731B1302FB03F3002B02DA03F57F4377
:10152000FF331B14FB613A6AFB6913440233002B3F
:1015300000DA03339B103B61314BDB881A463B6971
:1015400003F5004302FB03F3DB0BBB607A6AFB6825
:10155000D31A284A127811464CF250320A4102FB43
:1015600003F37B607B68002B06DB7B685A00BB685B
:10157000B2FBF3F3FB6205E07A68BB68B2FBF3F3FE
:101580005B00FB62FB6A002B00DAFF331B121A467A
:10159000FB6A002B00DAFF331B1202FB03F33B62F2
:1015A0003B6A40F6DE3202FB03F3002B02DA03F55E
:1015B0007F43FF331B143B62FB6A124A02FB03F3B7
:1015C000002B02DA03F57F43FF331B14FB613A6AF9
:1015D000FB69134403F6CF63002B00DA0F331B11B2
:1015E0001A46FB6A1344FB62FB6A18463037BD4655
:1015F00080BD00BF920000202C5C0008305C000819
:101600007C00002043E3FFFF98B500AFF620FFF712
:1016100069FE03461C02F720FFF764FE03462343DE
:10162000184698BD98B500AFF620FFF75BFE03465D
:101630001C04F720FFF756FE03461B021C43F8204C
:10164000FFF750FE034644EA0302044B1B78C3F144
:10165000080342FA03F3184698BD00BF9200002029
:1016600080B58AB004AF00F039FB00F001F900F05A
:1016700093F900F039F900F065F96D48FFF726FDA0
:101680000120FFF731FDFFF73FFD00F07FFB024631
:10169000684B1B68D31AB3F57A7FF6D30023FB712E
:1016A0006423029301230193FB1D00930123D022A5
:1016B000EE215F4801F05EFAFB79552B06D0FB79ED
:1016C0001A465D495D4802F08DFE93E0FFF770FE1B
:1016D00003465B4A1360FFF787FE03461846FFF791
:1016E000B5FA0346574A1360564B1B6856491846CD
:1016F000FFF7B4FB03461A46544B1A60534B1B6862
:101700001846FEF791FE44A3D3E90023FFF70EF835
:1017100002460B461046194641A3D3E9002303F0C5
:1017200011FB02460B464FF000004949FEF71CFD35
:1017300002460B46104619463BA3D3E90023FEF7A9
:10174000CBFE02460B4610461946FFF775F90346D5
:10175000404A13603A4B1B681846FFF791FC03465A
:101760003B61374B1B683C491846FFF7C3FA0346F9
:101770001846FFF785FC0246384B83FB021399108D
:10178000D317C91A0B469B000B445B00D31A7B612D
:101790007B69002B02DA7B695B427B612B4B1B6808
:1017A0001846FFF76DFC0346FB602A4B1B68184682
:1017B000FFF766FC0346BB60214B1B6828491846AF
:1017C000FFF754FC0346002B0AD0BB680193FB686B
:1017D00000937B693A692349184802F003FE09E047
:1017E000BB680193FB6800937B693A691E49134803
:1017F00002F0F8FD1148FEF7ABFC03469AB26423F1
:101800000E491A4802F031FC00F0C0FA0346094ABA
:1018100013603AE7AFF300800000000000AA8F4099
:10182000EBE2361AC05BC83F0000000040A5E5406F
:1018300094000020B0010020705B000838010020F7
:10184000280100202C0100200000C84230010020A7
:101850000000F03F3401002000002041676666660A
:10186000000020428C5B0008D85B0008E8000020E4
:1018700080B590B000AF07F1180328220021184668
:1018800002F0D2FD3B1D00221A605A609A60DA60B5
:101890001A610223BB610123BB621023FB62002398
:1018A0007B6307F11803184601F078FF0346002B0D
:1018B00001D000F093F80F237B600023BB6000236E
:1018C000FB6000233B6100237B613B1D0021184628
:1018D00002F0E6F90346002B01D000F07FF800BFCC
:1018E0004037BD4680BD000080B500AF124B134AA3
:1018F0001A60114B124A5A600F4B00229A600E4B2D
:101900000022DA600C4B4FF480421A610A4B00222D
:101910005A61094B00229A61074B0022DA61064B9B
:1019200000221A62044800F0BFFC0346002B01D0DD
:1019300000F054F800BF80BD940000200054004027
:10194000A086010080B500AF114B124A1A60104BFF
:101950004FF416525A600E4B00229A600C4B002234
:10196000DA600B4B00221A61094B0C225A61084BBA
:1019700000229A61064B0022DA61054802F028FB3A
:101980000346002B01D000F029F800BF80BD00BF46
:10199000E80000200038014080B483B000AF0E4B57
:1019A0009B690D4A43F0040393610B4B9B6903F061
:1019B00004037B607B68084B9B69074A43F008037C
:1019C0009361054B9B6903F008033B603B6800BFD4
:1019D0000C37BD4680BC70470010024080B400AF99
:1019E00072B600BF00BFFDE780B485B000AF154BF5
:1019F0009B69144A43F001039361124B9B6903F006
:101A00000103BB60BB680F4BDB690E4A43F0805398
:101A1000D3610C4BDB6903F080537B607B680A4B1E
:101A20005B68FB60FB6823F0E063FB60FB6843F0EE
:101A30008063FB60044AFB68536000BF1437BD46F7
:101A400080BC7047001002400000014080B588B0A3
:101A500000AF786007F1100300221A605A609A60A4
:101A6000DA607B681B68164A934225D1154B9B6947
:101A7000144A43F008039361124B9B6903F0080377
:101A8000FB60FB68C0233B6112237B610023BB61C9
:101A90000323FB6107F1100319460B4800F088FA95
:101AA000084BDB69074A43F40013D361054BDB693C
:101AB00003F40013BB60BB6800BF2037BD4680BD88
:101AC0000054004000100240000C014080B588B076
:101AD00000AF786007F1100300221A605A609A6024
:101AE000DA607B681B681C4A934231D11B4B9B69AF
:101AF0001A4A43F480439361184B9B6903F4804373
:101B0000FB60FB68154B9B69144A43F00403936127
:101B1000124B9B6903F00403BB60BB684FF4007376
:101B20003B6102237B610323FB6107F1100319462C
:101B30000B4800F03DFA4FF480633B6100237B616A
:101B40000023BB6107F110031946054800F030FA85
:101B500000BF2037BD4680BD003801400010024064
:101B60000008014080B400AF00BFFDE780B400AFC3
:101B700000BFFDE780B400AF00BFFDE780B400AF59
:101B800000BFFDE780B400AF00BFFDE780B400AF49
:101B900000BFBD4680BC704780B400AF00BFBD46EB
:101BA00080BC704780B400AF00BFBD4680BC7047AA
:101BB00080B500AF00F0D8F800BF80BD80B586B01A
:101BC00000AF7860144A154BD31A7B617B693B6187
:101BD000134B1B68002B02D1114B124A1A60104B99
:101BE0001A687B6813443A699A4207D202F024FCCF
:101BF00003460C221A604FF0FF3309E0084B1B68C4
:101C0000FB60074B1A687B681344054A1360FB6846
:101C100018461837BD4680BD00280020000400008B
:101C2000B40100200803002080B400AF154B1B68EE
:101C3000144A43F001031360124B5A681149124BC6
:101C400013404B600F4B1B680E4A23F0847323F440
:101C5000803313600B4B1B680A4A23F48023136004
:101C6000084B5B68074A23F4FE035360054B4FF4AF
:101C70001F029A60054B4FF000629A6000BFBD469C
:101C800080BC7047001002400000FFF800ED00E04B
:101C9000002103E00B4B5B58435004310A480B4BC7
:101CA00042189A42F6D30A4A02E0002342F8043B63
:101CB000084B9A42F9D3FFF7B7FF02F0C3FBFFF7D7
:101CC000CFFC7047D05C0008000000205C000020C2
:101CD0005C00002004030020FEE7000080B500AF98
:101CE000084B1B68074A43F010031360032000F001
:101CF0002BF90F2000F008F8FFF776FE00231846B6
:101D000080BD00BF0020024080B582B000AF786087
:101D1000124B1A68124B1B7819464FF47A73B3FBB7
:101D2000F1F3B2FBF3F3184600F035F90346002B4C
:101D300001D001230EE07B680F2B0AD800227968BE
:101D40004FF0FF3000F00BF9064A7B681360002368
:101D500000E0012318460837BD4680BD0000002082
:101D6000080000200400002080B400AF054B1B7861
:101D70001A46054B1B681344034A136000BFBD4657
:101D800080BC704708000020B801002080B400AF7C
:101D9000024B1B681846BD4680BC7047B801002046
:101DA00080B584B000AF7860FFF7F0FFB8607B6863
:101DB000FB60FB68B3F1FF3F05D00A4B1B781A4666
:101DC000FB681344FB6000BFFFF7E0FF0246BB68FF
:101DD000D31AFA689A42F7D800BF00BF1037BD4641
:101DE00080BD00BF0800002080B485B000AF7860DF
:101DF0007B6803F00703FB600C4BDB68BB60BA68D1
:101E00004FF6FF031340BB60FB681A02BB68134325
:101E100043F0BF6343F40033BB60044ABB68D36044
:101E200000BF1437BD4680BC704700BF00ED00E026
:101E300080B400AF044BDB681B0A03F007031846AD
:101E4000BD4680BC704700BF00ED00E080B483B0A9
:101E500000AF03463960FB7197F90730002B0ADBAE
:101E60003B68DAB20C4997F907301201D2B20B4441
:101E700083F800230AE03B68DAB20849FB7903F0F3
:101E80000F03043B1201D2B20B441A7600BF0C3789
:101E9000BD4680BC704700BF00E100E000ED00E0FF
:101EA00080B489B000AFF860B9607A60FB6803F075
:101EB0000703FB61FB69C3F10703042B28BF04235D
:101EC000BB61FB690433062B02D9FB69033B00E0CD
:101ED00000237B614FF0FF32BB6902FA03F3DA4360
:101EE000BB681A407B699A404FF0FF317B6901FA69
:101EF00003F3D9437B680B40134318462437BD4690
:101F000080BC704780B582B000AF78607B68013BD1
:101F1000B3F1807F01D301230FE00A4A7B68013BC4
:101F200053600F214FF0FF30FFF790FF054B002269
:101F30009A60044B07221A60002318460837BD46F2
:101F400080BD00BF10E000E080B582B000AF7860D7
:101F50007868FFF749FF00BF0837BD4680BD80B5F0
:101F600086B000AF0346B9607A60FB7300237B61E3
:101F7000FFF75EFF78617A68B9687869FFF790FFCC
:101F8000024697F90F3011461846FFF75FFF00BF72
:101F90001837BD4680BD80B582B000AF78607868E4
:101FA000FFF7B0FF034618460837BD4680BD000066
:101FB00080B48BB000AF7860396000237B6200236F
:101FC0003B6261E101227B6A02FA03F3FB613B6839
:101FD0001B68FA691340BB61BA69FB699A4240F019
:101FE00050813B685B68974A93425ED0954A934222
:101FF00075D8954A934258D0934A93426FD8934AE2
:10200000934252D0914A934269D8914A93424CD01C
:102010008F4A934263D88F4A934246D08D4A934267
:102020005DD8122B2AD8122B59D801A252F823F0CE
:10203000AB2000088520000897200008D920000860
:10204000DF200008DF200008DF200008DF20000874
:10205000DF200008DF200008DF200008DF20000864
:10206000DF200008DF200008DF200008DF20000854
:10207000DF2000088D200008A1200008764A934246
:1020800013D02CE03B68DB683B6229E03B68DB68EF
:1020900004333B6224E03B68DB6808333B621FE0AB
:1020A0003B68DB680C333B621AE03B689B68002BA3
:1020B00002D104233B6213E03B689B68012B05D1EE
:1020C00008233B627B68FA691A6109E008233B62D6
:1020D0007B68FA695A6103E000233B6200E000BFBD
:1020E000BB69FF2B01D87B6801E07B6804337B610F
:1020F000BB69FF2B02D87B6A9B0002E07B6A083B2E
:102100009B003B617B691A680F213B6901FA03F36D
:10211000DB431A40396A3B6901FA03F31A437B69CE
:102120001A603B685B6803F08053002B00F0A980C5
:102130004A4B9B69494A43F001039361474B9B69B2
:1021400003F00103BB60BB68454A7B6A9B0802330E
:1021500052F82330FB607B6A03F003039B000F22DD
:1021600002FA03F3DB43FA681340FB607B683D4AE5
:1021700093420DD07B683C4A934207D07B683B4A30
:10218000934201D1022304E0032302E0012300E093
:1021900000237A6A02F0030292009340FA68134324
:1021A000FB602F497B6A9B080233FA6841F82320C1
:1021B0003B685B6803F48033002B06D02C4B1A6815
:1021C0002B49BB6913430B6006E0294B1A68BB69B6
:1021D000DB43274913400B603B685B6803F4003323
:1021E000002B06D0224B5A682149BB6913434B6030
:1021F00006E01F4B5A68BB69DB431D4913404B6027
:102200003B685B6803F48013002B06D0184B9A6878
:102210001749BB6913438B6006E0154B9A68BB698D
:10222000DB43134913408B603B685B6803F4001386
:10223000002B1FD00E4BDA680D49BB691343CB60EE
:102240001FE000BF0000321000003110000022101B
:1022500000002110000012100000111000100240B8
:102260000000014000080140000C01400010014046
:10227000000401400B4BDA68BB69DB43094913409A
:10228000CB607B6A01337B623B681A687B6A22FA07
:1022900003F3002B7FF496AE00BF00BF2C37BD4682
:1022A00080BC70470004014080B584B000AF786006
:1022B0007B68002B01D101231BE17B6893F83D3043
:1022C000DBB2002B06D17B68002283F83C207868C3
:1022D000FFF7BCFB7B68242283F83D207B681B68EA
:1022E0001A687B681B6822F001021A6001F02AFE5E
:1022F000F8607B685B68814A934207D8FB68804A34
:10230000934294BF01230023DBB206E0FB687D4AC1
:10231000934294BF01230023DBB2002B01D00123A1
:10232000E7E0FB68784AA2FB03239B0CBB607B6859
:102330001B685B6823F03F017B681B68BA680A432F
:102340005A607B681B681B6A23F03F017B685B68EF
:102350006A4A934202D8BB68013309E0BB684FF474
:10236000967202FB03F3694AA2FB03239B09013324
:102370007A6812680B4313627B681B68DB6923F47D
:102380004F4222F0FF027B685B685C498B4219D8A0
:10239000FB68591E7B685B685B00B1FBF3F3591C5B
:1023A00040F6FC730B40002B0AD0FB68591E7B687B
:1023B0005B685B00B1FBF3F30133C3F30B0351E044
:1023C00004234FE07B689B68002B11D1FB68581EEB
:1023D0007B6859680B465B000B44B0FBF3F3013399
:1023E000C3F30B03002B0CBF01230023DBB212E06D
:1023F000FB68581E7B6859680B469B000B4499008C
:102400000B44B0FBF3F30133C3F30B03002B0CBFFE
:1024100001230023DBB2002B01D0012322E07B68E3
:102420009B68002B0ED1FB68581E7B6859680B46D1
:102430005B000B44B0FBF3F30133C3F30B0343F432
:1024400000430FE0FB68581E7B6859680B469B00F1
:102450000B4499000B44B0FBF3F30133C3F30B03BC
:1024600043F44043796809681343CB617B681B6878
:102470001B6823F0C0017B68DA697B681B6A1A431A
:102480007B681B680A431A607B681B689B6823F49F
:10249000034323F0FF037A6811697A68D268114315
:1024A0007A6812680B4393607B681B68DB6823F0D3
:1024B000FF017B685A697B689B691A437B681B68CC
:1024C0000A43DA607B681B681A687B681B6842F005
:1024D00001021A607B6800221A647B68202283F85C
:1024E0003D207B6800221A637B68002283F83E202F
:1024F000002318461037BD4680BD00BFA0860100EE
:102500007F841E00FF083D0083DE1B43D34D621015
:1025100080B588B002AFF8607A601A460B467B81BE
:1025200013463B81FFF732FC7861FB6893F83D303E
:10253000DBB2202B40F0E0807B690093192301225D
:102540007049F86800F04EFF0346002B01D00223CB
:10255000D3E0FB6893F83C30012B01D10223CCE09F
:10256000FB68012283F83C20FB681B681B6803F0B2
:102570000103012B07D0FB681B681A68FB681B6806
:1025800042F001021A60FB681B681A68FB681B684E
:1025900022F400621A60FB68212283F83D20FB6868
:1025A000102283F83E20FB6800221A64FB687A68D8
:1025B0005A62FB683A895A85FB685B8D9AB2FB6860
:1025C0001A85FB68504ADA6279897B693A6AF86849
:1025D00000F00CFD0346002B01D001238DE0002309
:1025E0003B61FB681B685B693B61FB681B689B691F
:1025F0003B613B6966E07A69396AF86800F0C8FFB8
:102600000346002B0DD0FB681B6C042B07D1FB6825
:102610001B681A68FB681B6842F400721A60012389
:102620006BE0FB685B6A1A78FB681B681A61FB68E1
:102630005B6A5A1CFB685A62FB685B8D9BB2013B6C
:102640009AB2FB685A85FB681B8D013B9AB2FB6806
:102650001A85FB681B685B6903F00403042B1BD11C
:10266000FB681B8D002B17D0FB685B6A1A78FB6830
:102670001B681A61FB685B6A5A1CFB685A62FB683C
:102680005B8D9BB2013B9AB2FB685A85FB681B8D40
:10269000013B9AB2FB681A857A69396AF86800F0DA
:1026A000B8FF0346002B0DD0FB681B6C042B07D131
:1026B000FB681B681A68FB681B6842F400721A60AA
:1026C00001231AE0FB681B8D002B94D1FB681B686B
:1026D0001A68FB681B6842F400721A60FB682022CB
:1026E00083F83D20FB68002283F83E20FB6800222F
:1026F00083F83C20002300E0022318461837BD462B
:1027000080BD00BF020010000000FFFF80B58CB04C
:1027100002AFF8607A601A460B467B8113463B8114
:10272000FFF734FB7862FB6893F83D30DBB2202B77
:1027300040F019827B6A0093192301227F49F868CF
:1027400000F050FE0346002B01D002230CE2FB6890
:1027500093F83C30012B01D1022305E2FB680122F2
:1027600083F83C20FB681B681B6803F00103012B06
:1027700007D0FB681B681A68FB681B6842F00102FF
:102780001A60FB681B681A68FB681B6822F4006209
:102790001A60FB68222283F83D20FB68102283F830
:1027A0003E20FB6800221A64FB687A685A62FB6864
:1027B0003A895A85FB685B8D9AB2FB681A85FB687B
:1027C0005F4ADA6279897B6A3A6BF86800F084FCC8
:1027D0000346002B01D00123C6E1FB681B8D002BB3
:1027E00013D100233B62FB681B685B693B62FB689B
:1027F0001B689B693B623B6AFB681B681A68FB6845
:102800001B6842F400721A609AE1FB681B8D012B71
:102810001ED1FB681B681A68FB681B6822F4806283
:102820001A6072B600BF0023FB61FB681B685B691E
:10283000FB61FB681B689B69FB61FB69FB681B68AC
:102840001A68FB681B6842F400721A6062B635E0D1
:10285000FB681B8D022B1ED1FB681B681A68FB6886
:102860001B6842F400621A6072B600BF0023BB61AD
:10287000FB681B685B69BB61FB681B689B69BB618C
:10288000BB69FB681B681A68FB681B6822F48062DE
:102890001A6062B612E0FB681B681A68FB681B6866
:1028A00042F480621A6000237B61FB681B685B69ED
:1028B0007B61FB681B689B697B617B6940E1FB680E
:1028C0001B8D032B00F2F980FB681B8D012B23D19C
:1028D0007A6A396BF86800F0DDFE0346002B01D000
:1028E000012341E1FB681B681A69FB685B6AD2B28D
:1028F0001A70FB685B6A5A1CFB685A62FB681B8D86
:10290000013B9AB2FB681A85FB685B8D9BB2013B69
:102910009AB2FB685A8513E1FB681B8D022B52D1DA
:102920007B6A00933B6B00220649F86800F05AFD71
:102930000346002B08D0012316E100BF020010005F
:102940000000FFFF0400010072B600BFFB681B68B7
:102950001A68FB681B6842F400721A60FB681B6807
:102960001A69FB685B6AD2B21A70FB685B6A5A1C10
:10297000FB685A62FB681B8D013B9AB2FB681A85A3
:10298000FB685B8D9BB2013B9AB2FB685A8562B6CD
:1029900000BFFB681B681A69FB685B6AD2B21A70D9
:1029A000FB685B6A5A1CFB685A62FB681B8D013B23
:1029B0009AB2FB681A85FB685B8D9BB2013B9AB2A9
:1029C000FB685A85BCE07B6A00933B6B0022684938
:1029D000F86800F007FD0346002B01D00123C3E097
:1029E000FB681B681A68FB681B6822F480621A6027
:1029F00072B600BFFB681B681A69FB685B6AD2B2DB
:102A00001A70FB685B6A5A1CFB685A62FB681B8D74
:102A1000013B9AB2FB681A85FB685B8D9BB2013B58
:102A20009AB2FB685A857B6A00933B6B002250493F
:102A3000F86800F0D7FC0346002B01D0012393E097
:102A4000FB681B681A68FB681B6842F400721A6016
:102A5000FB681B681A69FB685B6AD2B21A70FB6874
:102A60005B6A5A1CFB685A62FB681B8D013B9AB279
:102A7000FB681A85FB685B8D9BB2013B9AB2FB68D1
:102A80005A8562B600BFFB681B681A69FB685B6AFF
:102A9000D2B21A70FB685B6A5A1CFB685A62FB6808
:102AA0001B8D013B9AB2FB681A85FB685B8D9BB25C
:102AB000013B9AB2FB685A8542E07A6A396BF86842
:102AC00000F0E8FD0346002B01D001234CE0FB6839
:102AD0001B681A69FB685B6AD2B21A70FB685B6A92
:102AE0005A1CFB685A62FB681B8D013B9AB2FB685B
:102AF0001A85FB685B8D9BB2013B9AB2FB685A85D5
:102B0000FB681B685B6903F00403042B18D1FB68A6
:102B10001B681A69FB685B6AD2B21A70FB685B6A51
:102B20005A1CFB685A62FB681B8D013B9AB2FB681A
:102B30001A85FB685B8D9BB2013B9AB2FB685A8594
:102B4000FB681B8D002B7FF4BAAEFB68202283F854
:102B50003D20FB68002283F83E20FB68002283F8BA
:102B60003C20002300E0022318462837BD4680BDE4
:102B70000400010080B58CB002AFF8600846114631
:102B80001A4603467B810B463B811346FB80FFF7C9
:102B9000FDF87862FB6893F83D30DBB2202B40F003
:102BA0001E827B6A0093192301228249F86800F093
:102BB00019FC0346002B01D0022311E2FB6893F8B5
:102BC0003C30012B01D102230AE2FB68012283F889
:102BD0003C20FB681B681B6803F00103012B07D036
:102BE000FB681B681A68FB681B6842F001021A60E8
:102BF000FB681B681A68FB681B6822F400621A6095
:102C0000FB68222283F83D20FB68402283F83E20A7
:102C1000FB6800221A64FB683A6B5A62FB68BA8E42
:102C20005A85FB685B8D9AB2FB681A85FB68624A1D
:102C3000DA62F8883A8979897B6A0193BB6B0093E1
:102C40000346F86800F0FEFA0346002B01D001238A
:102C5000C6E1FB681B8D002B13D100233B62FB6890
:102C60001B685B693B62FB681B689B693B623B6A54
:102C7000FB681B681A68FB681B6842F400721A60E4
:102C80009AE1FB681B8D012B1ED1FB681B681A683B
:102C9000FB681B6822F480621A6072B600BF0023D2
:102CA000FB61FB681B685B69FB61FB681B689B69D8
:102CB000FB61FB69FB681B681A68FB681B6842F4D0
:102CC00000721A6062B635E0FB681B8D022B1ED1C4
:102CD000FB681B681A68FB681B6842F400621A6094
:102CE00072B600BF0023BB61FB681B685B69BB61F8
:102CF000FB681B689B69BB61BB69FB681B681A6842
:102D0000FB681B6822F480621A6062B612E0FB68FE
:102D10001B681A68FB681B6842F480621A60002313
:102D20007B61FB681B685B697B61FB681B689B6957
:102D30007B617B6940E1FB681B8D032B00F2F9800E
:102D4000FB681B8D012B23D17A6AB96BF86800F000
:102D5000A1FC0346002B01D0012341E1FB681B6865
:102D60001A69FB685B6AD2B21A70FB685B6A5A1C0C
:102D7000FB685A62FB681B8D013B9AB2FB681A859F
:102D8000FB685B8D9BB2013B9AB2FB685A8513E1ED
:102D9000FB681B8D022B52D17B6A0093BB6B002218
:102DA0000649F86800F01EFB0346002B08D00123FB
:102DB00016E100BF020010000000FFFF0400010048
:102DC00072B600BFFB681B681A68FB681B6842F498
:102DD00000721A60FB681B681A69FB685B6AD2B2F2
:102DE0001A70FB685B6A5A1CFB685A62FB681B8D91
:102DF000013B9AB2FB681A85FB685B8D9BB2013B75
:102E00009AB2FB685A8562B600BFFB681B681A69F4
:102E1000FB685B6AD2B21A70FB685B6A5A1CFB687B
:102E20005A62FB681B8D013B9AB2FB681A85FB68EE
:102E30005B8D9BB2013B9AB2FB685A85BCE07B6A12
:102E40000093BB6B00226849F86800F0CBFA034698
:102E5000002B01D00123C3E0FB681B681A68FB68E4
:102E60001B6822F480621A6072B600BFFB681B68A0
:102E70001A69FB685B6AD2B21A70FB685B6A5A1CFB
:102E8000FB685A62FB681B8D013B9AB2FB681A858E
:102E9000FB685B8D9BB2013B9AB2FB685A857B6AEB
:102EA0000093BB6B00225049F86800F09BFA034680
:102EB000002B01D0012393E0FB681B681A68FB68B4
:102EC0001B6842F400721A60FB681B681A69FB6891
:102ED0005B6AD2B21A70FB685B6A5A1CFB685A6262
:102EE000FB681B8D013B9AB2FB681A85FB685B8D02
:102EF0009BB2013B9AB2FB685A8562B600BFFB6881
:102F00001B681A69FB685B6AD2B21A70FB685B6A5D
:102F10005A1CFB685A62FB681B8D013B9AB2FB6826
:102F20001A85FB685B8D9BB2013B9AB2FB685A85A0
:102F300042E07A6AB96BF86800F0ACFB0346002BFC
:102F400001D001234CE0FB681B681A69FB685B6ACF
:102F5000D2B21A70FB685B6A5A1CFB685A62FB6843
:102F60001B8D013B9AB2FB681A85FB685B8D9BB297
:102F7000013B9AB2FB685A85FB681B685B6903F0EA
:102F80000403042B18D1FB681B681A69FB685B6A91
:102F9000D2B21A70FB685B6A5A1CFB685A62FB6803
:102FA0001B8D013B9AB2FB681A85FB685B8D9BB257
:102FB000013B9AB2FB685A85FB681B8D002B7FF49E
:102FC000BAAEFB68202283F83D20FB68002283F81C
:102FD0003E20FB68002283F83C20002300E002230F
:102FE00018462837BD4680BD0400010080B588B072
:102FF00002AFF8607A603B600B467B81FB68DB6A5E
:103000007B617B69082B06D07B69012B03D07B6930
:1030100013F5803F08D1FB681B681A68FB681B68C2
:1030200042F480721A600BE0FB681B6B122B07D115
:10303000FB681B681A68FB681B6842F480721A60A0
:103040003B6800937B6800224FF00111F86800F0A4
:10305000C9F90346002B01D0012335E0FB681B6949
:10306000B3F5804F08D17B89DBB21A46FB681B6839
:1030700002F0FE021A611BE07B89DB11DBB203F078
:103080000603DBB263F00F03DAB2FB681B681A6158
:103090003B687A680E49F86800F0FBF90346002B9C
:1030A00001D0012310E07B89DAB2FB681B681A614A
:1030B0003B687A680749F86800F0EBF90346002B93
:1030C00001D0012300E0002318461837BD4680BD1B
:1030D000080001000200010080B588B002AFF8606E
:1030E0007A603B600B467B81FB68DB6A7B61FB6837
:1030F0001B681A68FB681B6842F480621A607B696F
:10310000082B06D07B69012B03D07B6913F5803F28
:1031100008D1FB681B681A68FB681B6842F4807260
:103120001A600BE0FB681B6B112B07D1FB681B6857
:103130001A68FB681B6842F480721A603B6800934F
:103140007B6800224FF00111F86800F04BF903464C
:10315000002B01D001236DE0FB681B69B3F5804FA4
:1031600008D17B89DBB243F00103DAB2FB681B684C
:103170001A6153E07B89DB11DBB203F00603DBB29B
:1031800063F00F03DAB2FB681B681A613B687A6868
:103190002A49F86800F07DF90346002B01D001238D
:1031A00048E07B89DAB2FB681B681A613B687A6881
:1031B0002349F86800F06DF90346002B01D0012384
:1031C00038E000233B61FB681B685B693B61FB687F
:1031D0001B689B693B613B69FB681B681A68FB685D
:1031E0001B6842F480721A603B6800937B6800227F
:1031F0004FF00111F86800F0F5F80346002B01D0FC
:10320000012317E07B89DB11DBB203F00603DBB29D
:1032100063F00E03DAB2FB681B681A613B687A68D8
:103220000749F86800F035F90346002B01D0012367
:1032300000E0002318461837BD4680BD0800010095
:103240000200010080B588B002AFF8600846114660
:103250001A4603467B810B463B811346FB80FB6885
:103260001B681A68FB681B6842F480621A60FB687E
:103270001B681A68FB681B6842F480721A607B6ADC
:1032800000933B6A00224FF00111F86800F0AAF8A1
:103290000346002B01D001239EE07B89DBB21A4656
:1032A000FB681B6802F0FE021A617B6A3A6A4C49AD
:1032B000F86800F0EEF80346002B01D001238BE004
:1032C00000237B61FB681B685B697B61FB681B6893
:1032D0009B697B617B697A6A396AF86800F058F902
:1032E0000346002B0DD0FB681B6C042B07D1FB6839
:1032F0001B681A68FB681B6842F400721A6001239D
:103300006AE0FB88012B05D13B89DAB2FB681B68B8
:103310001A6121E03B891B0A9BB2DAB2FB681B6889
:103320001A617A6A396AF86800F032F90346002BAC
:103330000DD0FB681B6C042B07D1FB681B681A6857
:10334000FB681B6842F400721A60012344E03B8969
:10335000DAB2FB681B681A617A6A396AF86800F0A9
:1033600017F90346002B0DD0FB681B6C042B07D10B
:10337000FB681B681A68FB681B6842F400721A60DD
:10338000012329E0FB681B681A68FB681B6842F48C
:1033900080721A607B6A00933B6A00224FF0011131
:1033A000F86800F01FF80346002B01D0012313E05A
:1033B0007B89DBB243F00103DAB2FB681B681A6158
:1033C0007B6A3A6A0649F86800F063F80346002B06
:1033D00001D0012300E0002318461837BD4680BD08
:1033E0000200010080B584B000AFF860B9603B60B6
:1033F0001346FB7125E03B68B3F1FF3F21D0FEF798
:10340000C5FC0246BB69D31A3A689A4202D33B68AC
:10341000002B16D1FB6800221A63FB68202283F878
:103420003D20FB68002283F83E20FB681B6C43F0C4
:103430002002FB681A64FB68002283F83C20012309
:1034400023E0BB681B0CDBB2012B0DD1FB681B68B2
:103450005B69DA43BB6813409BB2002B0CBF0123AE
:103460000023DBB21A460CE0FB681B689B69DA4359
:10347000BB6813409BB2002B0CBF01230023DBB2BF
:103480001A46FB799A42B6D0002318461037BD463B
:1034900080BD80B584B000AFF860B9607A603B60F1
:1034A00051E0FB681B685B6903F48063B3F5806FD0
:1034B00023D1FB681B681A68FB681B6842F4007222
:1034C0001A60FB681B686FF480625A61FB68002217
:1034D0001A63FB68202283F83D20FB68002283F8F2
:1034E0003E20FB681B6C43F00402FB681A64FB6817
:1034F000002283F83C20012346E07B68B3F1FF3FC4
:1035000021D0FEF743FC02463B68D31A7A689A4200
:1035100002D37B68002B16D1FB6800221A63FB687C
:10352000202283F83D20FB68002283F83E20FB68C0
:103530001B6C43F02002FB681A64FB68002283F8CE
:103540003C20012320E0BB681B0CDBB2012B0CD11B
:10355000FB681B685B69DA43BB6813409BB2002BB6
:1035600014BF01230023DBB20BE0FB681B689B69DF
:10357000DA43BB6813409BB2002B14BF0123002326
:10358000DBB2002B8DD1002318461037BD4680BD1D
:1035900080B584B000AFF860B9607A602DE0F8685B
:1035A00000F0CEF80346002B01D001232DE0BB68CC
:1035B000B3F1FF3F21D0FEF7E9FB02467B68D31A47
:1035C000BA689A4202D3BB68002B16D1FB6800226E
:1035D0001A63FB68202283F83D20FB68002283F8F1
:1035E0003E20FB681B6C43F02002FB681A64FB68FA
:1035F000002283F83C20012307E0FB681B685B691D
:1036000003F08003802BCAD1002318461037BD4633
:1036100080BD80B584B000AFF860B9607A602DE0FD
:10362000F86800F08DF80346002B01D001232DE04F
:10363000BB68B3F1FF3F21D0FEF7A8FB02467B68D1
:10364000D31ABA689A4202D3BB68002B16D1FB6822
:1036500000221A63FB68202283F83D20FB680022C9
:1036600083F83E20FB681B6C43F02002FB681A6461
:10367000FB68002283F83C20012307E0FB681B68FD
:103680005B6903F00403042BCAD1002318461037EA
:10369000BD4680BD80B584B000AFF860B9607A6087
:1036A00042E0FB681B685B6903F01003102B19D123
:1036B000FB681B686FF010025A61FB6800221A63F6
:1036C000FB68202283F83D20FB68002283F83E201F
:1036D000FB681A6CFB681A64FB68002283F83C20C4
:1036E000012329E0FEF752FB02467B68D31ABA6831
:1036F0009A4202D3BB68002B16D1FB6800221A63E2
:10370000FB68202283F83D20FB68002283F83E20DE
:10371000FB681B6C43F02002FB681A64FB68002204
:1037200083F83C20012307E0FB681B685B6903F01A
:103730004003402BB5D1002318461037BD4680BD4D
:1037400080B483B000AF78607B681B685B6903F46A
:103750008063B3F5806F1BD17B681B686FF4806258
:103760005A617B6800221A637B68202283F83D201F
:103770007B68002283F83E207B681B6C43F00402C8
:103780007B681A647B68002283F83C20012300E0F8
:10379000002318460C37BD4680BC704780B586B004
:1037A00000AF78607B68002B01D1012372E27B6857
:1037B0001B6803F00103002B00F08780924B5B68CD
:1037C00003F00C03042B0CD08F4B5B6803F00C034D
:1037D000082B12D18C4B5B6803F48033B3F5803F28
:1037E0000BD1894B1B6803F40033002B6CD07B6832
:1037F0005B68002B68D101234CE27B685B68B3F502
:10380000803F06D1804B1B687F4A43F480331360AE
:103810002EE07B685B68002B0CD17B4B1B687A4ADF
:1038200023F480331360784B1B68774A23F480239A
:1038300013601DE07B685B68B3F5A02F0CD1724B61
:103840001B68714A43F4802313606F4B1B686E4AF8
:1038500043F4803313600BE06B4B1B686A4A23F41C
:1038600080331360684B1B68674A23F4802313601E
:103870007B685B68002B13D0FEF788FA386108E09C
:10388000FEF784FA02463B69D31A642B01D903235D
:1038900000E25D4B1B6803F40033002BF0D014E012
:1038A000FEF774FA386108E0FEF770FA02463B69E9
:1038B000D31A642B01D90323ECE1534B1B6803F4A7
:1038C0000033002BF0D100E000BF7B681B6803F0E1
:1038D0000203002B63D04C4B5B6803F00C03002BFE
:1038E0000BD0494B5B6803F00C03082B1CD1464BF3
:1038F0005B6803F48033002B16D1434B1B6803F045
:103900000203002B05D07B681B69012B01D001232A
:10391000C0E13D4B1B6823F0F8027B685B69DB006C
:10392000394913430B603AE07B681B69002B20D0B8
:10393000364B01221A60FEF729FA386108E0FEF7DB
:1039400025FA02463B69D31A022B01D90323A1E1D0
:103950002D4B1B6803F00203002BF0D02A4B1B6891
:1039600023F0F8027B685B69DB00274913430B6097
:1039700015E0264B00221A60FEF708FA386108E0CD
:10398000FEF704FA02463B69D31A022B01D903233E
:1039900080E11D4B1B6803F00203002BF0D17B6814
:1039A0001B6803F00803002B3AD07B689B69002B4F
:1039B00019D0174B01221A60FEF7E8F9386108E0C8
:1039C000FEF7E4F902463B69D31A022B01D903231F
:1039D00060E10D4B5B6A03F00203002BF0D0012085
:1039E00000F0D8FA1CE00A4B00221A60FEF7CEF96C
:1039F00038610FE0FEF7CAF902463B69D31A022B81
:103A000008D9032346E100BF0010024000004242F3
:103A100080044242924B5B6A03F00203002BE9D11F
:103A20007B681B6803F00403002B00F0A6800023D2
:103A3000FB758B4BDB6903F08053002B0DD1884B5A
:103A4000DB69874A43F08053D361854BDB6903F020
:103A50008053BB60BB680123FB75824B1B6803F47A
:103A60008073002B18D17F4B1B687E4A43F4807310
:103A70001360FEF78BF9386108E0FEF787F902461C
:103A80003B69D31A642B01D9032303E1754B1B68EF
:103A900003F48073002BF0D07B68DB68012B06D128
:103AA0006F4B1B6A6E4A43F0010313622DE07B6883
:103AB000DB68002B0CD16A4B1B6A694A23F00103B7
:103AC0001362674B1B6A664A23F0040313621CE00F
:103AD0007B68DB68052B0CD1614B1B6A604A43F0A5
:103AE000040313625E4B1B6A5D4A43F001031362D9
:103AF0000BE05B4B1B6A5A4A23F001031362584BDD
:103B00001B6A574A23F0040313627B68DB68002BAF
:103B100015D0FEF73BF938610AE0FEF737F90246A7
:103B20003B69D31A41F28832934201D90323B1E0B1
:103B30004B4B1B6A03F00203002BEED014E0FEF7A0
:103B400025F938610AE0FEF721F902463B69D31AEC
:103B500041F28832934201D903239BE0404B1B6A18
:103B600003F00203002BEED1FB7D012B05D13C4B72
:103B7000DB693B4A23F08053D3617B68DB69002B10
:103B800000F08780364B5B6803F00C03082B61D094
:103B90007B68DB69022B46D1334B00221A60FEF7AB
:103BA000F5F8386108E0FEF7F1F802463B69D31AF0
:103BB000022B01D903236DE0294B1B6803F000732E
:103BC000002BF0D17B681B6AB3F5803F08D1244BF2
:103BD0005B6823F400327B689B68214913434B6088
:103BE0001F4B5B6823F474127B68196A7B685B6AFD
:103BF0000B431B4913434B601B4B01221A60FEF71A
:103C0000C5F8386108E0FEF7C1F802463B69D31AEF
:103C1000022B01D903233DE0114B1B6803F0007315
:103C2000002BF0D035E0104B00221A60FEF7AEF802
:103C3000386108E0FEF7AAF802463B69D31A022B66
:103C400001D9032326E0064B1B6803F00073002B09
:103C5000F0D11EE07B68DB69012B07D1012319E05D
:103C60000010024000700040600042420B4B5B6855
:103C7000FB60FB6803F480327B681B6A9A4206D1C2
:103C8000FB6803F470127B685B6A9A4201D00123DF
:103C900000E0002318461837BD4680BD00100240E2
:103CA00080B584B000AF786039607B68002B01D1AB
:103CB0000123D0E06A4B1B6803F007033A689A427D
:103CC00010D9674B1B6823F0070265493B68134313
:103CD0000B60634B1B6803F007033A689A4201D0FC
:103CE0000123B8E07B681B6803F00203002B20D09F
:103CF0007B681B6803F00403002B05D0594B5B68FD
:103D0000584A43F4E06353607B681B6803F0080380
:103D1000002B05D0534B5B68524A43F46053536009
:103D2000504B5B6823F0F0027B689B684D4913435E
:103D30004B607B681B6803F00103002B40D07B685D
:103D40005B68012B07D1474B1B6803F40033002B42
:103D500015D101237FE07B685B68022B07D1414BC3
:103D60001B6803F00073002B09D1012373E03D4B66
:103D70001B6803F00203002B01D101236BE0394BD8
:103D80005B6823F003027B685B68364913434B6032
:103D9000FDF7FCFFF8600AE0FDF7F8FF0246FB685C
:103DA000D31A41F28832934201D9032353E02D4BB9
:103DB0005B6803F00C027B685B689B009A42EBD166
:103DC000274B1B6803F007033A689A4210D2244B32
:103DD0001B6823F0070222493B6813430B60204B0A
:103DE0001B6803F007033A689A4201D0012332E0CE
:103DF0007B681B6803F00403002B08D0194B5B6839
:103E000023F4E0627B68DB68164913434B607B68F0
:103E10001B6803F00803002B09D0124B5B6823F4E6
:103E200060527B681B69DB000E4913434B6000F056
:103E300021F802460B4B5B681B0903F00F030A498C
:103E4000CB5C22FA03F3094A1360094B1B6818463E
:103E5000FDF75AFF002318461037BD4680BD00BF4E
:103E60000020024000100240345C000800000020E6
:103E70000400002090B48AB000AF294B3C1D0FCB4A
:103E800084E80F0040F201233B800023FB61002304
:103E9000BB6100237B6200237B6100233B62214BDB
:103EA0005B68FB61FB6903F00C03042B02D0082B59
:103EB00003D02BE01C4B3B622BE0FB699B0C03F017
:103EC0000F0328333B4413F8243C7B61FB6903F464
:103ED0008033002B12D0134B5B685B0C03F00103A3
:103EE00028333B4413F8283CBB617B690E4A03FB33
:103EF00002F2BB69B2FBF3F37B6204E07B690B4A1D
:103F000002FB03F37B627B6A3B6202E0064B3B628F
:103F100000BF3B6A18462837BD4690BC704700BFBB
:103F20001C5C00080010024000127A0000093D00ED
:103F300080B400AF024B1B681846BD4680BC70477A
:103F40000000002080B500AFFFF7F2FF0246054BEE
:103F50005B681B0A03F007030349CB5C22FA03F3F7
:103F6000184680BD00100240445C000880B500AFD8
:103F7000FFF7DEFF0246054B5B68DB0A03F0070331
:103F80000349CB5C22FA03F3184680BD00100240BF
:103F9000445C000880B485B000AF78600A4B1B68B1
:103FA0000A4AA2FB03235B0A7A6802FB03F3FB6065
:103FB00000BFFB685A1EFA60002BF9D100BF00BF9A
:103FC0001437BD4680BC704700000020D34D6210FE
:103FD00080B582B000AF78607B68002B01D10123EF
:103FE0003FE07B6893F83930DBB2002B06D17B6869
:103FF000002283F838207868FDF768FD7B6824226A
:1040000083F839207B681B68DA687B681B6822F4B8
:104010000052DA60786800F00BF97B681B681A6957
:104020007B681B6822F490421A617B681B685A699E
:104030007B681B6822F02A025A617B681B68DA6879
:104040007B681B6842F40052DA607B680022DA6306
:104050007B68202283F839207B68202283F83A206D
:10406000002318460837BD4680BD80B588B002AF32
:10407000F860B9603B601346FB8000237B61FB68FE
:1040800093F83930DBB2202B40F08380BB68002BE3
:1040900002D0FB88002B01D101237BE0FB6893F861
:1040A0003830012B01D1022374E0FB68012283F830
:1040B0003820FB680022DA63FB68212283F839206C
:1040C000FDF764FE7861FB68FA889A84FB68FA88D9
:1040D000DA8442E0FB68DB8C9BB2013B9AB2FB685E
:1040E000DA84FB689B68B3F5805F22D13B6800935C
:1040F0007B6900228021F86800F050F80346002B0D
:1041000001D0032346E0BB683B613B691B881A462C
:10411000FB681B68C2F308025A60FB681B69002B2E
:1041200003D1BB680233BB6017E0BB680133BB60DF
:1041300013E03B6800937B6900228021F86800F05F
:104140002DF80346002B01D0032323E0BB685A1C43
:10415000BA601A78FB681B685A60FB68DB8C9BB2FC
:10416000002BB7D13B6800937B6900224021F8689F
:1041700000F014F80346002B01D003230AE0FB688B
:10418000202283F83920FB68002283F8382000239E
:1041900000E0022318461837BD4680BD80B584B0C4
:1041A00000AFF860B9603B601346FB712CE0BB695F
:1041B000B3F1FF3F28D0BB69002B07D0FDF7E6FD28
:1041C00002463B68D31ABA699A421DD2FB681B6843
:1041D000DA68FB681B6822F4D072DA60FB681B683F
:1041E0005A69FB681B6822F001025A61FB682022B1
:1041F00083F83920FB68202283F83A20FB680022EC
:1042000083F8382003230FE0FB681B681A68BB683B
:104210001340BA689A420CBF01230023DBB21A464E
:10422000FB799A42C3D0002318461037BD4680BDA3
:1042300080B584B000AF78607B681B681B6923F48D
:1042400040517B68DA687B681B680A431A617B68A7
:104250009A687B681B691A437B685B691343FB6040
:104260007B681B68DB6823F4B05323F00C037A6887
:104270001268F9680B43D3607B681B685B6923F4A1
:1042800040717B689A697B681B680A435A617B6846
:104290001B68524A93424ED1FFF768FEB860BA6875
:1042A00013469B0013449A001A447B685B689B008A
:1042B000B2FBF3F34A4AA2FB03235B091901BA6874
:1042C00013469B0013449A001A447B685B689B006A
:1042D000B2FBF3F2424BA3FB02035B09642000FB39
:1042E00003F3D31A1B0132333D4AA2FB03235B09BC
:1042F00003F0F0031944BA6813469B0013449A0074
:104300001A447B685B689B00B2FBF3F2344BA3FB5F
:1043100002035B09642000FB03F3D31A1B01323351
:104320002F4AA2FB03235B0903F00F027B681B6883
:104330000A449A604DE0FFF705FEB860BA6813467C
:104340009B0013449A001A447B685B689B00B2FB95
:10435000F3F3234AA2FB03235B091901BA6813464E
:104360009B0013449A001A447B685B689B00B2FB75
:10437000F3F21B4BA3FB02035B09642000FB03F376
:10438000D31A1B013233164AA2FB03235B0903F045
:10439000F0031944BA6813469B0013449A001A4468
:1043A0007B685B689B00B2FBF3F20D4BA3FB02033F
:1043B0005B09642000FB03F3D31A1B013233084A64
:1043C000A2FB03235B0903F00F027B681B680A440E
:1043D0009A6000BF1037BD4680BD00BF0038014065
:1043E0001F85EB510EB46FF0004110B500249DB055
:1043F0001FAB02900690079104910948094953F8B0
:10440000042B0591006802A901931B9400F092F916
:10441000029B1C701DB0BDE8104003B0704700BF88
:104420000C0000200802FFFF03460244934200D123
:10443000704703F8011BF9E7014B1868704700BF8C
:104440000C00002070B500260C4D0D4C641BA41010
:10445000A64209D101F080FB00260A4D0A4C641BDC
:10446000A410A64205D170BD55F8043B984701360B
:10447000EEE755F8043B98470136F2E7C85C0008C0
:10448000C85C0008C85C0008CC5C00087047704736
:1044900038B50546002940D051F8043C0C1F002BCC
:1044A000B8BFE41800F0DEF81C4A136833B9636043
:1044B00014602846BDE8384000F0DAB8A34208D9B5
:1044C000206821188B4201BF19685B6809182160B8
:1044D000EDE71A465B680BB1A342FAD91168501890
:1044E000A0420BD120680144501883421160E0D1F2
:1044F00018685B68084410605360DAE702D90C233F
:104500002B60D6E7206821188B4201BF19685B68D1
:104510000918216063605460CBE738BD00030020B8
:1045200070B50F4E0C463168054611B900F0A8FB76
:1045300030602146284600F0A3FB431C03D14FF016
:10454000FF34204670BDC41C24F00304A042F8D000
:10455000211A284600F094FB0130F2D1EFE700BFAA
:10456000FC0200202DE9F843CD1C25F00305083599
:104570000C2D38BF0C25002D064601DBA94204D9BD
:104580000C2333600020BDE8F883DFF8D48000F00E
:1045900069F8D8F800301C4644BB29463046FFF77E
:1045A000BFFF431C044658D1D8F800402746002FCF
:1045B00043D1002C4BD023683946304604EB030925
:1045C00000F05EFB814542D1216830466D1A2946D4
:1045D000FFF7A6FF01303AD023682B442360D8F8B8
:1045E00000305A6862BBC8F800700FE02268521BA6
:1045F00020D40B2A17D96119A342256018BF59602E
:10460000636808BFC8F8001062514B60304600F084
:104610002FF804F10B00231D20F00700C21A1CBF65
:104620001B1AA350AFE76268A3420CBFC8F8002072
:104630005A60EBE723466468AEE73C467F68B6E71E
:104640001A465B68A342FBD100235360DEE70C23CC
:104650003046336000F00CF894E70560D6E700BF01
:10466000000300200148FFF711BF00BFF80200203F
:104670000148FFF70CBF00BFF80200202DE9F0470A
:104680001F468E688246BE420C4690460B682DD867
:10469000B1F90C2012F4906F26D06569096905EB19
:1046A0004505A3EB010905EBD5757B1C4B446D104B
:1046B0009D4238BF1D46530527D52946FFF752FFB7
:1046C000064660B34A46216900F0F8FAA38923F44C
:1046D000906343F08003A38126614E4426603E46EA
:1046E0006561A5EB0905A560BE4200D93E4632468C
:1046F0004146206800F0AAFA0020A3689B1BA36033
:10470000236833442360BDE8F0872A4600F0E4FACA
:1047100006460028E0D150462169FFF7B9FE0C2378
:10472000CAF80030A3894FF0FF3043F04003A38163
:10473000E9E700002DE9F04F98468B8907461B06F4
:104740000D4614469DB010D50B6973B94021FFF793
:1047500009FF2860286130B90C233B604FF0FF301F
:104760001DB0BDE8F08F40236B6100230993202327
:104770008DF8293030234FF00109CDF80C80DFF897
:1047800098818DF82A3023469A4613F8012B0AB1F6
:10479000252AF9D1BAEB040B0BD05B4622462946F9
:1047A0003846FFF76BFF013000F0A780099A5A44A2
:1047B00009929AF80030002B00F09F8000234FF000
:1047C000FF32CDE905230AF1010A049307938DF81E
:1047D00053301A935446052214F8011B4E4800F03A
:1047E0005FFA049AD8B9D00644BF20238DF853301D
:1047F000110744BF2B238DF853309AF800302A2B31
:1048000015D0544600204FF00A0C079A214611F8A3
:10481000013B303B092B4BD9B0B1079214E0A0EB20
:10482000080309FA03F31343A2460493D2E7039B58
:10483000191D1B680391002BBBBF5B4242F00202B3
:1048400007930793B8BF049223782E2B0AD163787D
:104850002A2B32D1039B02341A1D1B68039243EAB0
:10486000E3730593DFF8B4A003225046217800F0EB
:1048700017FA38B14022049BA0EB0A008240134390
:104880000134049314F8011B062225488DF82810E2
:1048900000F006FA002836D0224B1BBB039B0733DF
:1048A00023F0070308330393099B334409936AE712
:1048B0000C4601200CFB0232A8E700234FF00A0C43
:1048C000194601340593204610F8012B303A092A85
:1048D00003D9002BC6D00591C4E7044601230CFB85
:1048E0000121F0E703AB00932A4638460E4B04A99A
:1048F000AFF30080421C0646D6D1AB895B063FF57C
:104900002DAF09982CE703AB00932A463846064B97
:1049100004A900F07DF8EDE74C5C0008525C00084B
:10492000565C0008000000007D4600082DE9F047B5
:10493000164698468A680B6907469342B8BF1346E5
:10494000336091F843200C46DDF820900AB1013322
:1049500033602368990642BF3368023333602568A9
:1049600015F0060506D104F1190AE36832689B1AAE
:10497000AB422BDC94F843302268003B18BF012384
:10498000920630D44146384604F14302C84701300C
:1049900023D02368226903F00603042B14BF0025EB
:1049A00033684FF0000608BFE56804F11A0408BF39
:1049B000ED1A54F8123C08BF25EAE5759342C4BFCE
:1049C0009B1AED18B5421AD1002008E00123524687
:1049D00041463846C847013003D14FF0FF30BDE8AB
:1049E000F0870135C1E73020E11881F843005A1CF7
:1049F00094F845102244023382F84310C2E70123A1
:104A0000224641463846C8470130E6D00136D9E74C
:104A10002DE9FF470F7E9146782F80460C469A4637
:104A20000C9E01F1430207D8622F0AD8002F00F034
:104A3000D180582F00F0B88004F1420684F842700B
:104A40003AE0A7F16303152BF6D801A151F823F042
:104A5000A94A0008BD4A0008394A0008394A000836
:104A6000394A0008394A0008BD4A0008394A000896
:104A7000394A0008394A0008394A0008BB4B000887
:104A8000E74A0008754B0008394A0008394A00080F
:104A9000DD4B0008394A0008E74A0008394A000897
:104AA000394A00087D4B000833681A1D1B683260C4
:104AB00004F1420684F8423001239CE03368206808
:104AC000191D3160060601D51D6803E04506FBD5BA
:104AD000B3F90050002D03DA2D236D4284F84330E2
:104AE0000A23584811E021683368080653F8045B2C
:104AF00002D4490648BFADB26F2F336014BF0A23FA
:104B000008235048002184F843106668002EA660F0
:104B100005DB21682E4321F0040121604BD01646AD
:104B2000B5FBF3F103FB1157C75D06F8017D2F4676
:104B3000BB420D46F4D9082B0BD12368DF0708D5FB
:104B4000236961689942DEBF302306F8013C06F113
:104B5000FF36921B22614B4621464046CDF800A00D
:104B600003AAFFF7E3FE01304AD14FF0FF3004B053
:104B7000BDE8F087236843F020032360782732489C
:104B800084F84570236831681F0651F8045B02D42D
:104B90005F0648BFADB23160D90744BF43F0200380
:104BA00023601DB11023ADE72648E9E7236823F011
:104BB00020032360F6E71646BDE733682568181D15
:104BC000616930602E061B6801D5196002E0680635
:104BD000FBD51980002316462361BCE7336800210A
:104BE0001A1D32601E686268304600F059F808B13C
:104BF000801B606063682361002384F84330AAE768
:104C00003246494640462369D0470130ADD023683B
:104C10009B0713D4E068039B9842B8BF1846A6E7E9
:104C20000123324649464046D04701309DD00135E8
:104C3000E36803995B1AAB42F2DCEBE7002504F171
:104C40001906F5E75D5C00086E5C0008884210B547
:104C500001EB020402D98442234607D8431EA14235
:104C600008D011F8012B03F8012FF8E701460244A0
:104C70008A4200D110BD13F8014D02F8014DF7E74B
:104C800038B50023054D044608462B60FCF796FF17
:104C9000431C02D12B6803B1236038BDF40200200D
:104CA000034610B5C9B202449342184601D1002010
:104CB00003E0047801338C42F6D110BD0A449142DE
:104CC00000F1FF3300D1704710B511F8014B91424C
:104CD00003F8014FF9D110BD2DE9F0410746144604
:104CE0000D4621B91146BDE8F041FFF73BBC2AB99A
:104CF000FFF7CEFB25462846BDE8F08100F01AF804
:104D00008442064602D8B4EB500FF4D82146384608
:104D1000FFF728FC804608B94546ECE7B442224636
:104D2000294628BF3246FFF7C9FF29463846FFF714
:104D3000AFFBF1E751F8043C181F002BBCBF0B5828
:104D4000C01870472DE9F84314461D468046894631
:104D500000F066F8224606460F462B4620462946B6
:104D6000FBF754FEC8BB0022002340464946FBF730
:104D70001BFEB8B10022002320462946FBF714FE93
:104D8000002841D12046294600F044F828B30022EB
:104D9000002320462946FBF711FEF0B1FFF74CFB3C
:104DA000222319E03046394600F034F8C8B94046AD
:104DB000494600F02FF8A0B12046294600F02AF815
:104DC00078B132463B4630463946FBF71FFE002895
:104DD000E4D0FFF731FB2123036030463946BDE8BC
:104DE000F8830022002330463946FBF7DDFD00281A
:104DF000F3D04046494600F00DF80028EDD020469B
:104E0000294600F007F8C8E70026014FE5E700BF94
:104E10000000F03F41F0004000F58010C00F7047E7
:104E20002DE9F04F91B0CDE900238B46DDE9001864
:104E300028F00047824657EA010012D153468BF40E
:104E40000022DB1852419842934B934180F0CD846D
:104E5000DDE9002350465946FBF788F911B0BDE85B
:104E6000F08F8E4B2BF000459D425E46D1460BD80D
:104E700005D1BAF1000FEBD1AF42E9D801E09F4272
:104E800002D89F420FD171B106F1404606F5801657
:104E900056EA0906DCD1DDE90032DB1882F4002293
:104EA00052419E42D0E7002E2B4642DA7C4A97427E
:104EB00056D8A2F15472974240F2A6843A15A2F253
:104EC000FF32142A18DDC2F1340221FA02F404FA86
:104ED00002F28A4240F0988404F00104C4F1020412
:104EE000002959D1B8F1804F49D152465B4650460E
:104EF0005946FBF7F1FAB1E700294CD1C2F114028F
:104F000047FA02F404FA02F2BA4240F07A8404F05A
:104F10000104C4F10204634A9742E3D1B8F1000FDF
:104F200080F26B8452465B4600205E49FBF7FEFB35
:104F300094E7002481BB594A9742ECD105F14043E4
:104F400003F5801353EA090300F04F84564B9D424A
:104F500008D9B8F1000F80F24C84002000217DE7D1
:104F60000224E7E7B8F1000F4FF000004FF0000116
:104F7000BFF674AFDDE9000303F100416EE74B4A71
:104F8000904509D1002E07DB5046594611B0BDE8C7
:104F9000F04F00F00FBD002450465946029300F038
:104FA00069FC029BB9F1000F27D13E4A26F0404C24
:104FB000944500D00DBBB8F1000F05DA02460B4650
:104FC00000203849FBF7B2FB002EBFF647AF05F1D2
:104FD000404505F58015254308D102460B4610468D
:104FE0001946FBF7C1F802460B469FE7012C7FF4F8
:104FF00035AF01F10043194630E7F20F013A52EAAA
:10500000040C02D152465B46E9E74FF00009013C2F
:10501000144314BFDFF88CA0DFF894A0B7F1844FDD
:10502000CDE9029A40F20481224B9F421E4B13D9D4
:105030009D4208D8B8F1000F08DA002011B0BDE891
:10504000F04F00F0B1BCB8F1000FF6DC002011B059
:10505000BDE8F04F00F0A3BC9D420CD2DDE9020197
:1050600000220023FBF7AAFC003818BF0120B8F18A
:10507000000FECDAE2E70B4B00229D421CD9DDE980
:1050800002010023FBF79AFC003818BF0120B8F199
:10509000000FD3DCDBE700BF0000F0FF0000F07F73
:1050A000FFFF3F430000F03FFFFFEF3F0000E03F06
:1050B0000000F0BF0000F043594BFBF755F850A338
:1050C000D3E9002304460D46FBF706FA4EA3D3E9C5
:1050D000002306460F4620462946FBF7FDF900222D
:1050E00082468B46204629464E4BFBF7F5F9024691
:1050F0000B4647A1D1E90001FBF736F822462B46C3
:10510000FBF7EAF902460B4600204749FBF72CF86B
:105110002246804689462B4620462946FBF7DCF985
:1051200002460B4640464946FBF7D6F93AA3D3E977
:105130000023FBF7D1F902460B4650465946FBF7D0
:1051400013F8002402460B4680468946304639460D
:10515000FBF70CF832463B4620460D46FBF704F8B9
:1051600002460B4640464946FAF7FEFFDDE90023BA
:10517000CDE9042300230493DDE904AB06460F4682
:10518000DDE900015B465246FAF7EEFF22462B4668
:10519000FBF7A2F9DDE9002380468946304639460F
:1051A000FBF79AF902460B4640464946FAF7DEFFFE
:1051B0005B4606460F46524620462946FBF78CF9C9
:1051C0000B4602468046894630463946FAF7CEFFFE
:1051D000164B044699420D468B4640F3FD8101F182
:1051E0003F4303F5E003034300F0DC81DDE9020106
:1051F00000220023FBF7E2FB003818BF01201DE767
:10520000000000604715F73F44DF5DF80BAE543EE9
:10521000555555555555D53FFE822B654715F73FDA
:105220000000F03F0000D03F0000E03FFFFF8F4054
:10523000D34A3240002A40F07A81D24B0022FBF759
:105240004BF96FF034040B461A15A2F2FF322244D8
:105250000A92CD4AC3F3130343F07F55934245F4BA
:10526000401508DDC94A934240F363810A9BA5F5C6
:10527000801501330A930026F3000B93C44B294693
:1052800003EBC603D3E900341A46CDE908342346BC
:105290008246FAF769FF52462B46CDE90C01DDE95B
:1052A0000801FAF763FF02460B460020B949FBF7F5
:1052B0003DFA02460B46CDE90E01DDE90C01FBF794
:1052C0000BF9CDE90601DDE90634CDE9043400230C
:1052D0000022AB466D1045F00055049305F50025FE
:1052E000DDE9048905EB86434046494614461D46E0
:1052F000FBF7F2F802460B46DDE90C01FAF734FF42
:10530000DDE9082306460F4620462946FAF72CFF1A
:1053100002460B4650465946FAF726FF42464B4690
:10532000FBF7DAF802460B4630463946FAF71CFF1F
:10533000DDE90E23FBF7D0F8DDE90623CDE908010E
:1053400010461946FBF7C8F87BA3D3E900230446AF
:105350000D46FBF7C1F87AA3D3E90023FAF706FF5D
:1053600022462B46FBF7B8F877A3D3E90023FAF7D8
:10537000FDFE22462B46FBF7AFF875A3D3E90023C9
:10538000FAF7F4FE22462B46FBF7A6F872A3D3E900
:105390000023FAF7EBFE22462B46FBF79DF870A39D
:1053A000D3E90023FAF7E2FE224606460F462B46D3
:1053B00020462946FBF790F802460B463046394610
:1053C000FBF78AF804460D46DDE9060142464B46E6
:1053D000FAF7CCFEDDE90823FBF77EF822462B46E0
:1053E000FAF7C4FE424682468B464B464046494643
:1053F000FBF772F80022684B06460F46FAF7B6FE36
:1054000052465B46FAF7B2FE00240D4622460B4692
:1054100040464946FBF760F8002280468946204610
:1054200029465D4BFAF7A0FE32463B46FAF79CFE52
:1054300002460B4650465946FAF796FEDDE906232A
:10544000FBF74AF8224606460F46DDE908012B46DF
:10545000FBF742F802460B4630463946FAF786FE1D
:10546000002406460F4602460B4640464946FAF7D8
:105470007DFE3DA3D3E9002320460D46FBF72CF823
:1054800042464B46CDE9060120462946FAF76CFE16
:1054900002460B4630463946FAF766FE34A3D3E996
:1054A0000023FBF719F834A3D3E9002306460F467F
:1054B00020462946FBF710F802460B46304639468F
:1054C000FAF754FE0B9A354B00241344D3E900231A
:1054D000FAF74CFE82460A988B46FAF793FF064687
:1054E0000F460B9A2E4B1344D3E900895246DDE94F
:1054F00006015B46FAF73AFE42464B46FAF736FE9D
:1055000032463B46FAF732FE32463B4620460D46CF
:10551000FAF72AFE42464B46FAF726FEDDE9062355
:10552000FAF722FE02460B46504659461CE6002476
:105530008AE60126A0E600BFEF4E454A287ECA3F14
:1055400065DBC9934A86CD3F01411DA96074D13FF7
:105550004D268F515555D53FFFAB6FDBB66DDB3F09
:10556000033333333333E33F000000E009C7EE3F3A
:10557000FD033ADC09C7EE3FF5015B14E02F3EBEA8
:105580000000F07F000040438E98030079B60B00C6
:10559000A05C00080000F03F00000840805C0008AC
:1055A000905C00089AA3D3E9002330463946FAF705
:1055B000DDFD4246CDE900014B4620462946FAF77B
:1055C000D3FD02460B46DDE90001FBF715FA002882
:1055D0007FF40CAEA04B22E0A04C21F00043A3428C
:1055E00019D99F4B0B44034309D0DDE90201002286
:1055F0000023FBF7E3F9003818BF012027E54246F6
:105600004B46FAF7B1FD32463B46FBF7EBF9002873
:10561000EBD1944B03E0944A934240F2E1804FF483
:10562000801A1B15A3F2FE334AFA03FADA44CAF3CE
:105630000A518E48A1F2FF31084100EA0A03CAF379
:10564000130AC1F114014AF4801A40464AFA01FAD9
:10565000BBF1000F49464FF00002B8BFCAF1000A83
:10566000FAF782FD80468946002432463B46404692
:105670004946FAF77BFD68A3D3E9002320460D468F
:10568000FAF72AFF42464B46CDE90001204629465B
:10569000FAF76AFD02460B4630463946FAF764FDD2
:1056A0005FA3D3E90023FAF717FF5FA3D3E9002331
:1056B0008046894620462946FAF70EFF02460B46E9
:1056C00040464946FAF752FD04460D4602460B464F
:1056D000DDE90001FAF74AFDDDE90023804689464D
:1056E000FAF742FD02460B4620462946FAF73CFDF2
:1056F000424606460F464B4640464946FAF7ECFE00
:105700004BA3D3E9002304460D46FAF7E5FE4AA36E
:10571000D3E90023FAF728FD22462B46FAF7DCFEF0
:1057200047A3D3E90023FAF721FD22462B46FAF7D7
:10573000D3FE45A3D3E90023FAF716FD22462B46F4
:10574000FAF7CAFE42A3D3E90023FAF70FFD224677
:105750002B46FAF7C1FE02460B4640464946FAF789
:1057600003FD04460D4602460B4640464946FAF7FD
:10577000B3FE0022CDE900014FF0804320462946C8
:10578000FAF7F2FC02460B46DDE90001FAF7CEFF1C
:10579000324604460D463B4640464946FAF79CFED3
:1057A00032463B46FAF7E2FC02460B4620462946C3
:1057B000FAF7DAFC42464B46FAF7D6FC02460B46AD
:1057C00000202B49FAF7D0FC01EB0A54B4F5801FF6
:1057D00009DA524600F054F8DDE90223FFF789BBED
:1057E000DDF810A040E72146F6E700202049FFF74A
:1057F00035BBDDE90001FFF731BB50465946FFF7E5
:105800002DBB0C46FFF787BB0024FFF769BB00BF29
:10581000FE822B654715973C00000000432EE63FB3
:10582000EF39FAFE422EE63F396CA80C615C20BECF
:10583000D0A4BE726937663EF16BD2C541BDBB3E96
:105840002CDE25AF6A56113F93BDBE166CC1663F74
:105850003E5555555555C53F00009040FFCB9040F3
:1058600000346F3F00CC90400000E03F0000F0FFAC
:105870000000F03F21F0004319467047000000008F
:105880002DE9F0481646C1F30A5283468C460B4672
:1058900082B921F00043034335D02D4B0022FAF7A3
:1058A0001BFE2C4B83469E428C460DDA24A3D3E983
:1058B000002319E040F2FF77BA4209D10246FAF715
:1058C00055FC83468C461EE00B46C1F30A52363A1D
:1058D0004CF250318E420ADD1BA3D3E9002365460A
:1058E00063F31E0529461C48FAF7F6FDE9E740F286
:1058F000FE7132448A42EFDC002A08DD6FF31E534A
:1059000043EA0255AC4658466146BDE8F08812F1BC
:10591000350F09DA0CF0004343F0D27141F4B7318E
:105920000E4841F01F01C1E736326FF31E5343EAC0
:105930000255584629460022094BD5E7AFF30080AF
:1059400059F3F8C21F6EA5019C7500883CE4377EB0
:1059500000005043B03CFFFF9C75008859F3F8C22B
:105960000000903C70B504460D461646FEF764FDF7
:1059700029460660204670BD13B5044619461046F8
:105980000CB103F10043CDE90023DDE90023FAF770
:10599000A3FD222202B0BDE81040FFF7E3BF0022C2
:1059A0004FF08053FFF7E8BF00224FF0E043FFF7CE
:1059B000E3BF0000654A2DE9F84F8A4306460F46CB
:1059C0000B4604460ED10246FAF786FD02460B4608
:1059D00030463946FAF7CAFB06460F463046394686
:1059E000BDE8F88F00290CDC21F000420243F5D01D
:1059F00089B10246FAF7B8FB02460B46FAF796FE63
:105A0000EAE70A1515D1002109E0E30A153A640511
:105A1000002BFAD0F7E70A46FAE75B000131D8021B
:105A2000FBD5481E121AC1F1200024FA00F00343EE
:105A30008C400027A2F2FF381621D2074FF4001045
:105A40003A46C3F3130343F480135CBF5B0003EBDC
:105A5000D4734FEA430358BF640003EBD4734FEA97
:105A60006808640015189D42DEBF2A185B1B3F18AA
:105A7000E50F013905EB43034FEA44044FEA5000B8
:105A8000F0D10D4620264FF00040934200EB010C70
:105A900002DC13D1A44511D8BCF1000F0CEB0001BE
:105AA0003EDA00293CDB02F1010E9B1A7246A44546
:105AB00088BF03F1FF33A4EB0C0405444FEAD47C08
:105AC000013E0CEB43034FEA44044FEA5000DCD1A3
:105AD0001C431AD01E4CDFF87C90D4E90001D9E9B0
