:020000040800F2
:10000000002800205907000889060008910600080A
:1000100099060008A1060008A906000800000000D3
:10002000000000000000000000000000B106000811
:10003000BD06000800000000C9060008D50600083B
:10004000A1070008A1070008A1070008A1070008F0
:10005000A1070008A1070008E1060008A1070008A1
:10006000A1070008A1070008A1070008A1070008D0
:10007000A1070008A1070008A1070008A1070008C0
:10008000A1070008A1070008A1070008A1070008B0
:10009000A1070008A1070008A1070008A1070008A0
:1000A000A1070008A1070008A1070008A107000890
:1000B000A1070008A107000800000000A107000830
:1000C000A10700080000000000000000A1070008D0
:1000D00000000000A1070008A107000800000000C0
:1000E000A1070008A1070008A10700080000000000
:1000F0000000000000000000000000000000000000
:0C01000000000000000000005FF808F1A3
:10010C0010B5054C237833B9044B13B10448AFF345
:10011C0000800123237010BD0C00002000000000A3
:10012C00E02B000808B5034B1BB103490348AFF3A0
:10013C00008008BD0000000010000020E02B00082B
:10014C0080B500AF00F028FB00F05EF800F066F917
:10015C0000F0B0F800F0ECF80021244802F074F83C
:10016C00234800F077FC0A21214800F04DFD03469E
:10017C00002B05D11E4800F041FE03461D4A1360BA
:10018C001B4800F015FD1B4B1B684FF47A7203FBE8
:10019C0002F2194BA3FB0213D21A52081344DB0AC6
:1001AC00164A1360114B1B68144A12685A63144B9D
:1001BC001B78DBB2002B0AD101220421114801F07B
:1001CC0037FA002208210F4801F032FA09E0002228
:1001DC0004210C4801F02CFA01220821094801F0F5
:1001EC0027FA0A2000F03AFBBAE700BF58000020BB
:1001FC00280000209C00002001011000A00000201D
:10020C00980000200008014080B594B000AF07F1C1
:10021C00280328220021184602F0B0FC07F1140331
:10022C0000221A605A609A60DA601A613B1D002243
:10023C001A605A609A60DA600223BB620123BB63C6
:10024C001023FB6302237B640023BB644FF4E01395
:10025C00FB6407F12803184601F01AFA0346002B39
:10026C0001D000F04BF90F237B610223BB6100230B
:10027C00FB6100233B6200237B6207F11403012125
:10028C00184601F087FC0346002B01D000F036F92C
:10029C0002237B604FF48043FB603B1D184601F04A
:1002AC00FDFD0346002B01D000F028F900BF5037AC
:1002BC00BD4680BD80B584B000AF3B1D00221A60E6
:1002CC005A609A60184B194A1A60174B00229A60B0
:1002DC00154B00221A73144B00221A75124B4FF453
:1002EC006022DA61104B00225A600F4B01221A6116
:1002FC000D4800F0D7FA0346002B01D000F0FEF8B1
:10030C0001237B600123BB600023FB603B1D19466E
:10031C00054800F07FFD0346002B01D000F0EEF8FD
:10032C0000BF1037BD4680BD2800002000240140CE
:10033C0080B58EB000AF07F1280300221A605A6016
:10034C009A60DA6007F1200300221A605A603B1DA4
:10035C0000221A605A609A60DA601A615A619A61D6
:10036C002D4B4FF080421A602B4B23225A602A4BA4
:10037C0000229A60284B4FF6FF72DA60264B00225F
:10038C001A61254B00229A61234801F0FDFE0346B9
:10039C00002B01D000F0B2F84FF48053BB6207F190
:1003AC00280319461C4802F047F80346002B01D0DD
:1003BC0000F0A4F8184801F012FF0346002B01D0FE
:1003CC0000F09CF800233B6200237B6207F12003C2
:1003DC001946114802F08EFB0346002B01D000F0A9
:1003EC008DF860237B600023BB600023FB6000233F
:1003FC007B613B1D00221946074801F057FF03465D
:10040C00002B01D000F07AF8034800F007F900BF88
:10041C003837BD4680BD00BF5800002080B586B07F
:10042C0000AF07F1080300221A605A609A60DA6084
:10043C00214B9B69204A43F0040393611E4B9B693B
:10044C0003F004037B607B681B4B9B691A4A43F0E7
:10045C0008039361184B9B6903F008033B603B68EE
:10046C0000220C21154801F0E3F80C23BB6001239A
:10047C00FB6000233B6102237B6107F108031946F3
:10048C000E4800F059FF0123BB600D4BFB600223AB
:10049C003B6107F1080319460A4800F04DFF0022A2
:1004AC000021062000F011FF062000F02AFF00BFFB
:1004BC001837BD4680BD00BF001002400008014047
:1004CC0000001110000C014080B483B000AF034653
:1004DC00FB80FB88012B0AD1074B1B78DBB2002B6E
:1004EC000CBF01230023DBB21A46034B1A7000BF6A
:1004FC000C37BD4680BC70479800002080B400AF1C
:10050C0072B600BF00BFFDE780B485B000AF154BDD
:10051C009B69144A43F001039361124B9B6903F0EE
:10052C000103BB60BB680F4BDB690E4A43F0805381
:10053C00D3610C4BDB6903F080537B607B680A4B07
:10054C005B68FB60FB6823F0E063FB60FB6843F0D7
:10055C008063FB60044AFB68536000BF1437BD46E0
:10056C0080BC7047001002400000014080B588B08C
:10057C0000AF786007F1100300221A605A609A608D
:10058C00DA607B681B68144A934221D1134B9B6938
:10059C00124A43F400739361104B9B6903F400738C
:1005AC00FB60FB680D4B9B690C4A43F004039361A1
:1005BC000A4B9B6903F00403BB60BB6802233B61DD
:1005CC0003237B6107F110031946054800F0B4FEC4
:1005DC0000BF2037BD4680BD002401400010024002
:1005EC000008014080B485B000AF78607B681B6860
:1005FC00B3F1804F0BD1084BDB69074A43F0010381
:10060C00D361054BDB6903F00103FB60FB6800BFA2
:10061C001437BD4680BC70470010024080B588B0CE
:10062C0000AF786007F1100300221A605A609A60DC
:10063C00DA607B681B68B3F1804F17D10D4B9B6957
:10064C000C4A43F0040393610A4B9B6903F00403C7
:10065C00FB60FB6801233B6102237B610223FB618E
:10066C0007F110031946044800F066FE00BF20375E
:10067C00BD4680BD001002400008014080B400AFB0
:10068C0000BFFDE780B400AF00BFFDE780B400AF52
:10069C0000BFFDE780B400AF00BFFDE780B400AF42
:1006AC0000BFFDE780B400AF00BFBD4680BC704703
:1006BC0080B400AF00BFBD4680BC704780B400AFB3
:1006CC0000BFBD4680BC704780B500AF00F0AAF8F3
:1006DC0000BF80BD80B500AF012000F0C1FF00BF9E
:1006EC0080BD000080B400AF154B1B68144A43F06A
:1006FC0001031360124B5A681149124B13404B60A3
:10070C000F4B1B680E4A23F0847323F48033136061
:10071C000B4B1B680A4A23F480231360084B5B685D
:10072C00074A23F4FE035360054B4FF41F029A60F3
:10073C00054B4FF000629A6000BFBD4680BC70470D
:10074C00001002400000FFF800ED00E0002103E083
:10075C000B4B5B58435004310A480B4B42189A42DE
:10076C00F6D30A4A02E0002342F8043B084B9A42B3
:10077C00F9D3FFF7B7FF02F009FAFFF7E1FC704776
:10078C00382C0008000000200C0000200C00002079
:10079C00A8000020FEE7000080B500AF084B1B68E6
:1007AC00074A43F010031360032000F083FD0F2071
:1007BC0000F008F8FFF7A8FE0023184680BD00BF24
:1007CC000020024080B582B000AF7860124B1A68EE
:1007DC00124B1B7819464FF47A73B3FBF1F3B2FB4F
:1007EC00F3F3184600F09BFD0346002B01D00123C8
:1007FC000EE07B680F2B0AD8002279684FF0FF308F
:10080C0000F063FD064A7B681360002300E00123BF
:10081C0018460837BD4680BD0000002008000020A7
:10082C000400002080B400AF054B1B781A46054B22
:10083C001B681344034A136000BFBD4680BC70475D
:10084C0008000020A400002080B400AF024B1B68FD
:10085C001846BD4680BC7047A400002080B584B00B
:10086C0000AF7860FFF7F0FFB8607B68FB60FB6857
:10087C00B3F1FF3F05D00A4B1B781A46FB681344B3
:10088C00FB6000BFFFF7E0FF0246BB68D31AFA68B3
:10089C009A42F7D800BF00BF1037BD4680BD00BFDD
:1008AC000800002080B586B000AF78600023FB758F
:1008BC0000233B610023BB600023FB607B68002BA3
:1008CC0001D10123BEE07B689B68002B7B689B6A8F
:1008DC00002B09D17B680022DA627B68002283F846
:1008EC0024207868FFF742FE786800F0DDFB0346B1
:1008FC00FB757B689B6A03F01003002B40F099801A
:10090C00FB7D002B40F095807B689B6A23F4885319
:10091C0023F0020343F002027B689A627B685A68F8
:10092C007B68DB691A437B681B7B5B001343BA68EB
:10093C001343BB607B689B68B3F5807F03D07B68F7
:10094C009B68012B02D14FF4807300E000233A69BD
:10095C0013433B617B681B7D012B19D17B681B7B8F
:10096C00002B09D17B689B69013B5A033B691343FC
:10097C0043F400633B610BE07B689B6A43F020020D
:10098C007B689A627B68DB6A43F001027B68DA62FF
:10099C007B681B685B6823F469417B681B683A6958
:1009AC000A435A607B681B689A68284B13407A6824
:1009BC001268B9680B4393607B689B68B3F5807FC2
:1009CC0003D07B689B68012B04D17B681B69013BBE
:1009DC001B05FB607B681B68DB6A23F470017B687A
:1009EC001B68FA680A43DA627B681B689A68184BC2
:1009FC001340BA689A420BD17B680022DA627B689A
:100A0C009B6A23F0030343F001027B689A6218E0AF
:100A1C007B689B6A23F0120343F010027B689A6296
:100A2C007B68DB6A43F001027B68DA620123FB75A9
:100A3C0007E07B689B6A43F010027B689A62012393
:100A4C00FB75FB7D18461837BD4680BDFDF7E1FFF1
:100A5C00FE0E1FFF80B584B000AF78600023FB73DF
:100A6C007B6893F82430012B01D1022398E07B683A
:100A7C00012283F82420786800F0C4FA0346FB7343
:100A8C00FB7B002B40F087807B689B6A23F44073D0
:100A9C0023F0010343F480727B689A627B681B68C5
:100AAC00414A934205D1414B5B6803F47023002B00
:100ABC0015D17B689B6A23F480127B689A627B68F1
:100ACC001B685B6803F48063002B26D07B689B6AF1
:100ADC0023F4405343F480527B689A621DE07B6898
:100AEC009B6A43F480127B689A627B681B682F4A6E
:100AFC00934204D07B681B682B4A93420DD12B4B3D
:100B0C005B6803F48063002B07D07B689B6A23F43B
:100B1C00405343F480527B689A627B689B6A03F46F
:100B2C008053002B06D07B68DB6A23F006027B68BF
:100B3C00DA6202E07B680022DA627B68002283F8CA
:100B4C0024207B681B686FF002021A607B681B68AC
:100B5C009B6803F46023B3F5602F13D17B681B688B
:100B6C00114A934205D1114B5B6803F47023002B9F
:100B7C0008D17B681B689A687B681B6842F4A002EA
:100B8C009A600CE07B681B689A687B681B6842F46F
:100B9C0080129A6003E07B68002283F82420FB7BA0
:100BAC0018461037BD4680BD002801400024014086
:100BBC0080B584B000AF78600023FB737B6893F83A
:100BCC002430012B01D102231AE07B68012283F827
:100BDC002420786800F068FA0346FB73FB7B002B3B
:100BEC0009D17B689B6A23F4885323F0010343F0FB
:100BFC0001027B689A627B68002283F82420FB7BCD
:100C0C0018461037BD4680BD90B587B000AF7860F0
:100C1C00396000237B610023FB6000233B61FFF7FD
:100C2C0013FE78617B681B689B6803F48073002B50
:100C3C000BD07B689B6A43F020027B689A627B68CE
:100C4C00002283F824200123C8E07B681B685B68C2
:100C5C0003F48073002B2AD17B681B68DB6A03F4D6
:100C6C007003002B23D11AE03B68B3F1FF3F16D081
:100C7C003B68002B07D0FFF7E7FD02467B69D31AD0
:100C8C003A689A420BD27B689B6A43F004027B68F9
:100C9C009A627B68002283F8242003239EE07B6801
:100CAC001B681B6803F00203002BDDD06CE04D4B7E
:100CBC001C68022001F0A8F90346B4FBF3F27B6830
:100CCC001B681969484B0B40002B18D17B681B68BB
:100CDC00D968464B0B40002B11D17B681B681969F6
:100CEC00434B0B40002B08D17B681B68D968414BE8
:100CFC000B40002B01D1142320E029231EE07B683C
:100D0C001B6819693A4B0B40002B06D17B681B689A
:100D1C00D968384B0B40002B0DD07B681B681969C8
:100D2C00354B0B40002B08D17B681B68D968324BC4
:100D3C000B40002B01D1542300E0FC2302FB03F3F6
:100D4C003B611DE03B68B3F1FF3F16D03B68002BC5
:100D5C0007D0FFF779FD02467B69D31A3A689A42AD
:100D6C000BD27B689B6A43F004027B689A627B68B7
:100D7C00002283F82420032330E0FB680133FB605E
:100D8C00FB683A699A42DDD87B681B686FF01202E7
:100D9C001A607B689B6A43F400727B689A627B687A
:100DAC001B689B6803F46023B3F5602F15D17B6837
:100DBC001B7B002B11D17B689B6A23F480727B68B0
:100DCC009A627B689B6A03F48053002B05D17B6885
:100DDC009B6A43F001027B689A62002318461C3719
:100DEC00BD4690BD00000020244992242449920065
:100DFC0092244912922449004992240080B483B071
:100E0C0000AF78607B681B68DB6C18460C37BD46FE
:100E1C0080BC704780B485B000AF78603960002327
:100E2C00FB730023BB607B6893F82430012B01D14A
:100E3C000223DCE07B68012283F824203B685B689A
:100E4C00062B1CD87B681B68596B3B685A68134689
:100E5C009B001344053B1F2202FA03F3DB431940AA
:100E6C003B6818683B685A6813469B001344053B63
:100E7C0000FA03F27B681B680A435A633CE03B6848
:100E8C005B680C2B1CD87B681B68196B3B685A6819
:100E9C0013469B001344233B1F2202FA03F3DB434C
:100EAC0019403B6818683B685A6813469B0013440A
:100EBC00233B00FA03F27B681B680A431A631BE0AE
:100ECC007B681B68D96A3B685A6813469B001344BD
:100EDC00413B1F2202FA03F3DB4319403B681868BD
:100EEC003B685A6813469B001344413B00FA03F2DB
:100EFC007B681B680A43DA623B681B68092B1CD9A8
:100F0C007B681B68D9683B681A6813465B001344FE
:100F1C001E3B072202FA03F3DB4319403B68986837
:100F2C003B681A6813465B0013441E3B00FA03F23D
:100F3C007B681B680A43DA6019E07B681B681969D7
:100F4C003B681A6813465B001344072202FA03F34A
:100F5C00DB4319403B6898683B681A6813465B0092
:100F6C00134400FA03F27B681B680A431A613B685E
:100F7C001B68102B03D03B681B68112B32D17B688C
:100F8C001B681D4A934225D17B681B689B6803F440
:100F9C000003002B26D17B681B689A687B681B6852
:100FAC0042F400029A603B681B68102B1AD1134B59
:100FBC001B68134AA2FB03239A0C13469B00134491
:100FCC005B00BB6002E0BB68013BBB60BB68002BF5
:100FDC00F9D107E07B689B6A43F020027B689A6238
:100FEC000123FB737B68002283F82420FB7B1846CB
:100FFC001437BD4680BC704700240140000000201F
:10100C0083DE1B4380B584B000AF78600023FB60A7
:10101C000023BB607B681B689B6803F00103012BFA
:10102C0039D07B681B689A687B681B6842F00102A8
:10103C009A601B4B1B681B4AA2FB03239B0CBB60D7
:10104C0002E0BB68013BBB60BB68002BF9D1FFF72A
:10105C00FBFBF86018E0FFF7F7FB0246FB68D31ABE
:10106C00022B11D97B689B6A43F010027B689A6251
:10107C007B68DB6A43F001027B68DA627B680022E2
:10108C0083F82420012307E07B681B689B6803F02E
:10109C000103012BDFD1002318461037BD4680BD5C
:1010AC000000002083DE1B4380B584B000AF786065
:1010BC000023FB607B681B689B6803F00103012B1A
:1010CC0027D17B681B689A687B681B6822F0010239
:1010DC009A60FFF7B9FBF86014E0FFF7B5FB024626
:1010EC00FB68D31A022B0DD97B689B6A43F0100264
:1010FC007B689A627B68DB6A43F001027B68DA6288
:10110C00012307E07B681B689B6803F00103012B3C
:10111C00E3D0002318461037BD4680BD80B485B09F
:10112C0000AF78607B6803F00703FB600C4BDB6857
:10113C00BB60BA684FF6FF031340BB60FB681A0232
:10114C00BB68134343F0BF6343F40033BB60044AF2
:10115C00BB68D36000BF1437BD4680BC704700BF6E
:10116C0000ED00E080B400AF044BDB681B0A03F019
:10117C0007031846BD4680BC704700BF00ED00E079
:10118C0080B483B000AF0346FB7197F90730002B96
:10119C000BDBFB7903F01F02064997F907305B095B
:1011AC00012000FA02F241F8232000BF0C37BD46A3
:1011BC0080BC704700E100E080B483B000AF034610
:1011CC003960FB7197F90730002B0ADB3B68DAB208
:1011DC000C4997F907301201D2B20B4483F8002363
:1011EC000AE03B68DAB20849FB7903F00F03043BD1
:1011FC001201D2B20B441A7600BF0C37BD4680BC2C
:10120C00704700BF00E100E000ED00E080B489B061
:10121C0000AFF860B9607A60FB6803F00703FB610C
:10122C00FB69C3F10703042B28BF0423BB61FB69D3
:10123C000433062B02D9FB69033B00E000237B61DE
:10124C004FF0FF32BB6902FA03F3DA43BB681A4072
:10125C007B699A404FF0FF317B6901FA03F3D94364
:10126C007B680B40134318462437BD4680BC70473F
:10127C0080B582B000AF78607B68013BB3F1807FB2
:10128C0001D301230FE00A4A7B68013B53600F2115
:10129C004FF0FF30FFF790FF054B00229A60044B94
:1012AC0007221A60002318460837BD4680BD00BFD0
:1012BC0010E000E080B582B000AF78607868FFF78E
:1012CC002DFF00BF0837BD4680BD80B586B000AF8E
:1012DC000346B9607A60FB7300237B61FFF742FF22
:1012EC0078617A68B9687869FFF790FF024697F9D8
:1012FC000F3011461846FFF75FFF00BF1837BD4689
:10130C0080BD80B582B000AF0346FB7197F9073002
:10131C001846FFF735FF00BF0837BD4680BD80B5C6
:10132C0082B000AF78607868FFF7A2FF03461846DA
:10133C000837BD4680BD000080B48BB000AF78602C
:10134C00396000237B6200233B6261E101227B6AEE
:10135C0002FA03F3FB613B681B68FA691340BB613B
:10136C00BA69FB699A4240F050813B685B68974AC6
:10137C0093425ED0954A934275D8954A934258D081
:10138C00934A93426FD8934A934252D0914A9342D4
:10139C0069D8914A93424CD08F4A934263D88F4A72
:1013AC00934246D08D4A93425DD8122B2AD8122BE9
:1013BC0059D801A252F823F03F1400081914000860
:1013CC002B1400086D140008731400087314000823
:1013DC0073140008731400087314000873140008C5
:1013EC0073140008731400087314000873140008B5
:1013FC0073140008731400087314000821140008F7
:10140C0035140008764A934213D02CE03B68DB6815
:10141C003B6229E03B68DB6804333B6224E03B68B9
:10142C00DB6808333B621FE03B68DB680C333B62D4
:10143C001AE03B689B68002B02D104233B6213E04B
:10144C003B689B68012B05D108233B627B68FA69DA
:10145C001A6109E008233B627B68FA695A6103E070
:10146C0000233B6200E000BFBB69FF2B01D87B6807
:10147C0001E07B6804337B61BB69FF2B02D87B6A7C
:10148C009B0002E07B6A083B9B003B617B691A680E
:10149C000F213B6901FA03F3DB431A40396A3B69BC
:1014AC0001FA03F31A437B691A603B685B6803F02B
:1014BC008053002B00F0A9804A4B9B69494A43F0AA
:1014CC0001039361474B9B6903F00103BB60BB684D
:1014DC00454A7B6A9B08023352F82330FB607B6AD7
:1014EC0003F003039B000F2202FA03F3DB43FA68B9
:1014FC001340FB607B683D4A93420DD07B683C4AAD
:10150C00934207D07B683B4A934201D1022304E00B
:10151C00032302E0012300E000237A6A02F00302B5
:10152C0092009340FA681343FB602F497B6A9B0837
:10153C000233FA6841F823203B685B6803F480337C
:10154C00002B06D02C4B1A682B49BB6913430B603C
:10155C0006E0294B1A68BB69DB43274913400B6033
:10156C003B685B6803F40033002B06D0224B5A68AF
:10157C002149BB6913434B6006E01F4B5A68BB699A
:10158C00DB431D4913404B603B685B6803F48013DD
:10159C00002B06D0184B9A681749BB6913438B6014
:1015AC0006E0154B9A68BB69DB43134913408B600B
:1015BC003B685B6803F40013002B1FD00E4BDA68FA
:1015CC000D49BB691343CB601FE000BF0000321014
:1015DC000000311000002210000021100000121039
:1015EC0000001110001002400000014000080140F2
:1015FC00000C014000100140000401400B4BDA6864
:10160C00BB69DB4309491340CB607B6A01337B62C6
:10161C003B681A687B6A22FA03F3002B7FF496AEC0
:10162C0000BF00BF2C37BD4680BC70470004014092
:10163C0080B483B000AF78600B467B8013467B7020
:10164C007B78002B03D07A887B681A6103E07B8857
:10165C001A047B681A6100BF0C37BD4680BC70470A
:10166C0080B582B000AF0346FB80084B5A69FB88FB
:10167C001340002B06D0054AFB885361FB881846A3
:10168C00FEF722FF00BF0837BD4680BD00040140B5
:10169C0080B586B000AF78607B68002B01D1012348
:1016AC0072E27B681B6803F00103002B00F087805B
:1016BC00924B5B6803F00C03042B0CD08F4B5B68D4
:1016CC0003F00C03082B12D18C4B5B6803F48033B2
:1016DC00B3F5803F0BD1894B1B6803F40033002B0F
:1016EC006CD07B685B68002B68D101234CE27B6873
:1016FC005B68B3F5803F06D1804B1B687F4A43F48F
:10170C00803313602EE07B685B68002B0CD17B4B25
:10171C001B687A4A23F480331360784B1B68774A32
:10172C0023F4802313601DE07B685B68B3F5A02F66
:10173C000CD1724B1B68714A43F4802313606F4BBE
:10174C001B686E4A43F4803313600BE06B4B1B68D1
:10175C006A4A23F480331360684B1B68674A23F48E
:10176C00802313607B685B68002B13D0FFF76CF849
:10177C00386108E0FFF768F802463B69D31A642B1E
:10178C0001D9032300E25D4B1B6803F40033002BEB
:10179C00F0D014E0FFF758F8386108E0FFF754F880
:1017AC0002463B69D31A642B01D90323ECE1534B5A
:1017BC001B6803F40033002BF0D100E000BF7B6802
:1017CC001B6803F00203002B63D04C4B5B6803F0E7
:1017DC000C03002B0BD0494B5B6803F00C03082B5C
:1017EC001CD1464B5B6803F48033002B16D1434B62
:1017FC001B6803F00203002B05D07B681B69012BCF
:10180C0001D00123C0E13D4B1B6823F0F8027B683B
:10181C005B69DB00394913430B603AE07B681B6959
:10182C00002B20D0364B01221A60FFF70DF83861DF
:10183C0008E0FFF709F802463B69D31A022B01D9DD
:10184C000323A1E12D4B1B6803F00203002BF0D006
:10185C002A4B1B6823F0F8027B685B69DB00274985
:10186C0013430B6015E0264B00221A60FEF7ECFFC9
:10187C00386108E0FEF7E8FF02463B69D31A022BF9
:10188C0001D9032380E11D4B1B6803F00203002BDD
:10189C00F0D17B681B6803F00803002B3AD07B68FF
:1018AC009B69002B19D0174B01221A60FEF7CCFF55
:1018BC00386108E0FEF7C8FF02463B69D31A022BD9
:1018CC0001D9032360E10D4B5B6A03F00203002B8B
:1018DC00F0D0012000F0C4FA1CE00A4B00221A6080
:1018EC00FEF7B2FF38610FE0FEF7AEFF02463B6930
:1018FC00D31A022B08D9032346E100BF0010024083
:10190C000000424280044242924B5B6A03F00203A5
:10191C00002BE9D17B681B6803F00403002B00F05B
:10192C00A6800023FB758B4BDB6903F08053002BE7
:10193C000DD1884BDB69874A43F08053D361854BCB
:10194C00DB6903F08053BB60BB680123FB75824BE2
:10195C001B6803F48073002B18D17F4B1B687E4AE5
:10196C0043F480731360FEF76FFF386108E0FEF7F5
:10197C006BFF02463B69D31A642B01D9032303E1A5
:10198C00754B1B6803F48073002BF0D07B68DB680D
:10199C00012B06D16F4B1B6A6E4A43F00103136295
:1019AC002DE07B68DB68002B0CD16A4B1B6A694A03
:1019BC0023F001031362674B1B6A664A23F004038E
:1019CC0013621CE07B68DB68052B0CD1614B1B6A36
:1019DC00604A43F0040313625E4B1B6A5D4A43F09A
:1019EC00010313620BE05B4B1B6A5A4A23F00103A1
:1019FC001362584B1B6A574A23F0040313627B682B
:101A0C00DB68002B15D0FEF71FFF38610AE0FEF7EC
:101A1C001BFF02463B69D31A41F28832934201D92B
:101A2C000323B1E04B4B1B6A03F00203002BEED0F7
:101A3C0014E0FEF709FF38610AE0FEF705FF0246E5
:101A4C003B69D31A41F28832934201D903239BE0BC
:101A5C00404B1B6A03F00203002BEED1FB7D012BE4
:101A6C0005D13C4BDB693B4A23F08053D3617B6847
:101A7C00DB69002B00F08780364B5B6803F00C03AE
:101A8C00082B61D07B68DB69022B46D1334B0022DB
:101A9C001A60FEF7D9FE386108E0FEF7D5FE024663
:101AAC003B69D31A022B01D903236DE0294B1B6828
:101ABC0003F00073002BF0D17B681B6AB3F5803FF9
:101ACC0008D1244B5B6823F400327B689B68214966
:101ADC0013434B601F4B5B6823F474127B68196AC9
:101AEC007B685B6A0B431B4913434B601B4B012206
:101AFC001A60FEF7A9FE386108E0FEF7A5FE024663
:101B0C003B69D31A022B01D903233DE0114B1B680F
:101B1C0003F00073002BF0D035E0104B00221A605C
:101B2C00FEF792FE386108E0FEF78EFE02463B6936
:101B3C00D31A022B01D9032326E0064B1B6803F0B2
:101B4C000073002BF0D11EE07B68DB69012B07D101
:101B5C00012319E000100240007000406000424276
:101B6C000B4B5B68FB60FB6803F480327B681B6A81
:101B7C009A4206D1FB6803F470127B685B6A9A4246
:101B8C0001D0012300E0002318461837BD4680BD64
:101B9C000010024080B584B000AF786039607B687B
:101BAC00002B01D10123D0E06A4B1B6803F0070323
:101BBC003A689A4210D9674B1B6823F007026549B3
:101BCC003B6813430B60634B1B6803F007033A68D5
:101BDC009A4201D00123B8E07B681B6803F0020332
:101BEC00002B20D07B681B6803F00403002B05D06E
:101BFC00594B5B68584A43F4E06353607B681B683D
:101C0C0003F00803002B05D0534B5B68524A43F496
:101C1C0060535360504B5B6823F0F0027B689B6809
:101C2C004D4913434B607B681B6803F00103002B89
:101C3C0040D07B685B68012B07D1474B1B6803F4D2
:101C4C000033002B15D101237FE07B685B68022BEE
:101C5C0007D1414B1B6803F00073002B09D1012302
:101C6C0073E03D4B1B6803F00203002B01D10123F1
:101C7C006BE0394B5B6823F003027B685B68364989
:101C8C0013434B60FEF7E0FDF8600AE0FEF7DCFD65
:101C9C000246FB68D31A41F28832934201D90323DE
:101CAC0053E02D4B5B6803F00C027B685B689B0078
:101CBC009A42EBD1274B1B6803F007033A689A4210
:101CCC0010D2244B1B6823F0070222493B681343B4
:101CDC000B60204B1B6803F007033A689A4201D053
:101CEC00012332E07B681B6803F00403002B08D04F
:101CFC00194B5B6823F4E0627B68DB68164913437D
:101D0C004B607B681B6803F00803002B09D0124B57
:101D1C005B6823F460527B681B69DB000E4913433C
:101D2C004B6000F021F802460B4B5B681B0903F07B
:101D3C000F030A49CB5C22FA03F3094A1360094BDF
:101D4C001B681846FEF73EFD002318461037BD46AB
:101D5C0080BD00BF0020024000100240182C00087B
:101D6C00000000200400002090B48AB000AF294B82
:101D7C003C1D0FCB84E80F0040F201233B80002375
:101D8C00FB610023BB6100237B6200237B6100238A
:101D9C003B62214B5B68FB61FB6903F00C03042B7A
:101DAC0002D0082B03D02BE01C4B3B622BE0FB69D1
:101DBC009B0C03F00F0328333B4413F8243C7B614A
:101DCC00FB6903F48033002B12D0134B5B685B0C64
:101DDC0003F0010328333B4413F8283CBB617B69B7
:101DEC000E4A03FB02F2BB69B2FBF3F37B6204E025
:101DFC007B690B4A02FB03F37B627B6A3B6202E06A
:101E0C00064B3B6200BF3B6A18462837BD4690BC68
:101E1C00704700BFF82B00080010024000127A0037
:101E2C0000093D0080B400AF024B1B681846BD464C
:101E3C0080BC70470000002080B500AFFFF7F2FFB8
:101E4C000246054B5B68DB0A03F007030349CB5CD6
:101E5C0022FA03F3184680BD00100240282C00081B
:101E6C0080B485B000AF78600A4B1B680A4AA2FBAD
:101E7C0003235B0A7A6802FB03F3FB6000BFFB6879
:101E8C005A1EFA60002BF9D100BF00BF1437BD46B3
:101E9C0080BC704700000020D34D621080B586B026
:101EAC0000AF786000233B610023FB607B681B68FC
:101EBC0003F00103002B7DD00023FB754F4BDB6936
:101ECC0003F08053002B0DD14C4BDB694B4A43F094
:101EDC008053D361494BDB6903F08053BB60BB6813
:101EEC000123FB75464B1B6803F48073002B18D140
:101EFC00434B1B68424A43F480731360FEF7A4FC07
:101F0C00386108E0FEF7A0FC02463B69D31A642B4B
:101F1C0001D903236DE03A4B1B6803F48073002B4B
:101F2C00F0D0364B1B6A03F44073FB60FB68002B4C
:101F3C002ED07B685B6803F44073FA689A4227D012
:101F4C002E4B1B6A23F44073FB602E4B01221A604C
:101F5C002C4B00221A60294AFB681362FB6803F0C1
:101F6C000103002B14D0FEF76FFC38610AE0FEF77A
:101F7C006BFC02463B69D31A41F28832934201D979
:101F8C00032336E01D4B1B6A03F00203002BEED03B
:101F9C001A4B1B6A23F440727B685B681749134326
:101FAC000B62FB7D012B05D1144BDB69134A23F02B
:101FBC008053D3617B681B6803F00203002B08D0AD
:101FCC000E4B5B6823F440427B689B680B491343C0
:101FDC004B607B681B6803F01003002B08D0074B89
:101FEC005B6823F480027B68DB68044913434B6015
:101FFC00002318461837BD4680BD00BF00100240B4
:10200C00007000404004424290B58DB000AF786043
:10201C00584B07F10C040FCB84E80F0040F201235E
:10202C003B8100237B620023FB6200233B62002385
:10203C00FB610023BB627B68102B0AD07B68102BE2
:10204C0000F28E807B68012B49D07B68022B79D003
:10205C0086E0494B5B68FB61474B1B6803F0807360
:10206C00002B7FD0FB699B0C03F00F0330333B44F8
:10207C0013F8243C3B62FB6903F48033002B17D02C
:10208C003D4B5B685B0C03F0010330333B4413F8AE
:10209C00283C7B62FB6903F48033002B0DD0374A5C
:1020AC007B6AB2FBF3F23B6A02FB03F3FB6204E0D4
:1020BC003B6A334A02FB03F3FB622F4B5B6803F46E
:1020CC008003B3F5800F02D1FB6ABB624AE0FB6A66
:1020DC005B002C4AA2FB03235B08BB6242E0264B4D
:1020EC001B6AFB61FB6903F44073B3F5807F08D175
:1020FC00FB6903F00203002B03D04FF40043BB62D7
:10210C001FE0FB6903F44073B3F5007F09D11A4B50
:10211C005B6A03F00203002B03D049F64043BB6219
:10212C000FE0FB6903F44073B3F5407F1CD1124BF5
:10213C001B6803F40033002B16D04FF22443BB6210
:10214C0012E011E0FFF778FE02460B4B5B689B0B2D
:10215C0003F0030301335B00B2FBF3F3BB6204E057
:10216C0000BF02E000BF00E000BFBB6A1846343776
:10217C00BD4690BD082C00080010024000127A00E9
:10218C0000093D00ABAAAAAA80B582B000AF786066
:10219C007B68002B01D101231DE07B6893F83D3057
:1021AC00DBB2002B06D17B68002283F83C207868D8
:1021BC00FEF718FA7B68022283F83D207B681A68C8
:1021CC007B6804331946104600F0FAF97B6801224B
:1021DC0083F83D20002318460837BD4680BD80B5E6
:1021EC0082B000AF78607B68002B01D101231DE029
:1021FC007B6893F83D30DBB2002B06D17B68002264
:10220C0083F83C20786800F015F87B68022283F88C
:10221C003D207B681A687B6804331946104600F031
:10222C00CFF97B68012283F83D200023184608373C
:10223C00BD4680BD80B483B000AF786000BF0C3762
:10224C00BD4680BC7047000080B584B000AF78609C
:10225C0039607B681B6801223968184600F026FC3F
:10226C007B681B68104A934207D17B681B685A6CC9
:10227C007B681B6842F400425A647B681B689B684D
:10228C0003F00703FB60FB68062B07D07B681B6819
:10229C001A687B681B6842F001021A60002318461A
:1022AC001037BD4680BD00BF002C014080B584B006
:1022BC0000AFF860B9607A60FB6893F83C30012B92
:1022CC0001D10223B4E0FB68012283F83C20FB68B7
:1022DC00022283F83D207B680C2B00F29F8001A228
:1022EC0052F823F02523000829240008292400088B
:1022FC002924000865230008292400082924000843
:10230C0029240008A72300082924000829240008F0
:10231C0029240008E7230008FB681B68B9681846E5
:10232C0000F0A6F9FB681B689A69FB681B6842F011
:10233C0008029A61FB681B689A69FB681B6822F0AB
:10234C0004029A61FB681B689969BB681A69FB688F
:10235C001B680A439A6162E0FB681B68B9681846FF
:10236C0000F0ECF9FB681B689A69FB681B6842F487
:10237C0000629A61FB681B689A69FB681B6822F40F
:10238C0080629A61FB681B689969BB681B691A02B9
:10239C00FB681B680A439A6141E0FB681B68B968DB
:1023AC00184600F035FAFB681B68DA69FB681B6895
:1023BC0042F00802DA61FB681B68DA69FB681B688B
:1023CC0022F00402DA61FB681B68D969BB681A69E0
:1023DC00FB681B680A43DA6121E0FB681B68B9687B
:1023EC00184600F07FFAFB681B68DA69FB681B680B
:1023FC0042F40062DA61FB681B68DA69FB681B68EF
:10240C0022F48062DA61FB681B68D969BB681B69BE
:10241C001A02FB681B680A43DA6100E000BFFB6824
:10242C00012283F83D20FB68002283F83C20002326
:10243C0018461037BD4680BD80B584B000AF7860BB
:10244C0039607B6893F83C30012B01D10223B3E057
:10245C007B68012283F83C207B68022283F83D20B4
:10246C007B681B689B68FB60FB6823F07703FB6051
:10247C00FB6823F47F43FB607B681B68FA689A60F7
:10248C003B681B68B3F5005F3ED0B3F5005F00F20C
:10249C008780B3F5805F00F08580B3F5805F7FD8CF
:1024AC00702B1AD0702B7BD8602B50D0602B77D828
:1024BC00502B3CD0502B73D8402B58D0402B6FD87E
:1024CC00302B64D0302B6BD8202B60D0202B67D8CE
:1024DC00002B5CD0102B5AD062E07B6818683B68EC
:1024EC0099683B685A683B68DB6800F0C0FA7B6807
:1024FC001B689B68FB60FB6843F07703FB607B68A1
:10250C001B68FA689A604EE07B6818683B689968AB
:10251C003B685A683B68DB6800F0A9FA7B681B686B
:10252C009A687B681B6842F480429A603BE07B6847
:10253C0018683B6859683B68DB681A4600F020FA5B
:10254C007B681B685021184600F077FA2BE07B68FB
:10255C0018683B6859683B68DB681A4600F03EFA1D
:10256C007B681B686021184600F067FA1BE07B68EB
:10257C0018683B6859683B68DB681A4600F000FA3B
:10258C007B681B684021184600F057FA0BE07B680B
:10259C001A683B681B681946104600F04EFA02E0B8
:1025AC0000BF00E000BF7B68012283F83D207B6800
:1025BC00002283F83C20002318461037BD4680BD0E
:1025CC0080B485B000AF786039607B681B68FB60B5
:1025DC007B68254A934207D07B68B3F1804F03D0C8
:1025EC007B68224A934208D1FB6823F07003FB609E
:1025FC003B685B68FA681343FB607B681A4A93423A
:10260C0007D07B68B3F1804F03D07B68174A9342A5
:10261C0008D1FB6823F44073FB603B68DB68FA6805
:10262C001343FB60FB6823F080023B685B69134338
:10263C00FB607B68FA681A603B689A687B68DA62B0
:10264C003B681A687B689A627B68074A934203D19D
:10265C003B681A697B681A637B6801225A6100BF68
:10266C001437BD4680BC7047002C0140000400406C
:10267C0080B487B000AF786039607B681B6A23F048
:10268C0001027B681A627B681B6A7B617B685B68F2
:10269C003B617B689B69FB60FB6823F07003FB600C
:1026AC00FB6823F00303FB603B681B68FA68134369
:1026BC00FB607B6923F002037B613B689B687A6952
:1026CC0013437B617B681C4A93420CD17B6923F0DA
:1026DC0008037B613B68DB687A6913437B617B6928
:1026EC0023F004037B617B68134A934211D13B694D
:1026FC0023F480733B613B6923F400733B613B68BB
:10270C005B693A6913433B613B689B693A691343C4
:10271C003B617B683A695A607B68FA689A613B68EE
:10272C005A687B685A637B687A691A6200BF1C37E7
:10273C00BD4680BC704700BF002C014080B487B000
:10274C0000AF786039607B681B6A23F010027B68ED
:10275C001A627B681B6A7B617B685B683B617B6888
:10276C009B69FB60FB6823F4E043FB60FB6823F48C
:10277C004073FB603B681B681B02FA681343FB60E9
:10278C007B6923F020037B613B689B681B017A69A2
:10279C0013437B617B681D4A93420DD17B6923F007
:1027AC0080037B613B68DB681B017A6913437B61A7
:1027BC007B6923F040037B617B68144A934213D1FD
:1027CC003B6923F480633B613B6923F400633B6109
:1027DC003B685B699B003A6913433B613B689B69AF
:1027EC009B003A6913433B617B683A695A607B688A
:1027FC00FA689A613B685A687B689A637B687A6965
:10280C001A6200BF1C37BD4680BC7047002C0140CB
:10281C0080B487B000AF786039607B681B6A23F4A2
:10282C0080727B681A627B681B6A7B617B685B6861
:10283C003B617B68DB69FB60FB6823F07003FB602A
:10284C00FB6823F00303FB603B681B68FA681343C7
:10285C00FB607B6923F400737B613B689B681B0204
:10286C007A6913437B617B681D4A93420DD17B6966
:10287C0023F400637B613B68DB681B027A691343BA
:10288C007B617B6923F480637B617B68144A934290
:10289C0013D13B6923F480533B613B6923F4005310
:1028AC003B613B685B691B013A6913433B613B68C5
:1028BC009B691B013A6913433B617B683A695A6017
:1028CC007B68FA68DA613B685A687B68DA637B6814
:1028DC007A691A6200BF1C37BD4680BC704700BFC6
:1028EC00002C014080B487B000AF786039607B6801
:1028FC001B6A23F480527B681A627B681B6A3B61FB
:10290C007B685B687B617B68DB69FB60FB6823F43D
:10291C00E043FB60FB6823F44073FB603B681B687F
:10292C001B02FA681343FB603B6923F400533B61C1
:10293C003B689B681B033A6913433B617B680F4AF6
:10294C00934209D17B6923F480437B613B685B69CB
:10295C009B017A6913437B617B687A695A607B6857
:10296C00FA68DA613B685A687B681A647B683A6972
:10297C001A6200BF1C37BD4680BC7047002C01405A
:10298C0080B487B000AFF860B9607A60FB681B6AEE
:10299C007B61FB681B6A23F00102FB681A62FB680F
:1029AC009B693B613B6923F0F0033B617B681B0136
:1029BC003A6913433B617B6923F00A037B617A69B3
:1029CC00BB6813437B61FB683A699A61FB687A695F
:1029DC001A6200BF1C37BD4680BC704780B487B0FC
:1029EC0000AFF860B9607A60FB681B6A23F01002D4
:1029FC00FB681A62FB689B697B61FB681B6A3B6125
:102A0C007B6923F470437B617B681B037A691343F6
:102A1C007B613B6923F0A0033B61BB681B013A69F6
:102A2C0013433B61FB687A699A61FB683A691A62E5
:102A3C0000BF1C37BD4680BC704780B485B000AF6A
:102A4C00786039607B689B68FB60FB6823F07003DF
:102A5C00FB603A68FB68134343F00703FB607B6839
:102A6C00FA689A6000BF1437BD4680BC704780B4CA
:102A7C0087B000AFF860B9607A603B60FB689B6818
:102A8C007B617B6923F47F437B613B681A027B6823
:102A9C001A43BB6813437A6913437B61FB687A69F9
:102AAC009A6000BF1C37BD4680BC704780B487B0AD
:102ABC0000AFF860B9607A60BB6803F01F030122B5
:102ACC0002FA03F37B61FB681A6A7B69DB431A40E9
:102ADC00FB681A62FB681A6ABB6803F01F0379680B
:102AEC0001FA03F31A43FB681A6200BF1C37BD4698
:102AFC0080BC704780B485B000AF786039607B686B
:102B0C0093F83C30012B01D1022332E07B68012287
:102B1C0083F83C207B68022283F83D207B681B688D
:102B2C005B68FB607B681B689B68BB60FB6823F081
:102B3C007003FB603B681B68FA681343FB60BB685F
:102B4C0023F08003BB603B685B68BA681343BB60CF
:102B5C007B681B68FA685A607B681B68BA689A6065
:102B6C007B68012283F83D207B68002283F83C209F
:102B7C00002318461437BD4680BC704703460244F8
:102B8C00934200D1704703F8011BF9E770B500269A
:102B9C000C4D0D4C641BA410A64209D100F01AF880
:102BAC0000260A4D0A4C641BA410A64205D170BD28
:102BBC0055F8043B98470136EEE755F8043B984727
:102BCC000136F2E7302C0008302C0008302C0008BD
:102BDC00342C0008F8B500BFF8BC08BC9E46704702
:0C2BEC00F8B500BFF8BC08BC9E4670475E
:102BF80002030405060708090A0B0C0D0E0F101036
:102C080002030405060708090A0B0C0D0E0F101025
:102C18000000000000000000010203040607080984
:082C280000000000010203049A
:042C30003101000866
:042C34000D01000886
:0C2C38000024F400100000000100000067
:04000005080007598F
:00000001FF
